{
	"RockPaperScissors.sol": {
		"RockPaperScissors": {
			"abi": [
				{
					"inputs": [
						{
							"internalType": "enum RockPaperScissors.Choice",
							"name": "_choice",
							"type": "uint8"
						},
						{
							"internalType": "string",
							"name": "_secret",
							"type": "string"
						}
					],
					"name": "commit",
					"outputs": [],
					"stateMutability": "payable",
					"type": "function"
				},
				{
					"inputs": [],
					"name": "determineWinner",
					"outputs": [],
					"stateMutability": "nonpayable",
					"type": "function"
				},
				{
					"inputs": [],
					"name": "isPlayer1Committed",
					"outputs": [
						{
							"internalType": "bool",
							"name": "",
							"type": "bool"
						}
					],
					"stateMutability": "view",
					"type": "function"
				},
				{
					"inputs": [],
					"name": "isPlayer1Revealed",
					"outputs": [
						{
							"internalType": "bool",
							"name": "",
							"type": "bool"
						}
					],
					"stateMutability": "view",
					"type": "function"
				},
				{
					"inputs": [],
					"name": "isPlayer2Committed",
					"outputs": [
						{
							"internalType": "bool",
							"name": "",
							"type": "bool"
						}
					],
					"stateMutability": "view",
					"type": "function"
				},
				{
					"inputs": [],
					"name": "isPlayer2Revealed",
					"outputs": [
						{
							"internalType": "bool",
							"name": "",
							"type": "bool"
						}
					],
					"stateMutability": "view",
					"type": "function"
				},
				{
					"inputs": [],
					"name": "player1",
					"outputs": [
						{
							"internalType": "address payable",
							"name": "playerAddress",
							"type": "address"
						},
						{
							"internalType": "bytes32",
							"name": "commitment",
							"type": "bytes32"
						},
						{
							"internalType": "enum RockPaperScissors.Choice",
							"name": "choice",
							"type": "uint8"
						},
						{
							"internalType": "uint256",
							"name": "wager",
							"type": "uint256"
						}
					],
					"stateMutability": "view",
					"type": "function"
				},
				{
					"inputs": [],
					"name": "player2",
					"outputs": [
						{
							"internalType": "address payable",
							"name": "playerAddress",
							"type": "address"
						},
						{
							"internalType": "bytes32",
							"name": "commitment",
							"type": "bytes32"
						},
						{
							"internalType": "enum RockPaperScissors.Choice",
							"name": "choice",
							"type": "uint8"
						},
						{
							"internalType": "uint256",
							"name": "wager",
							"type": "uint256"
						}
					],
					"stateMutability": "view",
					"type": "function"
				},
				{
					"inputs": [
						{
							"internalType": "enum RockPaperScissors.Choice",
							"name": "_choice",
							"type": "uint8"
						},
						{
							"internalType": "string",
							"name": "_secret",
							"type": "string"
						}
					],
					"name": "reveal",
					"outputs": [],
					"stateMutability": "nonpayable",
					"type": "function"
				},
				{
					"inputs": [
						{
							"internalType": "address payable",
							"name": "_player1",
							"type": "address"
						},
						{
							"internalType": "address payable",
							"name": "_player2",
							"type": "address"
						}
					],
					"name": "setPlayers",
					"outputs": [],
					"stateMutability": "nonpayable",
					"type": "function"
				}
			],
			"devdoc": {
				"kind": "dev",
				"methods": {},
				"version": 1
			},
			"evm": {
				"assembly": "    /* \"RockPaperScissors.sol\":60:5376  contract RockPaperScissors{... */\n  mstore(0x40, 0x80)\n    /* \"RockPaperScissors.sol\":442:447  false */\n  0x00\n    /* \"RockPaperScissors.sol\":409:447  bool public isPlayer1Committed = false */\n  0x08\n  exp(0x0100, 0x00)\n  dup2\n  sload\n  dup2\n  0xff\n  mul\n  not\n  and\n  swap1\n  dup4\n  iszero\n  iszero\n  mul\n  or\n  swap1\n  sstore\n  pop\n    /* \"RockPaperScissors.sol\":487:492  false */\n  0x00\n    /* \"RockPaperScissors.sol\":454:492  bool public isPlayer2Committed = false */\n  0x08\n  exp(0x0100, 0x01)\n  dup2\n  sload\n  dup2\n  0xff\n  mul\n  not\n  and\n  swap1\n  dup4\n  iszero\n  iszero\n  mul\n  or\n  swap1\n  sstore\n  pop\n    /* \"RockPaperScissors.sol\":531:536  false */\n  0x00\n    /* \"RockPaperScissors.sol\":499:536  bool public isPlayer1Revealed = false */\n  0x08\n  exp(0x0100, 0x02)\n  dup2\n  sload\n  dup2\n  0xff\n  mul\n  not\n  and\n  swap1\n  dup4\n  iszero\n  iszero\n  mul\n  or\n  swap1\n  sstore\n  pop\n    /* \"RockPaperScissors.sol\":575:580  false */\n  0x00\n    /* \"RockPaperScissors.sol\":543:580  bool public isPlayer2Revealed = false */\n  0x08\n  exp(0x0100, 0x03)\n  dup2\n  sload\n  dup2\n  0xff\n  mul\n  not\n  and\n  swap1\n  dup4\n  iszero\n  iszero\n  mul\n  or\n  swap1\n  sstore\n  pop\n    /* \"RockPaperScissors.sol\":60:5376  contract RockPaperScissors{... */\n  callvalue\n  dup1\n  iszero\n  tag_1\n  jumpi\n  0x00\n  dup1\n  revert\ntag_1:\n  pop\n  dataSize(sub_0)\n  dup1\n  dataOffset(sub_0)\n  0x00\n  codecopy\n  0x00\n  return\nstop\n\nsub_0: assembly {\n        /* \"RockPaperScissors.sol\":60:5376  contract RockPaperScissors{... */\n      mstore(0x40, 0x80)\n      jumpi(tag_1, lt(calldatasize, 0x04))\n      shr(0xe0, calldataload(0x00))\n      dup1\n      0xadf3ef9f\n      gt\n      tag_12\n      jumpi\n      dup1\n      0xadf3ef9f\n      eq\n      tag_7\n      jumpi\n      dup1\n      0xc9b21a5c\n      eq\n      tag_8\n      jumpi\n      dup1\n      0xca3ed9e8\n      eq\n      tag_9\n      jumpi\n      dup1\n      0xd30895e4\n      eq\n      tag_10\n      jumpi\n      dup1\n      0xe4deede9\n      eq\n      tag_11\n      jumpi\n      jump(tag_1)\n    tag_12:\n      dup1\n      0x0d56fa28\n      eq\n      tag_2\n      jumpi\n      dup1\n      0x33b16d93\n      eq\n      tag_3\n      jumpi\n      dup1\n      0x59a5f12d\n      eq\n      tag_4\n      jumpi\n      dup1\n      0x737af77a\n      eq\n      tag_5\n      jumpi\n      dup1\n      0x948b530a\n      eq\n      tag_6\n      jumpi\n    tag_1:\n      0x00\n      dup1\n      revert\n        /* \"RockPaperScissors.sol\":499:536  bool public isPlayer1Revealed = false */\n    tag_2:\n      callvalue\n      dup1\n      iszero\n      tag_13\n      jumpi\n      0x00\n      dup1\n      revert\n    tag_13:\n      pop\n      tag_14\n      tag_15\n      jump\t// in\n    tag_14:\n      mload(0x40)\n      tag_16\n      swap2\n      swap1\n      tag_17\n      jump\t// in\n    tag_16:\n      mload(0x40)\n      dup1\n      swap2\n      sub\n      swap1\n      return\n        /* \"RockPaperScissors.sol\":3898:4940  function determineWinner() external playersSet bothPlayersRevealed {... */\n    tag_3:\n      callvalue\n      dup1\n      iszero\n      tag_18\n      jumpi\n      0x00\n      dup1\n      revert\n    tag_18:\n      pop\n      tag_19\n      tag_20\n      jump\t// in\n    tag_19:\n      stop\n        /* \"RockPaperScissors.sol\":375:396  Player public player2 */\n    tag_4:\n      callvalue\n      dup1\n      iszero\n      tag_21\n      jumpi\n      0x00\n      dup1\n      revert\n    tag_21:\n      pop\n      tag_22\n      tag_23\n      jump\t// in\n    tag_22:\n      mload(0x40)\n      tag_24\n      swap5\n      swap4\n      swap3\n      swap2\n      swap1\n      tag_25\n      jump\t// in\n    tag_24:\n      mload(0x40)\n      dup1\n      swap2\n      sub\n      swap1\n      return\n        /* \"RockPaperScissors.sol\":1942:2985  function commit(Choice _choice, string memory _secret) external payable playersSet hasNotCommitted {... */\n    tag_5:\n      tag_26\n      0x04\n      dup1\n      calldatasize\n      sub\n      dup2\n      add\n      swap1\n      tag_27\n      swap2\n      swap1\n      tag_28\n      jump\t// in\n    tag_27:\n      tag_29\n      jump\t// in\n    tag_26:\n      stop\n        /* \"RockPaperScissors.sol\":454:492  bool public isPlayer2Committed = false */\n    tag_6:\n      callvalue\n      dup1\n      iszero\n      tag_30\n      jumpi\n      0x00\n      dup1\n      revert\n    tag_30:\n      pop\n      tag_31\n      tag_32\n      jump\t// in\n    tag_31:\n      mload(0x40)\n      tag_33\n      swap2\n      swap1\n      tag_17\n      jump\t// in\n    tag_33:\n      mload(0x40)\n      dup1\n      swap2\n      sub\n      swap1\n      return\n        /* \"RockPaperScissors.sol\":1603:1895  function setPlayers(address payable _player1, address payable _player2) external {... */\n    tag_7:\n      callvalue\n      dup1\n      iszero\n      tag_34\n      jumpi\n      0x00\n      dup1\n      revert\n    tag_34:\n      pop\n      tag_35\n      0x04\n      dup1\n      calldatasize\n      sub\n      dup2\n      add\n      swap1\n      tag_36\n      swap2\n      swap1\n      tag_37\n      jump\t// in\n    tag_36:\n      tag_38\n      jump\t// in\n    tag_35:\n      stop\n        /* \"RockPaperScissors.sol\":409:447  bool public isPlayer1Committed = false */\n    tag_8:\n      callvalue\n      dup1\n      iszero\n      tag_39\n      jumpi\n      0x00\n      dup1\n      revert\n    tag_39:\n      pop\n      tag_40\n      tag_41\n      jump\t// in\n    tag_40:\n      mload(0x40)\n      tag_42\n      swap2\n      swap1\n      tag_17\n      jump\t// in\n    tag_42:\n      mload(0x40)\n      dup1\n      swap2\n      sub\n      swap1\n      return\n        /* \"RockPaperScissors.sol\":3029:3861  function reveal(Choice _choice, string memory _secret) external playersSet bothPlayersCommitted {... */\n    tag_9:\n      callvalue\n      dup1\n      iszero\n      tag_43\n      jumpi\n      0x00\n      dup1\n      revert\n    tag_43:\n      pop\n      tag_44\n      0x04\n      dup1\n      calldatasize\n      sub\n      dup2\n      add\n      swap1\n      tag_45\n      swap2\n      swap1\n      tag_28\n      jump\t// in\n    tag_45:\n      tag_46\n      jump\t// in\n    tag_44:\n      stop\n        /* \"RockPaperScissors.sol\":347:368  Player public player1 */\n    tag_10:\n      callvalue\n      dup1\n      iszero\n      tag_47\n      jumpi\n      0x00\n      dup1\n      revert\n    tag_47:\n      pop\n      tag_48\n      tag_49\n      jump\t// in\n    tag_48:\n      mload(0x40)\n      tag_50\n      swap5\n      swap4\n      swap3\n      swap2\n      swap1\n      tag_25\n      jump\t// in\n    tag_50:\n      mload(0x40)\n      dup1\n      swap2\n      sub\n      swap1\n      return\n        /* \"RockPaperScissors.sol\":543:580  bool public isPlayer2Revealed = false */\n    tag_11:\n      callvalue\n      dup1\n      iszero\n      tag_51\n      jumpi\n      0x00\n      dup1\n      revert\n    tag_51:\n      pop\n      tag_52\n      tag_53\n      jump\t// in\n    tag_52:\n      mload(0x40)\n      tag_54\n      swap2\n      swap1\n      tag_17\n      jump\t// in\n    tag_54:\n      mload(0x40)\n      dup1\n      swap2\n      sub\n      swap1\n      return\n        /* \"RockPaperScissors.sol\":499:536  bool public isPlayer1Revealed = false */\n    tag_15:\n      0x08\n      0x02\n      swap1\n      sload\n      swap1\n      0x0100\n      exp\n      swap1\n      div\n      0xff\n      and\n      dup2\n      jump\t// out\n        /* \"RockPaperScissors.sol\":3898:4940  function determineWinner() external playersSet bothPlayersRevealed {... */\n    tag_20:\n        /* \"RockPaperScissors.sol\":698:699  0 */\n      0x00\n        /* \"RockPaperScissors.sol\":665:700  player1.playerAddress != address(0) */\n      0xffffffffffffffffffffffffffffffffffffffff\n      and\n        /* \"RockPaperScissors.sol\":665:672  player1 */\n      0x00\n        /* \"RockPaperScissors.sol\":665:686  player1.playerAddress */\n      dup1\n      add\n      0x00\n      swap1\n      sload\n      swap1\n      0x0100\n      exp\n      swap1\n      div\n      0xffffffffffffffffffffffffffffffffffffffff\n      and\n        /* \"RockPaperScissors.sol\":665:700  player1.playerAddress != address(0) */\n      0xffffffffffffffffffffffffffffffffffffffff\n      and\n      eq\n      iszero\n        /* \"RockPaperScissors.sol\":665:739  player1.playerAddress != address(0) && player2.playerAddress != address(0) */\n      dup1\n      iszero\n      tag_56\n      jumpi\n      pop\n        /* \"RockPaperScissors.sol\":737:738  0 */\n      0x00\n        /* \"RockPaperScissors.sol\":704:739  player2.playerAddress != address(0) */\n      0xffffffffffffffffffffffffffffffffffffffff\n      and\n        /* \"RockPaperScissors.sol\":704:711  player2 */\n      0x04\n        /* \"RockPaperScissors.sol\":704:725  player2.playerAddress */\n      0x00\n      add\n      0x00\n      swap1\n      sload\n      swap1\n      0x0100\n      exp\n      swap1\n      div\n      0xffffffffffffffffffffffffffffffffffffffff\n      and\n        /* \"RockPaperScissors.sol\":704:739  player2.playerAddress != address(0) */\n      0xffffffffffffffffffffffffffffffffffffffff\n      and\n      eq\n      iszero\n        /* \"RockPaperScissors.sol\":665:739  player1.playerAddress != address(0) && player2.playerAddress != address(0) */\n    tag_56:\n        /* \"RockPaperScissors.sol\":657:759  require(player1.playerAddress != address(0) && player2.playerAddress != address(0), \"Players not set\") */\n      tag_57\n      jumpi\n      mload(0x40)\n      0x08c379a000000000000000000000000000000000000000000000000000000000\n      dup2\n      mstore\n      0x04\n      add\n      tag_58\n      swap1\n      tag_59\n      jump\t// in\n    tag_58:\n      mload(0x40)\n      dup1\n      swap2\n      sub\n      swap1\n      revert\n    tag_57:\n        /* \"RockPaperScissors.sol\":1387:1405  isPlayer1Committed */\n      0x08\n      0x00\n      swap1\n      sload\n      swap1\n      0x0100\n      exp\n      swap1\n      div\n      0xff\n      and\n        /* \"RockPaperScissors.sol\":1387:1427  isPlayer1Committed && isPlayer2Committed */\n      dup1\n      iszero\n      tag_61\n      jumpi\n      pop\n        /* \"RockPaperScissors.sol\":1409:1427  isPlayer2Committed */\n      0x08\n      0x01\n      swap1\n      sload\n      swap1\n      0x0100\n      exp\n      swap1\n      div\n      0xff\n      and\n        /* \"RockPaperScissors.sol\":1387:1427  isPlayer1Committed && isPlayer2Committed */\n    tag_61:\n        /* \"RockPaperScissors.sol\":1387:1448  isPlayer1Committed && isPlayer2Committed && isPlayer1Revealed */\n      dup1\n      iszero\n      tag_62\n      jumpi\n      pop\n        /* \"RockPaperScissors.sol\":1431:1448  isPlayer1Revealed */\n      0x08\n      0x02\n      swap1\n      sload\n      swap1\n      0x0100\n      exp\n      swap1\n      div\n      0xff\n      and\n        /* \"RockPaperScissors.sol\":1387:1448  isPlayer1Committed && isPlayer2Committed && isPlayer1Revealed */\n    tag_62:\n        /* \"RockPaperScissors.sol\":1387:1469  isPlayer1Committed && isPlayer2Committed && isPlayer1Revealed && isPlayer2Revealed */\n      dup1\n      iszero\n      tag_63\n      jumpi\n      pop\n        /* \"RockPaperScissors.sol\":1452:1469  isPlayer2Revealed */\n      0x08\n      0x03\n      swap1\n      sload\n      swap1\n      0x0100\n      exp\n      swap1\n      div\n      0xff\n      and\n        /* \"RockPaperScissors.sol\":1387:1469  isPlayer1Committed && isPlayer2Committed && isPlayer1Revealed && isPlayer2Revealed */\n    tag_63:\n        /* \"RockPaperScissors.sol\":1379:1534  require(isPlayer1Committed && isPlayer2Committed && isPlayer1Revealed && isPlayer2Revealed, \"Players must commit and reveal before determining the winner\") */\n      tag_64\n      jumpi\n      mload(0x40)\n      0x08c379a000000000000000000000000000000000000000000000000000000000\n      dup2\n      mstore\n      0x04\n      add\n      tag_65\n      swap1\n      tag_66\n      jump\t// in\n    tag_65:\n      mload(0x40)\n      dup1\n      swap2\n      sub\n      swap1\n      revert\n    tag_64:\n        /* \"RockPaperScissors.sol\":4053:4060  player2 */\n      0x04\n        /* \"RockPaperScissors.sol\":4053:4067  player2.choice */\n      0x02\n      add\n      0x00\n      swap1\n      sload\n      swap1\n      0x0100\n      exp\n      swap1\n      div\n      0xff\n      and\n        /* \"RockPaperScissors.sol\":4035:4067  player1.choice == player2.choice */\n      0x03\n      dup2\n      gt\n      iszero\n      tag_68\n      jumpi\n      tag_69\n      tag_70\n      jump\t// in\n    tag_69:\n    tag_68:\n        /* \"RockPaperScissors.sol\":4035:4042  player1 */\n      0x00\n        /* \"RockPaperScissors.sol\":4035:4049  player1.choice */\n      0x02\n      add\n      0x00\n      swap1\n      sload\n      swap1\n      0x0100\n      exp\n      swap1\n      div\n      0xff\n      and\n        /* \"RockPaperScissors.sol\":4035:4067  player1.choice == player2.choice */\n      0x03\n      dup2\n      gt\n      iszero\n      tag_71\n      jumpi\n      tag_72\n      tag_70\n      jump\t// in\n    tag_72:\n    tag_71:\n      sub\n        /* \"RockPaperScissors.sol\":4031:4857  if (player1.choice == player2.choice) {... */\n      tag_73\n      jumpi\n        /* \"RockPaperScissors.sol\":4150:4157  player1 */\n      0x00\n        /* \"RockPaperScissors.sol\":4150:4171  player1.playerAddress */\n      dup1\n      add\n      0x00\n      swap1\n      sload\n      swap1\n      0x0100\n      exp\n      swap1\n      div\n      0xffffffffffffffffffffffffffffffffffffffff\n      and\n        /* \"RockPaperScissors.sol\":4150:4180  player1.playerAddress.transfer */\n      0xffffffffffffffffffffffffffffffffffffffff\n      and\n        /* \"RockPaperScissors.sol\":4150:4195  player1.playerAddress.transfer(player1.wager) */\n      0x08fc\n        /* \"RockPaperScissors.sol\":4181:4188  player1 */\n      0x00\n        /* \"RockPaperScissors.sol\":4181:4194  player1.wager */\n      0x03\n      add\n      sload\n        /* \"RockPaperScissors.sol\":4150:4195  player1.playerAddress.transfer(player1.wager) */\n      swap1\n      dup2\n      iszero\n      mul\n      swap1\n      mload(0x40)\n      0x00\n      mload(0x40)\n      dup1\n      dup4\n      sub\n      dup2\n      dup6\n      dup9\n      dup9\n      call\n      swap4\n      pop\n      pop\n      pop\n      pop\n      iszero\n      dup1\n      iszero\n      tag_75\n      jumpi\n      returndatasize\n      0x00\n      dup1\n      returndatacopy\n      revert(0x00, returndatasize)\n    tag_75:\n      pop\n        /* \"RockPaperScissors.sol\":4210:4217  player2 */\n      0x04\n        /* \"RockPaperScissors.sol\":4210:4231  player2.playerAddress */\n      0x00\n      add\n      0x00\n      swap1\n      sload\n      swap1\n      0x0100\n      exp\n      swap1\n      div\n      0xffffffffffffffffffffffffffffffffffffffff\n      and\n        /* \"RockPaperScissors.sol\":4210:4240  player2.playerAddress.transfer */\n      0xffffffffffffffffffffffffffffffffffffffff\n      and\n        /* \"RockPaperScissors.sol\":4210:4255  player2.playerAddress.transfer(player2.wager) */\n      0x08fc\n        /* \"RockPaperScissors.sol\":4241:4248  player2 */\n      0x04\n        /* \"RockPaperScissors.sol\":4241:4254  player2.wager */\n      0x03\n      add\n      sload\n        /* \"RockPaperScissors.sol\":4210:4255  player2.playerAddress.transfer(player2.wager) */\n      swap1\n      dup2\n      iszero\n      mul\n      swap1\n      mload(0x40)\n      0x00\n      mload(0x40)\n      dup1\n      dup4\n      sub\n      dup2\n      dup6\n      dup9\n      dup9\n      call\n      swap4\n      pop\n      pop\n      pop\n      pop\n      iszero\n      dup1\n      iszero\n      tag_77\n      jumpi\n      returndatasize\n      0x00\n      dup1\n      returndatacopy\n      revert(0x00, returndatasize)\n    tag_77:\n      pop\n        /* \"RockPaperScissors.sol\":4031:4857  if (player1.choice == player2.choice) {... */\n      jump(tag_78)\n    tag_73:\n        /* \"RockPaperScissors.sol\":4310:4321  Choice.Rock */\n      0x01\n        /* \"RockPaperScissors.sol\":4292:4321  player1.choice == Choice.Rock */\n      0x03\n      dup2\n      gt\n      iszero\n      tag_79\n      jumpi\n      tag_80\n      tag_70\n      jump\t// in\n    tag_80:\n    tag_79:\n        /* \"RockPaperScissors.sol\":4292:4299  player1 */\n      0x00\n        /* \"RockPaperScissors.sol\":4292:4306  player1.choice */\n      0x02\n      add\n      0x00\n      swap1\n      sload\n      swap1\n      0x0100\n      exp\n      swap1\n      div\n      0xff\n      and\n        /* \"RockPaperScissors.sol\":4292:4321  player1.choice == Choice.Rock */\n      0x03\n      dup2\n      gt\n      iszero\n      tag_81\n      jumpi\n      tag_82\n      tag_70\n      jump\t// in\n    tag_82:\n    tag_81:\n      eq\n        /* \"RockPaperScissors.sol\":4292:4358  player1.choice == Choice.Rock && player2.choice == Choice.Scissors */\n      dup1\n      iszero\n      tag_83\n      jumpi\n      pop\n        /* \"RockPaperScissors.sol\":4343:4358  Choice.Scissors */\n      0x03\n        /* \"RockPaperScissors.sol\":4325:4358  player2.choice == Choice.Scissors */\n      dup1\n      dup2\n      gt\n      iszero\n      tag_84\n      jumpi\n      tag_85\n      tag_70\n      jump\t// in\n    tag_85:\n    tag_84:\n        /* \"RockPaperScissors.sol\":4325:4332  player2 */\n      0x04\n        /* \"RockPaperScissors.sol\":4325:4339  player2.choice */\n      0x02\n      add\n      0x00\n      swap1\n      sload\n      swap1\n      0x0100\n      exp\n      swap1\n      div\n      0xff\n      and\n        /* \"RockPaperScissors.sol\":4325:4358  player2.choice == Choice.Scissors */\n      0x03\n      dup2\n      gt\n      iszero\n      tag_86\n      jumpi\n      tag_87\n      tag_70\n      jump\t// in\n    tag_87:\n    tag_86:\n      eq\n        /* \"RockPaperScissors.sol\":4292:4358  player1.choice == Choice.Rock && player2.choice == Choice.Scissors */\n    tag_83:\n        /* \"RockPaperScissors.sol\":4291:4441  (player1.choice == Choice.Rock && player2.choice == Choice.Scissors) ||... */\n      dup1\n      tag_88\n      jumpi\n      pop\n        /* \"RockPaperScissors.sol\":4395:4407  Choice.Paper */\n      0x02\n        /* \"RockPaperScissors.sol\":4377:4407  player1.choice == Choice.Paper */\n      0x03\n      dup2\n      gt\n      iszero\n      tag_89\n      jumpi\n      tag_90\n      tag_70\n      jump\t// in\n    tag_90:\n    tag_89:\n        /* \"RockPaperScissors.sol\":4377:4384  player1 */\n      0x00\n        /* \"RockPaperScissors.sol\":4377:4391  player1.choice */\n      0x02\n      add\n      0x00\n      swap1\n      sload\n      swap1\n      0x0100\n      exp\n      swap1\n      div\n      0xff\n      and\n        /* \"RockPaperScissors.sol\":4377:4407  player1.choice == Choice.Paper */\n      0x03\n      dup2\n      gt\n      iszero\n      tag_91\n      jumpi\n      tag_92\n      tag_70\n      jump\t// in\n    tag_92:\n    tag_91:\n      eq\n        /* \"RockPaperScissors.sol\":4377:4440  player1.choice == Choice.Paper && player2.choice == Choice.Rock */\n      dup1\n      iszero\n      tag_93\n      jumpi\n      pop\n        /* \"RockPaperScissors.sol\":4429:4440  Choice.Rock */\n      0x01\n        /* \"RockPaperScissors.sol\":4411:4440  player2.choice == Choice.Rock */\n      0x03\n      dup2\n      gt\n      iszero\n      tag_94\n      jumpi\n      tag_95\n      tag_70\n      jump\t// in\n    tag_95:\n    tag_94:\n        /* \"RockPaperScissors.sol\":4411:4418  player2 */\n      0x04\n        /* \"RockPaperScissors.sol\":4411:4425  player2.choice */\n      0x02\n      add\n      0x00\n      swap1\n      sload\n      swap1\n      0x0100\n      exp\n      swap1\n      div\n      0xff\n      and\n        /* \"RockPaperScissors.sol\":4411:4440  player2.choice == Choice.Rock */\n      0x03\n      dup2\n      gt\n      iszero\n      tag_96\n      jumpi\n      tag_97\n      tag_70\n      jump\t// in\n    tag_97:\n    tag_96:\n      eq\n        /* \"RockPaperScissors.sol\":4377:4440  player1.choice == Choice.Paper && player2.choice == Choice.Rock */\n    tag_93:\n        /* \"RockPaperScissors.sol\":4291:4441  (player1.choice == Choice.Rock && player2.choice == Choice.Scissors) ||... */\n    tag_88:\n        /* \"RockPaperScissors.sol\":4291:4527  (player1.choice == Choice.Rock && player2.choice == Choice.Scissors) ||... */\n      dup1\n      tag_98\n      jumpi\n      pop\n        /* \"RockPaperScissors.sol\":4477:4492  Choice.Scissors */\n      0x03\n        /* \"RockPaperScissors.sol\":4459:4492  player1.choice == Choice.Scissors */\n      dup1\n      dup2\n      gt\n      iszero\n      tag_99\n      jumpi\n      tag_100\n      tag_70\n      jump\t// in\n    tag_100:\n    tag_99:\n        /* \"RockPaperScissors.sol\":4459:4466  player1 */\n      0x00\n        /* \"RockPaperScissors.sol\":4459:4473  player1.choice */\n      0x02\n      add\n      0x00\n      swap1\n      sload\n      swap1\n      0x0100\n      exp\n      swap1\n      div\n      0xff\n      and\n        /* \"RockPaperScissors.sol\":4459:4492  player1.choice == Choice.Scissors */\n      0x03\n      dup2\n      gt\n      iszero\n      tag_101\n      jumpi\n      tag_102\n      tag_70\n      jump\t// in\n    tag_102:\n    tag_101:\n      eq\n        /* \"RockPaperScissors.sol\":4459:4526  player1.choice == Choice.Scissors && player2.choice == Choice.Paper */\n      dup1\n      iszero\n      tag_103\n      jumpi\n      pop\n        /* \"RockPaperScissors.sol\":4514:4526  Choice.Paper */\n      0x02\n        /* \"RockPaperScissors.sol\":4496:4526  player2.choice == Choice.Paper */\n      0x03\n      dup2\n      gt\n      iszero\n      tag_104\n      jumpi\n      tag_105\n      tag_70\n      jump\t// in\n    tag_105:\n    tag_104:\n        /* \"RockPaperScissors.sol\":4496:4503  player2 */\n      0x04\n        /* \"RockPaperScissors.sol\":4496:4510  player2.choice */\n      0x02\n      add\n      0x00\n      swap1\n      sload\n      swap1\n      0x0100\n      exp\n      swap1\n      div\n      0xff\n      and\n        /* \"RockPaperScissors.sol\":4496:4526  player2.choice == Choice.Paper */\n      0x03\n      dup2\n      gt\n      iszero\n      tag_106\n      jumpi\n      tag_107\n      tag_70\n      jump\t// in\n    tag_107:\n    tag_106:\n      eq\n        /* \"RockPaperScissors.sol\":4459:4526  player1.choice == Choice.Scissors && player2.choice == Choice.Paper */\n    tag_103:\n        /* \"RockPaperScissors.sol\":4291:4527  (player1.choice == Choice.Rock && player2.choice == Choice.Scissors) ||... */\n    tag_98:\n        /* \"RockPaperScissors.sol\":4273:4857  if (... */\n      iszero\n      tag_108\n      jumpi\n        /* \"RockPaperScissors.sol\":4622:4629  player1 */\n      0x00\n        /* \"RockPaperScissors.sol\":4622:4643  player1.playerAddress */\n      dup1\n      add\n      0x00\n      swap1\n      sload\n      swap1\n      0x0100\n      exp\n      swap1\n      div\n      0xffffffffffffffffffffffffffffffffffffffff\n      and\n        /* \"RockPaperScissors.sol\":4622:4652  player1.playerAddress.transfer */\n      0xffffffffffffffffffffffffffffffffffffffff\n      and\n        /* \"RockPaperScissors.sol\":4622:4683  player1.playerAddress.transfer(player1.wager + player2.wager) */\n      0x08fc\n        /* \"RockPaperScissors.sol\":4669:4676  player2 */\n      0x04\n        /* \"RockPaperScissors.sol\":4669:4682  player2.wager */\n      0x03\n      add\n      sload\n        /* \"RockPaperScissors.sol\":4653:4660  player1 */\n      0x00\n        /* \"RockPaperScissors.sol\":4653:4666  player1.wager */\n      0x03\n      add\n      sload\n        /* \"RockPaperScissors.sol\":4653:4682  player1.wager + player2.wager */\n      tag_109\n      swap2\n      swap1\n      tag_110\n      jump\t// in\n    tag_109:\n        /* \"RockPaperScissors.sol\":4622:4683  player1.playerAddress.transfer(player1.wager + player2.wager) */\n      swap1\n      dup2\n      iszero\n      mul\n      swap1\n      mload(0x40)\n      0x00\n      mload(0x40)\n      dup1\n      dup4\n      sub\n      dup2\n      dup6\n      dup9\n      dup9\n      call\n      swap4\n      pop\n      pop\n      pop\n      pop\n      iszero\n      dup1\n      iszero\n      tag_112\n      jumpi\n      returndatasize\n      0x00\n      dup1\n      returndatacopy\n      revert(0x00, returndatasize)\n    tag_112:\n      pop\n        /* \"RockPaperScissors.sol\":4273:4857  if (... */\n      jump(tag_113)\n    tag_108:\n        /* \"RockPaperScissors.sol\":4784:4791  player2 */\n      0x04\n        /* \"RockPaperScissors.sol\":4784:4805  player2.playerAddress */\n      0x00\n      add\n      0x00\n      swap1\n      sload\n      swap1\n      0x0100\n      exp\n      swap1\n      div\n      0xffffffffffffffffffffffffffffffffffffffff\n      and\n        /* \"RockPaperScissors.sol\":4784:4814  player2.playerAddress.transfer */\n      0xffffffffffffffffffffffffffffffffffffffff\n      and\n        /* \"RockPaperScissors.sol\":4784:4845  player2.playerAddress.transfer(player1.wager + player2.wager) */\n      0x08fc\n        /* \"RockPaperScissors.sol\":4831:4838  player2 */\n      0x04\n        /* \"RockPaperScissors.sol\":4831:4844  player2.wager */\n      0x03\n      add\n      sload\n        /* \"RockPaperScissors.sol\":4815:4822  player1 */\n      0x00\n        /* \"RockPaperScissors.sol\":4815:4828  player1.wager */\n      0x03\n      add\n      sload\n        /* \"RockPaperScissors.sol\":4815:4844  player1.wager + player2.wager */\n      tag_114\n      swap2\n      swap1\n      tag_110\n      jump\t// in\n    tag_114:\n        /* \"RockPaperScissors.sol\":4784:4845  player2.playerAddress.transfer(player1.wager + player2.wager) */\n      swap1\n      dup2\n      iszero\n      mul\n      swap1\n      mload(0x40)\n      0x00\n      mload(0x40)\n      dup1\n      dup4\n      sub\n      dup2\n      dup6\n      dup9\n      dup9\n      call\n      swap4\n      pop\n      pop\n      pop\n      pop\n      iszero\n      dup1\n      iszero\n      tag_116\n      jumpi\n      returndatasize\n      0x00\n      dup1\n      returndatacopy\n      revert(0x00, returndatasize)\n    tag_116:\n      pop\n        /* \"RockPaperScissors.sol\":4273:4857  if (... */\n    tag_113:\n        /* \"RockPaperScissors.sol\":4031:4857  if (player1.choice == player2.choice) {... */\n    tag_78:\n        /* \"RockPaperScissors.sol\":4921:4932  resetGame() */\n      tag_117\n        /* \"RockPaperScissors.sol\":4921:4930  resetGame */\n      tag_118\n        /* \"RockPaperScissors.sol\":4921:4932  resetGame() */\n      jump\t// in\n    tag_117:\n        /* \"RockPaperScissors.sol\":3898:4940  function determineWinner() external playersSet bothPlayersRevealed {... */\n      jump\t// out\n        /* \"RockPaperScissors.sol\":375:396  Player public player2 */\n    tag_23:\n      0x04\n      dup1\n      0x00\n      add\n      0x00\n      swap1\n      sload\n      swap1\n      0x0100\n      exp\n      swap1\n      div\n      0xffffffffffffffffffffffffffffffffffffffff\n      and\n      swap1\n      dup1\n      0x01\n      add\n      sload\n      swap1\n      dup1\n      0x02\n      add\n      0x00\n      swap1\n      sload\n      swap1\n      0x0100\n      exp\n      swap1\n      div\n      0xff\n      and\n      swap1\n      dup1\n      0x03\n      add\n      sload\n      swap1\n      pop\n      dup5\n      jump\t// out\n        /* \"RockPaperScissors.sol\":1942:2985  function commit(Choice _choice, string memory _secret) external payable playersSet hasNotCommitted {... */\n    tag_29:\n        /* \"RockPaperScissors.sol\":698:699  0 */\n      0x00\n        /* \"RockPaperScissors.sol\":665:700  player1.playerAddress != address(0) */\n      0xffffffffffffffffffffffffffffffffffffffff\n      and\n        /* \"RockPaperScissors.sol\":665:672  player1 */\n      0x00\n        /* \"RockPaperScissors.sol\":665:686  player1.playerAddress */\n      dup1\n      add\n      0x00\n      swap1\n      sload\n      swap1\n      0x0100\n      exp\n      swap1\n      div\n      0xffffffffffffffffffffffffffffffffffffffff\n      and\n        /* \"RockPaperScissors.sol\":665:700  player1.playerAddress != address(0) */\n      0xffffffffffffffffffffffffffffffffffffffff\n      and\n      eq\n      iszero\n        /* \"RockPaperScissors.sol\":665:739  player1.playerAddress != address(0) && player2.playerAddress != address(0) */\n      dup1\n      iszero\n      tag_120\n      jumpi\n      pop\n        /* \"RockPaperScissors.sol\":737:738  0 */\n      0x00\n        /* \"RockPaperScissors.sol\":704:739  player2.playerAddress != address(0) */\n      0xffffffffffffffffffffffffffffffffffffffff\n      and\n        /* \"RockPaperScissors.sol\":704:711  player2 */\n      0x04\n        /* \"RockPaperScissors.sol\":704:725  player2.playerAddress */\n      0x00\n      add\n      0x00\n      swap1\n      sload\n      swap1\n      0x0100\n      exp\n      swap1\n      div\n      0xffffffffffffffffffffffffffffffffffffffff\n      and\n        /* \"RockPaperScissors.sol\":704:739  player2.playerAddress != address(0) */\n      0xffffffffffffffffffffffffffffffffffffffff\n      and\n      eq\n      iszero\n        /* \"RockPaperScissors.sol\":665:739  player1.playerAddress != address(0) && player2.playerAddress != address(0) */\n    tag_120:\n        /* \"RockPaperScissors.sol\":657:759  require(player1.playerAddress != address(0) && player2.playerAddress != address(0), \"Players not set\") */\n      tag_121\n      jumpi\n      mload(0x40)\n      0x08c379a000000000000000000000000000000000000000000000000000000000\n      dup2\n      mstore\n      0x04\n      add\n      tag_122\n      swap1\n      tag_59\n      jump\t// in\n    tag_122:\n      mload(0x40)\n      dup1\n      swap2\n      sub\n      swap1\n      revert\n    tag_121:\n        /* \"RockPaperScissors.sol\":907:914  player1 */\n      0x00\n        /* \"RockPaperScissors.sol\":907:928  player1.playerAddress */\n      dup1\n      add\n      0x00\n      swap1\n      sload\n      swap1\n      0x0100\n      exp\n      swap1\n      div\n      0xffffffffffffffffffffffffffffffffffffffff\n      and\n        /* \"RockPaperScissors.sol\":893:928  msg.sender == player1.playerAddress */\n      0xffffffffffffffffffffffffffffffffffffffff\n      and\n        /* \"RockPaperScissors.sol\":893:903  msg.sender */\n      caller\n        /* \"RockPaperScissors.sol\":893:928  msg.sender == player1.playerAddress */\n      0xffffffffffffffffffffffffffffffffffffffff\n      and\n      eq\n        /* \"RockPaperScissors.sol\":893:950  msg.sender == player1.playerAddress && isPlayer1Committed */\n      dup1\n      iszero\n      tag_124\n      jumpi\n      pop\n        /* \"RockPaperScissors.sol\":932:950  isPlayer1Committed */\n      0x08\n      0x00\n      swap1\n      sload\n      swap1\n      0x0100\n      exp\n      swap1\n      div\n      0xff\n      and\n        /* \"RockPaperScissors.sol\":893:950  msg.sender == player1.playerAddress && isPlayer1Committed */\n    tag_124:\n        /* \"RockPaperScissors.sol\":891:951  !(msg.sender == player1.playerAddress && isPlayer1Committed) */\n      iszero\n        /* \"RockPaperScissors.sol\":891:1028  !(msg.sender == player1.playerAddress && isPlayer1Committed) &&... */\n      dup1\n      iszero\n      tag_125\n      jumpi\n      pop\n        /* \"RockPaperScissors.sol\":984:991  player2 */\n      0x04\n        /* \"RockPaperScissors.sol\":984:1005  player2.playerAddress */\n      0x00\n      add\n      0x00\n      swap1\n      sload\n      swap1\n      0x0100\n      exp\n      swap1\n      div\n      0xffffffffffffffffffffffffffffffffffffffff\n      and\n        /* \"RockPaperScissors.sol\":970:1005  msg.sender == player2.playerAddress */\n      0xffffffffffffffffffffffffffffffffffffffff\n      and\n        /* \"RockPaperScissors.sol\":970:980  msg.sender */\n      caller\n        /* \"RockPaperScissors.sol\":970:1005  msg.sender == player2.playerAddress */\n      0xffffffffffffffffffffffffffffffffffffffff\n      and\n      eq\n        /* \"RockPaperScissors.sol\":970:1027  msg.sender == player2.playerAddress && isPlayer2Committed */\n      dup1\n      iszero\n      tag_126\n      jumpi\n      pop\n        /* \"RockPaperScissors.sol\":1009:1027  isPlayer2Committed */\n      0x08\n      0x01\n      swap1\n      sload\n      swap1\n      0x0100\n      exp\n      swap1\n      div\n      0xff\n      and\n        /* \"RockPaperScissors.sol\":970:1027  msg.sender == player2.playerAddress && isPlayer2Committed */\n    tag_126:\n        /* \"RockPaperScissors.sol\":968:1028  !(msg.sender == player2.playerAddress && isPlayer2Committed) */\n      iszero\n        /* \"RockPaperScissors.sol\":891:1028  !(msg.sender == player1.playerAddress && isPlayer1Committed) &&... */\n    tag_125:\n        /* \"RockPaperScissors.sol\":869:1080  require(... */\n      tag_127\n      jumpi\n      mload(0x40)\n      0x08c379a000000000000000000000000000000000000000000000000000000000\n      dup2\n      mstore\n      0x04\n      add\n      tag_128\n      swap1\n      tag_129\n      jump\t// in\n    tag_128:\n      mload(0x40)\n      dup1\n      swap2\n      sub\n      swap1\n      revert\n    tag_127:\n        /* \"RockPaperScissors.sol\":2139:2140  0 */\n      0x00\n        /* \"RockPaperScissors.sol\":2127:2136  msg.value */\n      callvalue\n        /* \"RockPaperScissors.sol\":2127:2140  msg.value > 0 */\n      gt\n        /* \"RockPaperScissors.sol\":2119:2176  require(msg.value > 0, \"Wager must be greater than zero\") */\n      tag_131\n      jumpi\n      mload(0x40)\n      0x08c379a000000000000000000000000000000000000000000000000000000000\n      dup2\n      mstore\n      0x04\n      add\n      tag_132\n      swap1\n      tag_133\n      jump\t// in\n    tag_132:\n      mload(0x40)\n      dup1\n      swap2\n      sub\n      swap1\n      revert\n    tag_131:\n        /* \"RockPaperScissors.sol\":2206:2217  Choice.Rock */\n      0x01\n        /* \"RockPaperScissors.sol\":2195:2217  _choice == Choice.Rock */\n      0x03\n      dup2\n      gt\n      iszero\n      tag_134\n      jumpi\n      tag_135\n      tag_70\n      jump\t// in\n    tag_135:\n    tag_134:\n        /* \"RockPaperScissors.sol\":2195:2202  _choice */\n      dup3\n        /* \"RockPaperScissors.sol\":2195:2217  _choice == Choice.Rock */\n      0x03\n      dup2\n      gt\n      iszero\n      tag_136\n      jumpi\n      tag_137\n      tag_70\n      jump\t// in\n    tag_137:\n    tag_136:\n      eq\n        /* \"RockPaperScissors.sol\":2195:2244  _choice == Choice.Rock || _choice == Choice.Paper */\n      dup1\n      tag_138\n      jumpi\n      pop\n        /* \"RockPaperScissors.sol\":2232:2244  Choice.Paper */\n      0x02\n        /* \"RockPaperScissors.sol\":2221:2244  _choice == Choice.Paper */\n      0x03\n      dup2\n      gt\n      iszero\n      tag_139\n      jumpi\n      tag_140\n      tag_70\n      jump\t// in\n    tag_140:\n    tag_139:\n        /* \"RockPaperScissors.sol\":2221:2228  _choice */\n      dup3\n        /* \"RockPaperScissors.sol\":2221:2244  _choice == Choice.Paper */\n      0x03\n      dup2\n      gt\n      iszero\n      tag_141\n      jumpi\n      tag_142\n      tag_70\n      jump\t// in\n    tag_142:\n    tag_141:\n      eq\n        /* \"RockPaperScissors.sol\":2195:2244  _choice == Choice.Rock || _choice == Choice.Paper */\n    tag_138:\n        /* \"RockPaperScissors.sol\":2195:2274  _choice == Choice.Rock || _choice == Choice.Paper || _choice == Choice.Scissors */\n      dup1\n      tag_143\n      jumpi\n      pop\n        /* \"RockPaperScissors.sol\":2259:2274  Choice.Scissors */\n      0x03\n        /* \"RockPaperScissors.sol\":2248:2274  _choice == Choice.Scissors */\n      dup1\n      dup2\n      gt\n      iszero\n      tag_144\n      jumpi\n      tag_145\n      tag_70\n      jump\t// in\n    tag_145:\n    tag_144:\n        /* \"RockPaperScissors.sol\":2248:2255  _choice */\n      dup3\n        /* \"RockPaperScissors.sol\":2248:2274  _choice == Choice.Scissors */\n      0x03\n      dup2\n      gt\n      iszero\n      tag_146\n      jumpi\n      tag_147\n      tag_70\n      jump\t// in\n    tag_147:\n    tag_146:\n      eq\n        /* \"RockPaperScissors.sol\":2195:2274  _choice == Choice.Rock || _choice == Choice.Paper || _choice == Choice.Scissors */\n    tag_143:\n        /* \"RockPaperScissors.sol\":2187:2293  require(_choice == Choice.Rock || _choice == Choice.Paper || _choice == Choice.Scissors, \"Invalid choice\") */\n      tag_148\n      jumpi\n      mload(0x40)\n      0x08c379a000000000000000000000000000000000000000000000000000000000\n      dup2\n      mstore\n      0x04\n      add\n      tag_149\n      swap1\n      tag_150\n      jump\t// in\n    tag_149:\n      mload(0x40)\n      dup1\n      swap2\n      sub\n      swap1\n      revert\n    tag_148:\n        /* \"RockPaperScissors.sol\":2365:2393  Player storage currentPlayer */\n      0x00\n        /* \"RockPaperScissors.sol\":2411:2418  player1 */\n      dup1\n        /* \"RockPaperScissors.sol\":2411:2432  player1.playerAddress */\n      0x00\n      add\n      0x00\n      swap1\n      sload\n      swap1\n      0x0100\n      exp\n      swap1\n      div\n      0xffffffffffffffffffffffffffffffffffffffff\n      and\n        /* \"RockPaperScissors.sol\":2397:2432  msg.sender == player1.playerAddress */\n      0xffffffffffffffffffffffffffffffffffffffff\n      and\n        /* \"RockPaperScissors.sol\":2397:2407  msg.sender */\n      caller\n        /* \"RockPaperScissors.sol\":2397:2432  msg.sender == player1.playerAddress */\n      0xffffffffffffffffffffffffffffffffffffffff\n      and\n      eq\n        /* \"RockPaperScissors.sol\":2396:2453  (msg.sender == player1.playerAddress) ? player1 : player2 */\n      tag_151\n      jumpi\n        /* \"RockPaperScissors.sol\":2446:2453  player2 */\n      0x04\n        /* \"RockPaperScissors.sol\":2396:2453  (msg.sender == player1.playerAddress) ? player1 : player2 */\n      jump(tag_152)\n    tag_151:\n        /* \"RockPaperScissors.sol\":2436:2443  player1 */\n      0x00\n        /* \"RockPaperScissors.sol\":2396:2453  (msg.sender == player1.playerAddress) ? player1 : player2 */\n    tag_152:\n        /* \"RockPaperScissors.sol\":2365:2453  Player storage currentPlayer = (msg.sender == player1.playerAddress) ? player1 : player2 */\n      swap1\n      pop\n        /* \"RockPaperScissors.sol\":2518:2537  bytes32 _commitment */\n      0x00\n        /* \"RockPaperScissors.sol\":2567:2574  _choice */\n      dup4\n        /* \"RockPaperScissors.sol\":2576:2583  _secret */\n      dup4\n        /* \"RockPaperScissors.sol\":2550:2584  abi.encodePacked(_choice, _secret) */\n      add(0x20, mload(0x40))\n      tag_153\n      swap3\n      swap2\n      swap1\n      tag_154\n      jump\t// in\n    tag_153:\n      mload(0x40)\n      0x20\n      dup2\n      dup4\n      sub\n      sub\n      dup2\n      mstore\n      swap1\n      0x40\n      mstore\n        /* \"RockPaperScissors.sol\":2540:2585  keccak256(abi.encodePacked(_choice, _secret)) */\n      dup1\n      mload\n      swap1\n      0x20\n      add\n      keccak256\n        /* \"RockPaperScissors.sol\":2518:2585  bytes32 _commitment = keccak256(abi.encodePacked(_choice, _secret)) */\n      swap1\n      pop\n        /* \"RockPaperScissors.sol\":2675:2686  _commitment */\n      dup1\n        /* \"RockPaperScissors.sol\":2648:2661  currentPlayer */\n      dup3\n        /* \"RockPaperScissors.sol\":2648:2672  currentPlayer.commitment */\n      0x01\n      add\n        /* \"RockPaperScissors.sol\":2648:2686  currentPlayer.commitment = _commitment */\n      dup2\n      swap1\n      sstore\n      pop\n        /* \"RockPaperScissors.sol\":2719:2728  msg.value */\n      callvalue\n        /* \"RockPaperScissors.sol\":2697:2710  currentPlayer */\n      dup3\n        /* \"RockPaperScissors.sol\":2697:2716  currentPlayer.wager */\n      0x03\n      add\n        /* \"RockPaperScissors.sol\":2697:2728  currentPlayer.wager = msg.value */\n      dup2\n      swap1\n      sstore\n      pop\n        /* \"RockPaperScissors.sol\":2845:2852  player1 */\n      0x00\n        /* \"RockPaperScissors.sol\":2845:2866  player1.playerAddress */\n      dup1\n      add\n      0x00\n      swap1\n      sload\n      swap1\n      0x0100\n      exp\n      swap1\n      div\n      0xffffffffffffffffffffffffffffffffffffffff\n      and\n        /* \"RockPaperScissors.sol\":2831:2866  msg.sender == player1.playerAddress */\n      0xffffffffffffffffffffffffffffffffffffffff\n      and\n        /* \"RockPaperScissors.sol\":2831:2841  msg.sender */\n      caller\n        /* \"RockPaperScissors.sol\":2831:2866  msg.sender == player1.playerAddress */\n      0xffffffffffffffffffffffffffffffffffffffff\n      and\n      sub\n        /* \"RockPaperScissors.sol\":2827:2978  if (msg.sender == player1.playerAddress) {... */\n      tag_155\n      jumpi\n        /* \"RockPaperScissors.sol\":2904:2908  true */\n      0x01\n        /* \"RockPaperScissors.sol\":2883:2901  isPlayer1Committed */\n      0x08\n      0x00\n        /* \"RockPaperScissors.sol\":2883:2908  isPlayer1Committed = true */\n      0x0100\n      exp\n      dup2\n      sload\n      dup2\n      0xff\n      mul\n      not\n      and\n      swap1\n      dup4\n      iszero\n      iszero\n      mul\n      or\n      swap1\n      sstore\n      pop\n        /* \"RockPaperScissors.sol\":2827:2978  if (msg.sender == player1.playerAddress) {... */\n      jump(tag_156)\n    tag_155:\n        /* \"RockPaperScissors.sol\":2962:2966  true */\n      0x01\n        /* \"RockPaperScissors.sol\":2941:2959  isPlayer2Committed */\n      0x08\n      0x01\n        /* \"RockPaperScissors.sol\":2941:2966  isPlayer2Committed = true */\n      0x0100\n      exp\n      dup2\n      sload\n      dup2\n      0xff\n      mul\n      not\n      and\n      swap1\n      dup4\n      iszero\n      iszero\n      mul\n      or\n      swap1\n      sstore\n      pop\n        /* \"RockPaperScissors.sol\":2827:2978  if (msg.sender == player1.playerAddress) {... */\n    tag_156:\n        /* \"RockPaperScissors.sol\":2041:2985  {... */\n      pop\n      pop\n        /* \"RockPaperScissors.sol\":1942:2985  function commit(Choice _choice, string memory _secret) external payable playersSet hasNotCommitted {... */\n      pop\n      pop\n      jump\t// out\n        /* \"RockPaperScissors.sol\":454:492  bool public isPlayer2Committed = false */\n    tag_32:\n      0x08\n      0x01\n      swap1\n      sload\n      swap1\n      0x0100\n      exp\n      swap1\n      div\n      0xff\n      and\n      dup2\n      jump\t// out\n        /* \"RockPaperScissors.sol\":1603:1895  function setPlayers(address payable _player1, address payable _player2) external {... */\n    tag_38:\n        /* \"RockPaperScissors.sol\":1736:1737  0 */\n      0x00\n        /* \"RockPaperScissors.sol\":1703:1738  player1.playerAddress == address(0) */\n      0xffffffffffffffffffffffffffffffffffffffff\n      and\n        /* \"RockPaperScissors.sol\":1703:1710  player1 */\n      0x00\n        /* \"RockPaperScissors.sol\":1703:1724  player1.playerAddress */\n      dup1\n      add\n      0x00\n      swap1\n      sload\n      swap1\n      0x0100\n      exp\n      swap1\n      div\n      0xffffffffffffffffffffffffffffffffffffffff\n      and\n        /* \"RockPaperScissors.sol\":1703:1738  player1.playerAddress == address(0) */\n      0xffffffffffffffffffffffffffffffffffffffff\n      and\n      eq\n        /* \"RockPaperScissors.sol\":1703:1777  player1.playerAddress == address(0) && player2.playerAddress == address(0) */\n      dup1\n      iszero\n      tag_158\n      jumpi\n      pop\n        /* \"RockPaperScissors.sol\":1775:1776  0 */\n      0x00\n        /* \"RockPaperScissors.sol\":1742:1777  player2.playerAddress == address(0) */\n      0xffffffffffffffffffffffffffffffffffffffff\n      and\n        /* \"RockPaperScissors.sol\":1742:1749  player2 */\n      0x04\n        /* \"RockPaperScissors.sol\":1742:1763  player2.playerAddress */\n      0x00\n      add\n      0x00\n      swap1\n      sload\n      swap1\n      0x0100\n      exp\n      swap1\n      div\n      0xffffffffffffffffffffffffffffffffffffffff\n      and\n        /* \"RockPaperScissors.sol\":1742:1777  player2.playerAddress == address(0) */\n      0xffffffffffffffffffffffffffffffffffffffff\n      and\n      eq\n        /* \"RockPaperScissors.sol\":1703:1777  player1.playerAddress == address(0) && player2.playerAddress == address(0) */\n    tag_158:\n        /* \"RockPaperScissors.sol\":1695:1801  require(player1.playerAddress == address(0) && player2.playerAddress == address(0), \"Players already set\") */\n      tag_159\n      jumpi\n      mload(0x40)\n      0x08c379a000000000000000000000000000000000000000000000000000000000\n      dup2\n      mstore\n      0x04\n      add\n      tag_160\n      swap1\n      tag_161\n      jump\t// in\n    tag_160:\n      mload(0x40)\n      dup1\n      swap2\n      sub\n      swap1\n      revert\n    tag_159:\n        /* \"RockPaperScissors.sol\":1836:1844  _player1 */\n      dup2\n        /* \"RockPaperScissors.sol\":1812:1819  player1 */\n      0x00\n        /* \"RockPaperScissors.sol\":1812:1833  player1.playerAddress */\n      dup1\n      add\n      0x00\n        /* \"RockPaperScissors.sol\":1812:1844  player1.playerAddress = _player1 */\n      0x0100\n      exp\n      dup2\n      sload\n      dup2\n      0xffffffffffffffffffffffffffffffffffffffff\n      mul\n      not\n      and\n      swap1\n      dup4\n      0xffffffffffffffffffffffffffffffffffffffff\n      and\n      mul\n      or\n      swap1\n      sstore\n      pop\n        /* \"RockPaperScissors.sol\":1879:1887  _player2 */\n      dup1\n        /* \"RockPaperScissors.sol\":1855:1862  player2 */\n      0x04\n        /* \"RockPaperScissors.sol\":1855:1876  player2.playerAddress */\n      0x00\n      add\n      0x00\n        /* \"RockPaperScissors.sol\":1855:1887  player2.playerAddress = _player2 */\n      0x0100\n      exp\n      dup2\n      sload\n      dup2\n      0xffffffffffffffffffffffffffffffffffffffff\n      mul\n      not\n      and\n      swap1\n      dup4\n      0xffffffffffffffffffffffffffffffffffffffff\n      and\n      mul\n      or\n      swap1\n      sstore\n      pop\n        /* \"RockPaperScissors.sol\":1603:1895  function setPlayers(address payable _player1, address payable _player2) external {... */\n      pop\n      pop\n      jump\t// out\n        /* \"RockPaperScissors.sol\":409:447  bool public isPlayer1Committed = false */\n    tag_41:\n      0x08\n      0x00\n      swap1\n      sload\n      swap1\n      0x0100\n      exp\n      swap1\n      div\n      0xff\n      and\n      dup2\n      jump\t// out\n        /* \"RockPaperScissors.sol\":3029:3861  function reveal(Choice _choice, string memory _secret) external playersSet bothPlayersCommitted {... */\n    tag_46:\n        /* \"RockPaperScissors.sol\":698:699  0 */\n      0x00\n        /* \"RockPaperScissors.sol\":665:700  player1.playerAddress != address(0) */\n      0xffffffffffffffffffffffffffffffffffffffff\n      and\n        /* \"RockPaperScissors.sol\":665:672  player1 */\n      0x00\n        /* \"RockPaperScissors.sol\":665:686  player1.playerAddress */\n      dup1\n      add\n      0x00\n      swap1\n      sload\n      swap1\n      0x0100\n      exp\n      swap1\n      div\n      0xffffffffffffffffffffffffffffffffffffffff\n      and\n        /* \"RockPaperScissors.sol\":665:700  player1.playerAddress != address(0) */\n      0xffffffffffffffffffffffffffffffffffffffff\n      and\n      eq\n      iszero\n        /* \"RockPaperScissors.sol\":665:739  player1.playerAddress != address(0) && player2.playerAddress != address(0) */\n      dup1\n      iszero\n      tag_163\n      jumpi\n      pop\n        /* \"RockPaperScissors.sol\":737:738  0 */\n      0x00\n        /* \"RockPaperScissors.sol\":704:739  player2.playerAddress != address(0) */\n      0xffffffffffffffffffffffffffffffffffffffff\n      and\n        /* \"RockPaperScissors.sol\":704:711  player2 */\n      0x04\n        /* \"RockPaperScissors.sol\":704:725  player2.playerAddress */\n      0x00\n      add\n      0x00\n      swap1\n      sload\n      swap1\n      0x0100\n      exp\n      swap1\n      div\n      0xffffffffffffffffffffffffffffffffffffffff\n      and\n        /* \"RockPaperScissors.sol\":704:739  player2.playerAddress != address(0) */\n      0xffffffffffffffffffffffffffffffffffffffff\n      and\n      eq\n      iszero\n        /* \"RockPaperScissors.sol\":665:739  player1.playerAddress != address(0) && player2.playerAddress != address(0) */\n    tag_163:\n        /* \"RockPaperScissors.sol\":657:759  require(player1.playerAddress != address(0) && player2.playerAddress != address(0), \"Players not set\") */\n      tag_164\n      jumpi\n      mload(0x40)\n      0x08c379a000000000000000000000000000000000000000000000000000000000\n      dup2\n      mstore\n      0x04\n      add\n      tag_165\n      swap1\n      tag_59\n      jump\t// in\n    tag_165:\n      mload(0x40)\n      dup1\n      swap2\n      sub\n      swap1\n      revert\n    tag_164:\n        /* \"RockPaperScissors.sol\":1197:1215  isPlayer1Committed */\n      0x08\n      0x00\n      swap1\n      sload\n      swap1\n      0x0100\n      exp\n      swap1\n      div\n      0xff\n      and\n        /* \"RockPaperScissors.sol\":1197:1237  isPlayer1Committed && isPlayer2Committed */\n      dup1\n      iszero\n      tag_167\n      jumpi\n      pop\n        /* \"RockPaperScissors.sol\":1219:1237  isPlayer2Committed */\n      0x08\n      0x01\n      swap1\n      sload\n      swap1\n      0x0100\n      exp\n      swap1\n      div\n      0xff\n      and\n        /* \"RockPaperScissors.sol\":1197:1237  isPlayer1Committed && isPlayer2Committed */\n    tag_167:\n        /* \"RockPaperScissors.sol\":1189:1272  require(isPlayer1Committed && isPlayer2Committed, \"Both players must commit first\") */\n      tag_168\n      jumpi\n      mload(0x40)\n      0x08c379a000000000000000000000000000000000000000000000000000000000\n      dup2\n      mstore\n      0x04\n      add\n      tag_169\n      swap1\n      tag_170\n      jump\t// in\n    tag_169:\n      mload(0x40)\n      dup1\n      swap2\n      sub\n      swap1\n      revert\n    tag_168:\n        /* \"RockPaperScissors.sol\":3195:3223  Player storage currentPlayer */\n      0x00\n        /* \"RockPaperScissors.sol\":3241:3248  player1 */\n      dup1\n        /* \"RockPaperScissors.sol\":3241:3262  player1.playerAddress */\n      0x00\n      add\n      0x00\n      swap1\n      sload\n      swap1\n      0x0100\n      exp\n      swap1\n      div\n      0xffffffffffffffffffffffffffffffffffffffff\n      and\n        /* \"RockPaperScissors.sol\":3227:3262  msg.sender == player1.playerAddress */\n      0xffffffffffffffffffffffffffffffffffffffff\n      and\n        /* \"RockPaperScissors.sol\":3227:3237  msg.sender */\n      caller\n        /* \"RockPaperScissors.sol\":3227:3262  msg.sender == player1.playerAddress */\n      0xffffffffffffffffffffffffffffffffffffffff\n      and\n      eq\n        /* \"RockPaperScissors.sol\":3226:3283  (msg.sender == player1.playerAddress) ? player1 : player2 */\n      tag_172\n      jumpi\n        /* \"RockPaperScissors.sol\":3276:3283  player2 */\n      0x04\n        /* \"RockPaperScissors.sol\":3226:3283  (msg.sender == player1.playerAddress) ? player1 : player2 */\n      jump(tag_173)\n    tag_172:\n        /* \"RockPaperScissors.sol\":3266:3273  player1 */\n      0x00\n        /* \"RockPaperScissors.sol\":3226:3283  (msg.sender == player1.playerAddress) ? player1 : player2 */\n    tag_173:\n        /* \"RockPaperScissors.sol\":3195:3283  Player storage currentPlayer = (msg.sender == player1.playerAddress) ? player1 : player2 */\n      swap1\n      pop\n        /* \"RockPaperScissors.sol\":3452:3465  currentPlayer */\n      dup1\n        /* \"RockPaperScissors.sol\":3452:3476  currentPlayer.commitment */\n      0x01\n      add\n      sload\n        /* \"RockPaperScissors.sol\":3430:3437  _choice */\n      dup4\n        /* \"RockPaperScissors.sol\":3439:3446  _secret */\n      dup4\n        /* \"RockPaperScissors.sol\":3413:3447  abi.encodePacked(_choice, _secret) */\n      add(0x20, mload(0x40))\n      tag_174\n      swap3\n      swap2\n      swap1\n      tag_154\n      jump\t// in\n    tag_174:\n      mload(0x40)\n      0x20\n      dup2\n      dup4\n      sub\n      sub\n      dup2\n      mstore\n      swap1\n      0x40\n      mstore\n        /* \"RockPaperScissors.sol\":3403:3448  keccak256(abi.encodePacked(_choice, _secret)) */\n      dup1\n      mload\n      swap1\n      0x20\n      add\n      keccak256\n        /* \"RockPaperScissors.sol\":3403:3476  keccak256(abi.encodePacked(_choice, _secret)) == currentPlayer.commitment */\n      eq\n        /* \"RockPaperScissors.sol\":3395:3496  require(keccak256(abi.encodePacked(_choice, _secret)) == currentPlayer.commitment, \"Invalid reveal!\") */\n      tag_175\n      jumpi\n      mload(0x40)\n      0x08c379a000000000000000000000000000000000000000000000000000000000\n      dup2\n      mstore\n      0x04\n      add\n      tag_176\n      swap1\n      tag_177\n      jump\t// in\n    tag_176:\n      mload(0x40)\n      dup1\n      swap2\n      sub\n      swap1\n      revert\n    tag_175:\n        /* \"RockPaperScissors.sol\":3600:3607  _choice */\n      dup3\n        /* \"RockPaperScissors.sol\":3577:3590  currentPlayer */\n      dup2\n        /* \"RockPaperScissors.sol\":3577:3597  currentPlayer.choice */\n      0x02\n      add\n      0x00\n        /* \"RockPaperScissors.sol\":3577:3607  currentPlayer.choice = _choice */\n      0x0100\n      exp\n      dup2\n      sload\n      dup2\n      0xff\n      mul\n      not\n      and\n      swap1\n      dup4\n      0x03\n      dup2\n      gt\n      iszero\n      tag_178\n      jumpi\n      tag_179\n      tag_70\n      jump\t// in\n    tag_179:\n    tag_178:\n      mul\n      or\n      swap1\n      sstore\n      pop\n        /* \"RockPaperScissors.sol\":3723:3730  player1 */\n      0x00\n        /* \"RockPaperScissors.sol\":3723:3744  player1.playerAddress */\n      dup1\n      add\n      0x00\n      swap1\n      sload\n      swap1\n      0x0100\n      exp\n      swap1\n      div\n      0xffffffffffffffffffffffffffffffffffffffff\n      and\n        /* \"RockPaperScissors.sol\":3709:3744  msg.sender == player1.playerAddress */\n      0xffffffffffffffffffffffffffffffffffffffff\n      and\n        /* \"RockPaperScissors.sol\":3709:3719  msg.sender */\n      caller\n        /* \"RockPaperScissors.sol\":3709:3744  msg.sender == player1.playerAddress */\n      0xffffffffffffffffffffffffffffffffffffffff\n      and\n      sub\n        /* \"RockPaperScissors.sol\":3705:3854  if (msg.sender == player1.playerAddress) {... */\n      tag_180\n      jumpi\n        /* \"RockPaperScissors.sol\":3781:3785  true */\n      0x01\n        /* \"RockPaperScissors.sol\":3761:3778  isPlayer1Revealed */\n      0x08\n      0x02\n        /* \"RockPaperScissors.sol\":3761:3785  isPlayer1Revealed = true */\n      0x0100\n      exp\n      dup2\n      sload\n      dup2\n      0xff\n      mul\n      not\n      and\n      swap1\n      dup4\n      iszero\n      iszero\n      mul\n      or\n      swap1\n      sstore\n      pop\n        /* \"RockPaperScissors.sol\":3705:3854  if (msg.sender == player1.playerAddress) {... */\n      jump(tag_181)\n    tag_180:\n        /* \"RockPaperScissors.sol\":3838:3842  true */\n      0x01\n        /* \"RockPaperScissors.sol\":3818:3835  isPlayer2Revealed */\n      0x08\n      0x03\n        /* \"RockPaperScissors.sol\":3818:3842  isPlayer2Revealed = true */\n      0x0100\n      exp\n      dup2\n      sload\n      dup2\n      0xff\n      mul\n      not\n      and\n      swap1\n      dup4\n      iszero\n      iszero\n      mul\n      or\n      swap1\n      sstore\n      pop\n        /* \"RockPaperScissors.sol\":3705:3854  if (msg.sender == player1.playerAddress) {... */\n    tag_181:\n        /* \"RockPaperScissors.sol\":3125:3861  {... */\n      pop\n        /* \"RockPaperScissors.sol\":3029:3861  function reveal(Choice _choice, string memory _secret) external playersSet bothPlayersCommitted {... */\n      pop\n      pop\n      jump\t// out\n        /* \"RockPaperScissors.sol\":347:368  Player public player1 */\n    tag_49:\n      0x00\n      dup1\n      0x00\n      add\n      0x00\n      swap1\n      sload\n      swap1\n      0x0100\n      exp\n      swap1\n      div\n      0xffffffffffffffffffffffffffffffffffffffff\n      and\n      swap1\n      dup1\n      0x01\n      add\n      sload\n      swap1\n      dup1\n      0x02\n      add\n      0x00\n      swap1\n      sload\n      swap1\n      0x0100\n      exp\n      swap1\n      div\n      0xff\n      and\n      swap1\n      dup1\n      0x03\n      add\n      sload\n      swap1\n      pop\n      dup5\n      jump\t// out\n        /* \"RockPaperScissors.sol\":543:580  bool public isPlayer2Revealed = false */\n    tag_53:\n      0x08\n      0x03\n      swap1\n      sload\n      swap1\n      0x0100\n      exp\n      swap1\n      div\n      0xff\n      and\n      dup2\n      jump\t// out\n        /* \"RockPaperScissors.sol\":4989:5373  function resetGame() internal {... */\n    tag_118:\n        /* \"RockPaperScissors.sol\":5051:5052  0 */\n      0x00\n        /* \"RockPaperScissors.sol\":5030:5052  player1.commitment = 0 */\n      dup1\n      shl\n        /* \"RockPaperScissors.sol\":5030:5037  player1 */\n      0x00\n        /* \"RockPaperScissors.sol\":5030:5048  player1.commitment */\n      0x01\n      add\n        /* \"RockPaperScissors.sol\":5030:5052  player1.commitment = 0 */\n      dup2\n      swap1\n      sstore\n      pop\n        /* \"RockPaperScissors.sol\":5084:5085  0 */\n      0x00\n        /* \"RockPaperScissors.sol\":5063:5085  player2.commitment = 0 */\n      dup1\n      shl\n        /* \"RockPaperScissors.sol\":5063:5070  player2 */\n      0x04\n        /* \"RockPaperScissors.sol\":5063:5081  player2.commitment */\n      0x01\n      add\n        /* \"RockPaperScissors.sol\":5063:5085  player2.commitment = 0 */\n      dup2\n      swap1\n      sstore\n      pop\n        /* \"RockPaperScissors.sol\":5113:5124  Choice.None */\n      0x00\n        /* \"RockPaperScissors.sol\":5096:5103  player1 */\n      dup1\n        /* \"RockPaperScissors.sol\":5096:5110  player1.choice */\n      0x02\n      add\n      0x00\n        /* \"RockPaperScissors.sol\":5096:5124  player1.choice = Choice.None */\n      0x0100\n      exp\n      dup2\n      sload\n      dup2\n      0xff\n      mul\n      not\n      and\n      swap1\n      dup4\n      0x03\n      dup2\n      gt\n      iszero\n      tag_183\n      jumpi\n      tag_184\n      tag_70\n      jump\t// in\n    tag_184:\n    tag_183:\n      mul\n      or\n      swap1\n      sstore\n      pop\n        /* \"RockPaperScissors.sol\":5152:5163  Choice.None */\n      0x00\n        /* \"RockPaperScissors.sol\":5135:5142  player2 */\n      0x04\n        /* \"RockPaperScissors.sol\":5135:5149  player2.choice */\n      0x02\n      add\n      0x00\n        /* \"RockPaperScissors.sol\":5135:5163  player2.choice = Choice.None */\n      0x0100\n      exp\n      dup2\n      sload\n      dup2\n      0xff\n      mul\n      not\n      and\n      swap1\n      dup4\n      0x03\n      dup2\n      gt\n      iszero\n      tag_185\n      jumpi\n      tag_186\n      tag_70\n      jump\t// in\n    tag_186:\n    tag_185:\n      mul\n      or\n      swap1\n      sstore\n      pop\n        /* \"RockPaperScissors.sol\":5190:5191  0 */\n      0x00\n        /* \"RockPaperScissors.sol\":5174:5181  player1 */\n      dup1\n        /* \"RockPaperScissors.sol\":5174:5187  player1.wager */\n      0x03\n      add\n        /* \"RockPaperScissors.sol\":5174:5191  player1.wager = 0 */\n      dup2\n      swap1\n      sstore\n      pop\n        /* \"RockPaperScissors.sol\":5218:5219  0 */\n      0x00\n        /* \"RockPaperScissors.sol\":5202:5209  player2 */\n      0x04\n        /* \"RockPaperScissors.sol\":5202:5215  player2.wager */\n      0x03\n      add\n        /* \"RockPaperScissors.sol\":5202:5219  player2.wager = 0 */\n      dup2\n      swap1\n      sstore\n      pop\n        /* \"RockPaperScissors.sol\":5251:5256  false */\n      0x00\n        /* \"RockPaperScissors.sol\":5230:5248  isPlayer1Committed */\n      0x08\n      0x00\n        /* \"RockPaperScissors.sol\":5230:5256  isPlayer1Committed = false */\n      0x0100\n      exp\n      dup2\n      sload\n      dup2\n      0xff\n      mul\n      not\n      and\n      swap1\n      dup4\n      iszero\n      iszero\n      mul\n      or\n      swap1\n      sstore\n      pop\n        /* \"RockPaperScissors.sol\":5288:5293  false */\n      0x00\n        /* \"RockPaperScissors.sol\":5267:5285  isPlayer2Committed */\n      0x08\n      0x01\n        /* \"RockPaperScissors.sol\":5267:5293  isPlayer2Committed = false */\n      0x0100\n      exp\n      dup2\n      sload\n      dup2\n      0xff\n      mul\n      not\n      and\n      swap1\n      dup4\n      iszero\n      iszero\n      mul\n      or\n      swap1\n      sstore\n      pop\n        /* \"RockPaperScissors.sol\":5324:5329  false */\n      0x00\n        /* \"RockPaperScissors.sol\":5304:5321  isPlayer1Revealed */\n      0x08\n      0x02\n        /* \"RockPaperScissors.sol\":5304:5329  isPlayer1Revealed = false */\n      0x0100\n      exp\n      dup2\n      sload\n      dup2\n      0xff\n      mul\n      not\n      and\n      swap1\n      dup4\n      iszero\n      iszero\n      mul\n      or\n      swap1\n      sstore\n      pop\n        /* \"RockPaperScissors.sol\":5360:5365  false */\n      0x00\n        /* \"RockPaperScissors.sol\":5340:5357  isPlayer2Revealed */\n      0x08\n      0x03\n        /* \"RockPaperScissors.sol\":5340:5365  isPlayer2Revealed = false */\n      0x0100\n      exp\n      dup2\n      sload\n      dup2\n      0xff\n      mul\n      not\n      and\n      swap1\n      dup4\n      iszero\n      iszero\n      mul\n      or\n      swap1\n      sstore\n      pop\n        /* \"RockPaperScissors.sol\":4989:5373  function resetGame() internal {... */\n      jump\t// out\n        /* \"#utility.yul\":7:97   */\n    tag_187:\n        /* \"#utility.yul\":41:48   */\n      0x00\n        /* \"#utility.yul\":84:89   */\n      dup2\n        /* \"#utility.yul\":77:90   */\n      iszero\n        /* \"#utility.yul\":70:91   */\n      iszero\n        /* \"#utility.yul\":59:91   */\n      swap1\n      pop\n        /* \"#utility.yul\":7:97   */\n      swap2\n      swap1\n      pop\n      jump\t// out\n        /* \"#utility.yul\":103:212   */\n    tag_188:\n        /* \"#utility.yul\":184:205   */\n      tag_245\n        /* \"#utility.yul\":199:204   */\n      dup2\n        /* \"#utility.yul\":184:205   */\n      tag_187\n      jump\t// in\n    tag_245:\n        /* \"#utility.yul\":179:182   */\n      dup3\n        /* \"#utility.yul\":172:206   */\n      mstore\n        /* \"#utility.yul\":103:212   */\n      pop\n      pop\n      jump\t// out\n        /* \"#utility.yul\":218:428   */\n    tag_17:\n        /* \"#utility.yul\":305:309   */\n      0x00\n        /* \"#utility.yul\":343:345   */\n      0x20\n        /* \"#utility.yul\":332:341   */\n      dup3\n        /* \"#utility.yul\":328:346   */\n      add\n        /* \"#utility.yul\":320:346   */\n      swap1\n      pop\n        /* \"#utility.yul\":356:421   */\n      tag_247\n        /* \"#utility.yul\":418:419   */\n      0x00\n        /* \"#utility.yul\":407:416   */\n      dup4\n        /* \"#utility.yul\":403:420   */\n      add\n        /* \"#utility.yul\":394:400   */\n      dup5\n        /* \"#utility.yul\":356:421   */\n      tag_188\n      jump\t// in\n    tag_247:\n        /* \"#utility.yul\":218:428   */\n      swap3\n      swap2\n      pop\n      pop\n      jump\t// out\n        /* \"#utility.yul\":434:560   */\n    tag_189:\n        /* \"#utility.yul\":471:478   */\n      0x00\n        /* \"#utility.yul\":511:553   */\n      0xffffffffffffffffffffffffffffffffffffffff\n        /* \"#utility.yul\":504:509   */\n      dup3\n        /* \"#utility.yul\":500:554   */\n      and\n        /* \"#utility.yul\":489:554   */\n      swap1\n      pop\n        /* \"#utility.yul\":434:560   */\n      swap2\n      swap1\n      pop\n      jump\t// out\n        /* \"#utility.yul\":566:670   */\n    tag_190:\n        /* \"#utility.yul\":611:618   */\n      0x00\n        /* \"#utility.yul\":640:664   */\n      tag_250\n        /* \"#utility.yul\":658:663   */\n      dup3\n        /* \"#utility.yul\":640:664   */\n      tag_189\n      jump\t// in\n    tag_250:\n        /* \"#utility.yul\":629:664   */\n      swap1\n      pop\n        /* \"#utility.yul\":566:670   */\n      swap2\n      swap1\n      pop\n      jump\t// out\n        /* \"#utility.yul\":676:818   */\n    tag_191:\n        /* \"#utility.yul\":779:811   */\n      tag_252\n        /* \"#utility.yul\":805:810   */\n      dup2\n        /* \"#utility.yul\":779:811   */\n      tag_190\n      jump\t// in\n    tag_252:\n        /* \"#utility.yul\":774:777   */\n      dup3\n        /* \"#utility.yul\":767:812   */\n      mstore\n        /* \"#utility.yul\":676:818   */\n      pop\n      pop\n      jump\t// out\n        /* \"#utility.yul\":824:901   */\n    tag_192:\n        /* \"#utility.yul\":861:868   */\n      0x00\n        /* \"#utility.yul\":890:895   */\n      dup2\n        /* \"#utility.yul\":879:895   */\n      swap1\n      pop\n        /* \"#utility.yul\":824:901   */\n      swap2\n      swap1\n      pop\n      jump\t// out\n        /* \"#utility.yul\":907:1025   */\n    tag_193:\n        /* \"#utility.yul\":994:1018   */\n      tag_255\n        /* \"#utility.yul\":1012:1017   */\n      dup2\n        /* \"#utility.yul\":994:1018   */\n      tag_192\n      jump\t// in\n    tag_255:\n        /* \"#utility.yul\":989:992   */\n      dup3\n        /* \"#utility.yul\":982:1019   */\n      mstore\n        /* \"#utility.yul\":907:1025   */\n      pop\n      pop\n      jump\t// out\n        /* \"#utility.yul\":1031:1211   */\n    tag_70:\n        /* \"#utility.yul\":1079:1156   */\n      0x4e487b7100000000000000000000000000000000000000000000000000000000\n        /* \"#utility.yul\":1076:1077   */\n      0x00\n        /* \"#utility.yul\":1069:1157   */\n      mstore\n        /* \"#utility.yul\":1176:1180   */\n      0x21\n        /* \"#utility.yul\":1173:1174   */\n      0x04\n        /* \"#utility.yul\":1166:1181   */\n      mstore\n        /* \"#utility.yul\":1200:1204   */\n      0x24\n        /* \"#utility.yul\":1197:1198   */\n      0x00\n        /* \"#utility.yul\":1190:1205   */\n      revert\n        /* \"#utility.yul\":1217:1330   */\n    tag_194:\n        /* \"#utility.yul\":1298:1299   */\n      0x04\n        /* \"#utility.yul\":1291:1296   */\n      dup2\n        /* \"#utility.yul\":1288:1300   */\n      lt\n        /* \"#utility.yul\":1278:1324   */\n      tag_258\n      jumpi\n        /* \"#utility.yul\":1304:1322   */\n      tag_259\n      tag_70\n      jump\t// in\n    tag_259:\n        /* \"#utility.yul\":1278:1324   */\n    tag_258:\n        /* \"#utility.yul\":1217:1330   */\n      pop\n      jump\t// out\n        /* \"#utility.yul\":1336:1463   */\n    tag_195:\n        /* \"#utility.yul\":1381:1388   */\n      0x00\n        /* \"#utility.yul\":1410:1415   */\n      dup2\n        /* \"#utility.yul\":1399:1415   */\n      swap1\n      pop\n        /* \"#utility.yul\":1416:1457   */\n      tag_261\n        /* \"#utility.yul\":1451:1456   */\n      dup3\n        /* \"#utility.yul\":1416:1457   */\n      tag_194\n      jump\t// in\n    tag_261:\n        /* \"#utility.yul\":1336:1463   */\n      swap2\n      swap1\n      pop\n      jump\t// out\n        /* \"#utility.yul\":1469:1596   */\n    tag_196:\n        /* \"#utility.yul\":1525:1534   */\n      0x00\n        /* \"#utility.yul\":1558:1590   */\n      tag_263\n        /* \"#utility.yul\":1584:1589   */\n      dup3\n        /* \"#utility.yul\":1558:1590   */\n      tag_195\n      jump\t// in\n    tag_263:\n        /* \"#utility.yul\":1545:1590   */\n      swap1\n      pop\n        /* \"#utility.yul\":1469:1596   */\n      swap2\n      swap1\n      pop\n      jump\t// out\n        /* \"#utility.yul\":1602:1745   */\n    tag_197:\n        /* \"#utility.yul\":1695:1738   */\n      tag_265\n        /* \"#utility.yul\":1732:1737   */\n      dup2\n        /* \"#utility.yul\":1695:1738   */\n      tag_196\n      jump\t// in\n    tag_265:\n        /* \"#utility.yul\":1690:1693   */\n      dup3\n        /* \"#utility.yul\":1683:1739   */\n      mstore\n        /* \"#utility.yul\":1602:1745   */\n      pop\n      pop\n      jump\t// out\n        /* \"#utility.yul\":1751:1828   */\n    tag_198:\n        /* \"#utility.yul\":1788:1795   */\n      0x00\n        /* \"#utility.yul\":1817:1822   */\n      dup2\n        /* \"#utility.yul\":1806:1822   */\n      swap1\n      pop\n        /* \"#utility.yul\":1751:1828   */\n      swap2\n      swap1\n      pop\n      jump\t// out\n        /* \"#utility.yul\":1834:1952   */\n    tag_199:\n        /* \"#utility.yul\":1921:1945   */\n      tag_268\n        /* \"#utility.yul\":1939:1944   */\n      dup2\n        /* \"#utility.yul\":1921:1945   */\n      tag_198\n      jump\t// in\n    tag_268:\n        /* \"#utility.yul\":1916:1919   */\n      dup3\n        /* \"#utility.yul\":1909:1946   */\n      mstore\n        /* \"#utility.yul\":1834:1952   */\n      pop\n      pop\n      jump\t// out\n        /* \"#utility.yul\":1958:2555   */\n    tag_25:\n        /* \"#utility.yul\":2157:2161   */\n      0x00\n        /* \"#utility.yul\":2195:2198   */\n      0x80\n        /* \"#utility.yul\":2184:2193   */\n      dup3\n        /* \"#utility.yul\":2180:2199   */\n      add\n        /* \"#utility.yul\":2172:2199   */\n      swap1\n      pop\n        /* \"#utility.yul\":2209:2296   */\n      tag_270\n        /* \"#utility.yul\":2293:2294   */\n      0x00\n        /* \"#utility.yul\":2282:2291   */\n      dup4\n        /* \"#utility.yul\":2278:2295   */\n      add\n        /* \"#utility.yul\":2269:2275   */\n      dup8\n        /* \"#utility.yul\":2209:2296   */\n      tag_191\n      jump\t// in\n    tag_270:\n        /* \"#utility.yul\":2306:2378   */\n      tag_271\n        /* \"#utility.yul\":2374:2376   */\n      0x20\n        /* \"#utility.yul\":2363:2372   */\n      dup4\n        /* \"#utility.yul\":2359:2377   */\n      add\n        /* \"#utility.yul\":2350:2356   */\n      dup7\n        /* \"#utility.yul\":2306:2378   */\n      tag_193\n      jump\t// in\n    tag_271:\n        /* \"#utility.yul\":2388:2466   */\n      tag_272\n        /* \"#utility.yul\":2462:2464   */\n      0x40\n        /* \"#utility.yul\":2451:2460   */\n      dup4\n        /* \"#utility.yul\":2447:2465   */\n      add\n        /* \"#utility.yul\":2438:2444   */\n      dup6\n        /* \"#utility.yul\":2388:2466   */\n      tag_197\n      jump\t// in\n    tag_272:\n        /* \"#utility.yul\":2476:2548   */\n      tag_273\n        /* \"#utility.yul\":2544:2546   */\n      0x60\n        /* \"#utility.yul\":2533:2542   */\n      dup4\n        /* \"#utility.yul\":2529:2547   */\n      add\n        /* \"#utility.yul\":2520:2526   */\n      dup5\n        /* \"#utility.yul\":2476:2548   */\n      tag_199\n      jump\t// in\n    tag_273:\n        /* \"#utility.yul\":1958:2555   */\n      swap6\n      swap5\n      pop\n      pop\n      pop\n      pop\n      pop\n      jump\t// out\n        /* \"#utility.yul\":2561:2636   */\n    tag_200:\n        /* \"#utility.yul\":2594:2600   */\n      0x00\n        /* \"#utility.yul\":2627:2629   */\n      0x40\n        /* \"#utility.yul\":2621:2630   */\n      mload\n        /* \"#utility.yul\":2611:2630   */\n      swap1\n      pop\n        /* \"#utility.yul\":2561:2636   */\n      swap1\n      jump\t// out\n        /* \"#utility.yul\":2642:2759   */\n    tag_201:\n        /* \"#utility.yul\":2751:2752   */\n      0x00\n        /* \"#utility.yul\":2748:2749   */\n      dup1\n        /* \"#utility.yul\":2741:2753   */\n      revert\n        /* \"#utility.yul\":2765:2882   */\n    tag_202:\n        /* \"#utility.yul\":2874:2875   */\n      0x00\n        /* \"#utility.yul\":2871:2872   */\n      dup1\n        /* \"#utility.yul\":2864:2876   */\n      revert\n        /* \"#utility.yul\":2888:2995   */\n    tag_203:\n        /* \"#utility.yul\":2969:2970   */\n      0x04\n        /* \"#utility.yul\":2962:2967   */\n      dup2\n        /* \"#utility.yul\":2959:2971   */\n      lt\n        /* \"#utility.yul\":2949:2989   */\n      tag_278\n      jumpi\n        /* \"#utility.yul\":2985:2986   */\n      0x00\n        /* \"#utility.yul\":2982:2983   */\n      dup1\n        /* \"#utility.yul\":2975:2987   */\n      revert\n        /* \"#utility.yul\":2949:2989   */\n    tag_278:\n        /* \"#utility.yul\":2888:2995   */\n      pop\n      jump\t// out\n        /* \"#utility.yul\":3001:3156   */\n    tag_204:\n        /* \"#utility.yul\":3055:3060   */\n      0x00\n        /* \"#utility.yul\":3093:3099   */\n      dup2\n        /* \"#utility.yul\":3080:3100   */\n      calldataload\n        /* \"#utility.yul\":3071:3100   */\n      swap1\n      pop\n        /* \"#utility.yul\":3109:3150   */\n      tag_280\n        /* \"#utility.yul\":3144:3149   */\n      dup2\n        /* \"#utility.yul\":3109:3150   */\n      tag_203\n      jump\t// in\n    tag_280:\n        /* \"#utility.yul\":3001:3156   */\n      swap3\n      swap2\n      pop\n      pop\n      jump\t// out\n        /* \"#utility.yul\":3162:3279   */\n    tag_205:\n        /* \"#utility.yul\":3271:3272   */\n      0x00\n        /* \"#utility.yul\":3268:3269   */\n      dup1\n        /* \"#utility.yul\":3261:3273   */\n      revert\n        /* \"#utility.yul\":3285:3402   */\n    tag_206:\n        /* \"#utility.yul\":3394:3395   */\n      0x00\n        /* \"#utility.yul\":3391:3392   */\n      dup1\n        /* \"#utility.yul\":3384:3396   */\n      revert\n        /* \"#utility.yul\":3408:3510   */\n    tag_207:\n        /* \"#utility.yul\":3449:3455   */\n      0x00\n        /* \"#utility.yul\":3500:3502   */\n      0x1f\n        /* \"#utility.yul\":3496:3503   */\n      not\n        /* \"#utility.yul\":3491:3493   */\n      0x1f\n        /* \"#utility.yul\":3484:3489   */\n      dup4\n        /* \"#utility.yul\":3480:3494   */\n      add\n        /* \"#utility.yul\":3476:3504   */\n      and\n        /* \"#utility.yul\":3466:3504   */\n      swap1\n      pop\n        /* \"#utility.yul\":3408:3510   */\n      swap2\n      swap1\n      pop\n      jump\t// out\n        /* \"#utility.yul\":3516:3696   */\n    tag_208:\n        /* \"#utility.yul\":3564:3641   */\n      0x4e487b7100000000000000000000000000000000000000000000000000000000\n        /* \"#utility.yul\":3561:3562   */\n      0x00\n        /* \"#utility.yul\":3554:3642   */\n      mstore\n        /* \"#utility.yul\":3661:3665   */\n      0x41\n        /* \"#utility.yul\":3658:3659   */\n      0x04\n        /* \"#utility.yul\":3651:3666   */\n      mstore\n        /* \"#utility.yul\":3685:3689   */\n      0x24\n        /* \"#utility.yul\":3682:3683   */\n      0x00\n        /* \"#utility.yul\":3675:3690   */\n      revert\n        /* \"#utility.yul\":3702:3983   */\n    tag_209:\n        /* \"#utility.yul\":3785:3812   */\n      tag_286\n        /* \"#utility.yul\":3807:3811   */\n      dup3\n        /* \"#utility.yul\":3785:3812   */\n      tag_207\n      jump\t// in\n    tag_286:\n        /* \"#utility.yul\":3777:3783   */\n      dup2\n        /* \"#utility.yul\":3773:3813   */\n      add\n        /* \"#utility.yul\":3915:3921   */\n      dup2\n        /* \"#utility.yul\":3903:3913   */\n      dup2\n        /* \"#utility.yul\":3900:3922   */\n      lt\n        /* \"#utility.yul\":3879:3897   */\n      0xffffffffffffffff\n        /* \"#utility.yul\":3867:3877   */\n      dup3\n        /* \"#utility.yul\":3864:3898   */\n      gt\n        /* \"#utility.yul\":3861:3923   */\n      or\n        /* \"#utility.yul\":3858:3946   */\n      iszero\n      tag_287\n      jumpi\n        /* \"#utility.yul\":3926:3944   */\n      tag_288\n      tag_208\n      jump\t// in\n    tag_288:\n        /* \"#utility.yul\":3858:3946   */\n    tag_287:\n        /* \"#utility.yul\":3966:3976   */\n      dup1\n        /* \"#utility.yul\":3962:3964   */\n      0x40\n        /* \"#utility.yul\":3955:3977   */\n      mstore\n        /* \"#utility.yul\":3745:3983   */\n      pop\n        /* \"#utility.yul\":3702:3983   */\n      pop\n      pop\n      jump\t// out\n        /* \"#utility.yul\":3989:4118   */\n    tag_210:\n        /* \"#utility.yul\":4023:4029   */\n      0x00\n        /* \"#utility.yul\":4050:4070   */\n      tag_290\n      tag_200\n      jump\t// in\n    tag_290:\n        /* \"#utility.yul\":4040:4070   */\n      swap1\n      pop\n        /* \"#utility.yul\":4079:4112   */\n      tag_291\n        /* \"#utility.yul\":4107:4111   */\n      dup3\n        /* \"#utility.yul\":4099:4105   */\n      dup3\n        /* \"#utility.yul\":4079:4112   */\n      tag_209\n      jump\t// in\n    tag_291:\n        /* \"#utility.yul\":3989:4118   */\n      swap2\n      swap1\n      pop\n      jump\t// out\n        /* \"#utility.yul\":4124:4432   */\n    tag_211:\n        /* \"#utility.yul\":4186:4190   */\n      0x00\n        /* \"#utility.yul\":4276:4294   */\n      0xffffffffffffffff\n        /* \"#utility.yul\":4268:4274   */\n      dup3\n        /* \"#utility.yul\":4265:4295   */\n      gt\n        /* \"#utility.yul\":4262:4318   */\n      iszero\n      tag_293\n      jumpi\n        /* \"#utility.yul\":4298:4316   */\n      tag_294\n      tag_208\n      jump\t// in\n    tag_294:\n        /* \"#utility.yul\":4262:4318   */\n    tag_293:\n        /* \"#utility.yul\":4336:4365   */\n      tag_295\n        /* \"#utility.yul\":4358:4364   */\n      dup3\n        /* \"#utility.yul\":4336:4365   */\n      tag_207\n      jump\t// in\n    tag_295:\n        /* \"#utility.yul\":4328:4365   */\n      swap1\n      pop\n        /* \"#utility.yul\":4420:4424   */\n      0x20\n        /* \"#utility.yul\":4414:4418   */\n      dup2\n        /* \"#utility.yul\":4410:4425   */\n      add\n        /* \"#utility.yul\":4402:4425   */\n      swap1\n      pop\n        /* \"#utility.yul\":4124:4432   */\n      swap2\n      swap1\n      pop\n      jump\t// out\n        /* \"#utility.yul\":4438:4586   */\n    tag_212:\n        /* \"#utility.yul\":4536:4542   */\n      dup3\n        /* \"#utility.yul\":4531:4534   */\n      dup2\n        /* \"#utility.yul\":4526:4529   */\n      dup4\n        /* \"#utility.yul\":4513:4543   */\n      calldatacopy\n        /* \"#utility.yul\":4577:4578   */\n      0x00\n        /* \"#utility.yul\":4568:4574   */\n      dup4\n        /* \"#utility.yul\":4563:4566   */\n      dup4\n        /* \"#utility.yul\":4559:4575   */\n      add\n        /* \"#utility.yul\":4552:4579   */\n      mstore\n        /* \"#utility.yul\":4438:4586   */\n      pop\n      pop\n      pop\n      jump\t// out\n        /* \"#utility.yul\":4592:5017   */\n    tag_213:\n        /* \"#utility.yul\":4670:4675   */\n      0x00\n        /* \"#utility.yul\":4695:4761   */\n      tag_298\n        /* \"#utility.yul\":4711:4760   */\n      tag_299\n        /* \"#utility.yul\":4753:4759   */\n      dup5\n        /* \"#utility.yul\":4711:4760   */\n      tag_211\n      jump\t// in\n    tag_299:\n        /* \"#utility.yul\":4695:4761   */\n      tag_210\n      jump\t// in\n    tag_298:\n        /* \"#utility.yul\":4686:4761   */\n      swap1\n      pop\n        /* \"#utility.yul\":4784:4790   */\n      dup3\n        /* \"#utility.yul\":4777:4782   */\n      dup2\n        /* \"#utility.yul\":4770:4791   */\n      mstore\n        /* \"#utility.yul\":4822:4826   */\n      0x20\n        /* \"#utility.yul\":4815:4820   */\n      dup2\n        /* \"#utility.yul\":4811:4827   */\n      add\n        /* \"#utility.yul\":4860:4863   */\n      dup5\n        /* \"#utility.yul\":4851:4857   */\n      dup5\n        /* \"#utility.yul\":4846:4849   */\n      dup5\n        /* \"#utility.yul\":4842:4858   */\n      add\n        /* \"#utility.yul\":4839:4864   */\n      gt\n        /* \"#utility.yul\":4836:4948   */\n      iszero\n      tag_300\n      jumpi\n        /* \"#utility.yul\":4867:4946   */\n      tag_301\n      tag_206\n      jump\t// in\n    tag_301:\n        /* \"#utility.yul\":4836:4948   */\n    tag_300:\n        /* \"#utility.yul\":4957:5011   */\n      tag_302\n        /* \"#utility.yul\":5004:5010   */\n      dup5\n        /* \"#utility.yul\":4999:5002   */\n      dup3\n        /* \"#utility.yul\":4994:4997   */\n      dup6\n        /* \"#utility.yul\":4957:5011   */\n      tag_212\n      jump\t// in\n    tag_302:\n        /* \"#utility.yul\":4676:5017   */\n      pop\n        /* \"#utility.yul\":4592:5017   */\n      swap4\n      swap3\n      pop\n      pop\n      pop\n      jump\t// out\n        /* \"#utility.yul\":5037:5377   */\n    tag_214:\n        /* \"#utility.yul\":5093:5098   */\n      0x00\n        /* \"#utility.yul\":5142:5145   */\n      dup3\n        /* \"#utility.yul\":5135:5139   */\n      0x1f\n        /* \"#utility.yul\":5127:5133   */\n      dup4\n        /* \"#utility.yul\":5123:5140   */\n      add\n        /* \"#utility.yul\":5119:5146   */\n      slt\n        /* \"#utility.yul\":5109:5231   */\n      tag_304\n      jumpi\n        /* \"#utility.yul\":5150:5229   */\n      tag_305\n      tag_205\n      jump\t// in\n    tag_305:\n        /* \"#utility.yul\":5109:5231   */\n    tag_304:\n        /* \"#utility.yul\":5267:5273   */\n      dup2\n        /* \"#utility.yul\":5254:5274   */\n      calldataload\n        /* \"#utility.yul\":5292:5371   */\n      tag_306\n        /* \"#utility.yul\":5367:5370   */\n      dup5\n        /* \"#utility.yul\":5359:5365   */\n      dup3\n        /* \"#utility.yul\":5352:5356   */\n      0x20\n        /* \"#utility.yul\":5344:5350   */\n      dup7\n        /* \"#utility.yul\":5340:5357   */\n      add\n        /* \"#utility.yul\":5292:5371   */\n      tag_213\n      jump\t// in\n    tag_306:\n        /* \"#utility.yul\":5283:5371   */\n      swap2\n      pop\n        /* \"#utility.yul\":5099:5377   */\n      pop\n        /* \"#utility.yul\":5037:5377   */\n      swap3\n      swap2\n      pop\n      pop\n      jump\t// out\n        /* \"#utility.yul\":5383:6053   */\n    tag_28:\n        /* \"#utility.yul\":5469:5475   */\n      0x00\n        /* \"#utility.yul\":5477:5483   */\n      dup1\n        /* \"#utility.yul\":5526:5528   */\n      0x40\n        /* \"#utility.yul\":5514:5523   */\n      dup4\n        /* \"#utility.yul\":5505:5512   */\n      dup6\n        /* \"#utility.yul\":5501:5524   */\n      sub\n        /* \"#utility.yul\":5497:5529   */\n      slt\n        /* \"#utility.yul\":5494:5613   */\n      iszero\n      tag_308\n      jumpi\n        /* \"#utility.yul\":5532:5611   */\n      tag_309\n      tag_201\n      jump\t// in\n    tag_309:\n        /* \"#utility.yul\":5494:5613   */\n    tag_308:\n        /* \"#utility.yul\":5652:5653   */\n      0x00\n        /* \"#utility.yul\":5677:5738   */\n      tag_310\n        /* \"#utility.yul\":5730:5737   */\n      dup6\n        /* \"#utility.yul\":5721:5727   */\n      dup3\n        /* \"#utility.yul\":5710:5719   */\n      dup7\n        /* \"#utility.yul\":5706:5728   */\n      add\n        /* \"#utility.yul\":5677:5738   */\n      tag_204\n      jump\t// in\n    tag_310:\n        /* \"#utility.yul\":5667:5738   */\n      swap3\n      pop\n        /* \"#utility.yul\":5623:5748   */\n      pop\n        /* \"#utility.yul\":5815:5817   */\n      0x20\n        /* \"#utility.yul\":5804:5813   */\n      dup4\n        /* \"#utility.yul\":5800:5818   */\n      add\n        /* \"#utility.yul\":5787:5819   */\n      calldataload\n        /* \"#utility.yul\":5846:5864   */\n      0xffffffffffffffff\n        /* \"#utility.yul\":5838:5844   */\n      dup2\n        /* \"#utility.yul\":5835:5865   */\n      gt\n        /* \"#utility.yul\":5832:5949   */\n      iszero\n      tag_311\n      jumpi\n        /* \"#utility.yul\":5868:5947   */\n      tag_312\n      tag_202\n      jump\t// in\n    tag_312:\n        /* \"#utility.yul\":5832:5949   */\n    tag_311:\n        /* \"#utility.yul\":5973:6036   */\n      tag_313\n        /* \"#utility.yul\":6028:6035   */\n      dup6\n        /* \"#utility.yul\":6019:6025   */\n      dup3\n        /* \"#utility.yul\":6008:6017   */\n      dup7\n        /* \"#utility.yul\":6004:6026   */\n      add\n        /* \"#utility.yul\":5973:6036   */\n      tag_214\n      jump\t// in\n    tag_313:\n        /* \"#utility.yul\":5963:6036   */\n      swap2\n      pop\n        /* \"#utility.yul\":5758:6046   */\n      pop\n        /* \"#utility.yul\":5383:6053   */\n      swap3\n      pop\n      swap3\n      swap1\n      pop\n      jump\t// out\n        /* \"#utility.yul\":6059:6197   */\n    tag_215:\n        /* \"#utility.yul\":6140:6172   */\n      tag_315\n        /* \"#utility.yul\":6166:6171   */\n      dup2\n        /* \"#utility.yul\":6140:6172   */\n      tag_190\n      jump\t// in\n    tag_315:\n        /* \"#utility.yul\":6133:6138   */\n      dup2\n        /* \"#utility.yul\":6130:6173   */\n      eq\n        /* \"#utility.yul\":6120:6191   */\n      tag_316\n      jumpi\n        /* \"#utility.yul\":6187:6188   */\n      0x00\n        /* \"#utility.yul\":6184:6185   */\n      dup1\n        /* \"#utility.yul\":6177:6189   */\n      revert\n        /* \"#utility.yul\":6120:6191   */\n    tag_316:\n        /* \"#utility.yul\":6059:6197   */\n      pop\n      jump\t// out\n        /* \"#utility.yul\":6203:6358   */\n    tag_216:\n        /* \"#utility.yul\":6257:6262   */\n      0x00\n        /* \"#utility.yul\":6295:6301   */\n      dup2\n        /* \"#utility.yul\":6282:6302   */\n      calldataload\n        /* \"#utility.yul\":6273:6302   */\n      swap1\n      pop\n        /* \"#utility.yul\":6311:6352   */\n      tag_318\n        /* \"#utility.yul\":6346:6351   */\n      dup2\n        /* \"#utility.yul\":6311:6352   */\n      tag_215\n      jump\t// in\n    tag_318:\n        /* \"#utility.yul\":6203:6358   */\n      swap3\n      swap2\n      pop\n      pop\n      jump\t// out\n        /* \"#utility.yul\":6364:6870   */\n    tag_37:\n        /* \"#utility.yul\":6448:6454   */\n      0x00\n        /* \"#utility.yul\":6456:6462   */\n      dup1\n        /* \"#utility.yul\":6505:6507   */\n      0x40\n        /* \"#utility.yul\":6493:6502   */\n      dup4\n        /* \"#utility.yul\":6484:6491   */\n      dup6\n        /* \"#utility.yul\":6480:6503   */\n      sub\n        /* \"#utility.yul\":6476:6508   */\n      slt\n        /* \"#utility.yul\":6473:6592   */\n      iszero\n      tag_320\n      jumpi\n        /* \"#utility.yul\":6511:6590   */\n      tag_321\n      tag_201\n      jump\t// in\n    tag_321:\n        /* \"#utility.yul\":6473:6592   */\n    tag_320:\n        /* \"#utility.yul\":6631:6632   */\n      0x00\n        /* \"#utility.yul\":6656:6717   */\n      tag_322\n        /* \"#utility.yul\":6709:6716   */\n      dup6\n        /* \"#utility.yul\":6700:6706   */\n      dup3\n        /* \"#utility.yul\":6689:6698   */\n      dup7\n        /* \"#utility.yul\":6685:6707   */\n      add\n        /* \"#utility.yul\":6656:6717   */\n      tag_216\n      jump\t// in\n    tag_322:\n        /* \"#utility.yul\":6646:6717   */\n      swap3\n      pop\n        /* \"#utility.yul\":6602:6727   */\n      pop\n        /* \"#utility.yul\":6766:6768   */\n      0x20\n        /* \"#utility.yul\":6792:6853   */\n      tag_323\n        /* \"#utility.yul\":6845:6852   */\n      dup6\n        /* \"#utility.yul\":6836:6842   */\n      dup3\n        /* \"#utility.yul\":6825:6834   */\n      dup7\n        /* \"#utility.yul\":6821:6843   */\n      add\n        /* \"#utility.yul\":6792:6853   */\n      tag_216\n      jump\t// in\n    tag_323:\n        /* \"#utility.yul\":6782:6853   */\n      swap2\n      pop\n        /* \"#utility.yul\":6737:6863   */\n      pop\n        /* \"#utility.yul\":6364:6870   */\n      swap3\n      pop\n      swap3\n      swap1\n      pop\n      jump\t// out\n        /* \"#utility.yul\":6876:7045   */\n    tag_217:\n        /* \"#utility.yul\":6960:6971   */\n      0x00\n        /* \"#utility.yul\":6994:7000   */\n      dup3\n        /* \"#utility.yul\":6989:6992   */\n      dup3\n        /* \"#utility.yul\":6982:7001   */\n      mstore\n        /* \"#utility.yul\":7034:7038   */\n      0x20\n        /* \"#utility.yul\":7029:7032   */\n      dup3\n        /* \"#utility.yul\":7025:7039   */\n      add\n        /* \"#utility.yul\":7010:7039   */\n      swap1\n      pop\n        /* \"#utility.yul\":6876:7045   */\n      swap3\n      swap2\n      pop\n      pop\n      jump\t// out\n        /* \"#utility.yul\":7051:7216   */\n    tag_218:\n        /* \"#utility.yul\":7191:7208   */\n      0x506c6179657273206e6f74207365740000000000000000000000000000000000\n        /* \"#utility.yul\":7187:7188   */\n      0x00\n        /* \"#utility.yul\":7179:7185   */\n      dup3\n        /* \"#utility.yul\":7175:7189   */\n      add\n        /* \"#utility.yul\":7168:7209   */\n      mstore\n        /* \"#utility.yul\":7051:7216   */\n      pop\n      jump\t// out\n        /* \"#utility.yul\":7222:7588   */\n    tag_219:\n        /* \"#utility.yul\":7364:7367   */\n      0x00\n        /* \"#utility.yul\":7385:7452   */\n      tag_327\n        /* \"#utility.yul\":7449:7451   */\n      0x0f\n        /* \"#utility.yul\":7444:7447   */\n      dup4\n        /* \"#utility.yul\":7385:7452   */\n      tag_217\n      jump\t// in\n    tag_327:\n        /* \"#utility.yul\":7378:7452   */\n      swap2\n      pop\n        /* \"#utility.yul\":7461:7554   */\n      tag_328\n        /* \"#utility.yul\":7550:7553   */\n      dup3\n        /* \"#utility.yul\":7461:7554   */\n      tag_218\n      jump\t// in\n    tag_328:\n        /* \"#utility.yul\":7579:7581   */\n      0x20\n        /* \"#utility.yul\":7574:7577   */\n      dup3\n        /* \"#utility.yul\":7570:7582   */\n      add\n        /* \"#utility.yul\":7563:7582   */\n      swap1\n      pop\n        /* \"#utility.yul\":7222:7588   */\n      swap2\n      swap1\n      pop\n      jump\t// out\n        /* \"#utility.yul\":7594:8013   */\n    tag_59:\n        /* \"#utility.yul\":7760:7764   */\n      0x00\n        /* \"#utility.yul\":7798:7800   */\n      0x20\n        /* \"#utility.yul\":7787:7796   */\n      dup3\n        /* \"#utility.yul\":7783:7801   */\n      add\n        /* \"#utility.yul\":7775:7801   */\n      swap1\n      pop\n        /* \"#utility.yul\":7847:7856   */\n      dup2\n        /* \"#utility.yul\":7841:7845   */\n      dup2\n        /* \"#utility.yul\":7837:7857   */\n      sub\n        /* \"#utility.yul\":7833:7834   */\n      0x00\n        /* \"#utility.yul\":7822:7831   */\n      dup4\n        /* \"#utility.yul\":7818:7835   */\n      add\n        /* \"#utility.yul\":7811:7858   */\n      mstore\n        /* \"#utility.yul\":7875:8006   */\n      tag_330\n        /* \"#utility.yul\":8001:8005   */\n      dup2\n        /* \"#utility.yul\":7875:8006   */\n      tag_219\n      jump\t// in\n    tag_330:\n        /* \"#utility.yul\":7867:8006   */\n      swap1\n      pop\n        /* \"#utility.yul\":7594:8013   */\n      swap2\n      swap1\n      pop\n      jump\t// out\n        /* \"#utility.yul\":8019:8266   */\n    tag_220:\n        /* \"#utility.yul\":8159:8193   */\n      0x506c6179657273206d75737420636f6d6d697420616e642072657665616c2062\n        /* \"#utility.yul\":8155:8156   */\n      0x00\n        /* \"#utility.yul\":8147:8153   */\n      dup3\n        /* \"#utility.yul\":8143:8157   */\n      add\n        /* \"#utility.yul\":8136:8194   */\n      mstore\n        /* \"#utility.yul\":8228:8258   */\n      0x65666f72652064657465726d696e696e67207468652077696e6e657200000000\n        /* \"#utility.yul\":8223:8225   */\n      0x20\n        /* \"#utility.yul\":8215:8221   */\n      dup3\n        /* \"#utility.yul\":8211:8226   */\n      add\n        /* \"#utility.yul\":8204:8259   */\n      mstore\n        /* \"#utility.yul\":8019:8266   */\n      pop\n      jump\t// out\n        /* \"#utility.yul\":8272:8638   */\n    tag_221:\n        /* \"#utility.yul\":8414:8417   */\n      0x00\n        /* \"#utility.yul\":8435:8502   */\n      tag_333\n        /* \"#utility.yul\":8499:8501   */\n      0x3c\n        /* \"#utility.yul\":8494:8497   */\n      dup4\n        /* \"#utility.yul\":8435:8502   */\n      tag_217\n      jump\t// in\n    tag_333:\n        /* \"#utility.yul\":8428:8502   */\n      swap2\n      pop\n        /* \"#utility.yul\":8511:8604   */\n      tag_334\n        /* \"#utility.yul\":8600:8603   */\n      dup3\n        /* \"#utility.yul\":8511:8604   */\n      tag_220\n      jump\t// in\n    tag_334:\n        /* \"#utility.yul\":8629:8631   */\n      0x40\n        /* \"#utility.yul\":8624:8627   */\n      dup3\n        /* \"#utility.yul\":8620:8632   */\n      add\n        /* \"#utility.yul\":8613:8632   */\n      swap1\n      pop\n        /* \"#utility.yul\":8272:8638   */\n      swap2\n      swap1\n      pop\n      jump\t// out\n        /* \"#utility.yul\":8644:9063   */\n    tag_66:\n        /* \"#utility.yul\":8810:8814   */\n      0x00\n        /* \"#utility.yul\":8848:8850   */\n      0x20\n        /* \"#utility.yul\":8837:8846   */\n      dup3\n        /* \"#utility.yul\":8833:8851   */\n      add\n        /* \"#utility.yul\":8825:8851   */\n      swap1\n      pop\n        /* \"#utility.yul\":8897:8906   */\n      dup2\n        /* \"#utility.yul\":8891:8895   */\n      dup2\n        /* \"#utility.yul\":8887:8907   */\n      sub\n        /* \"#utility.yul\":8883:8884   */\n      0x00\n        /* \"#utility.yul\":8872:8881   */\n      dup4\n        /* \"#utility.yul\":8868:8885   */\n      add\n        /* \"#utility.yul\":8861:8908   */\n      mstore\n        /* \"#utility.yul\":8925:9056   */\n      tag_336\n        /* \"#utility.yul\":9051:9055   */\n      dup2\n        /* \"#utility.yul\":8925:9056   */\n      tag_221\n      jump\t// in\n    tag_336:\n        /* \"#utility.yul\":8917:9056   */\n      swap1\n      pop\n        /* \"#utility.yul\":8644:9063   */\n      swap2\n      swap1\n      pop\n      jump\t// out\n        /* \"#utility.yul\":9069:9249   */\n    tag_222:\n        /* \"#utility.yul\":9117:9194   */\n      0x4e487b7100000000000000000000000000000000000000000000000000000000\n        /* \"#utility.yul\":9114:9115   */\n      0x00\n        /* \"#utility.yul\":9107:9195   */\n      mstore\n        /* \"#utility.yul\":9214:9218   */\n      0x11\n        /* \"#utility.yul\":9211:9212   */\n      0x04\n        /* \"#utility.yul\":9204:9219   */\n      mstore\n        /* \"#utility.yul\":9238:9242   */\n      0x24\n        /* \"#utility.yul\":9235:9236   */\n      0x00\n        /* \"#utility.yul\":9228:9243   */\n      revert\n        /* \"#utility.yul\":9255:9446   */\n    tag_110:\n        /* \"#utility.yul\":9295:9298   */\n      0x00\n        /* \"#utility.yul\":9314:9334   */\n      tag_339\n        /* \"#utility.yul\":9332:9333   */\n      dup3\n        /* \"#utility.yul\":9314:9334   */\n      tag_198\n      jump\t// in\n    tag_339:\n        /* \"#utility.yul\":9309:9334   */\n      swap2\n      pop\n        /* \"#utility.yul\":9348:9368   */\n      tag_340\n        /* \"#utility.yul\":9366:9367   */\n      dup4\n        /* \"#utility.yul\":9348:9368   */\n      tag_198\n      jump\t// in\n    tag_340:\n        /* \"#utility.yul\":9343:9368   */\n      swap3\n      pop\n        /* \"#utility.yul\":9391:9392   */\n      dup3\n        /* \"#utility.yul\":9388:9389   */\n      dup3\n        /* \"#utility.yul\":9384:9393   */\n      add\n        /* \"#utility.yul\":9377:9393   */\n      swap1\n      pop\n        /* \"#utility.yul\":9412:9415   */\n      dup1\n        /* \"#utility.yul\":9409:9410   */\n      dup3\n        /* \"#utility.yul\":9406:9416   */\n      gt\n        /* \"#utility.yul\":9403:9439   */\n      iszero\n      tag_341\n      jumpi\n        /* \"#utility.yul\":9419:9437   */\n      tag_342\n      tag_222\n      jump\t// in\n    tag_342:\n        /* \"#utility.yul\":9403:9439   */\n    tag_341:\n        /* \"#utility.yul\":9255:9446   */\n      swap3\n      swap2\n      pop\n      pop\n      jump\t// out\n        /* \"#utility.yul\":9452:9626   */\n    tag_223:\n        /* \"#utility.yul\":9592:9618   */\n      0x506c6179657220616c726561647920636f6d6d69747465640000000000000000\n        /* \"#utility.yul\":9588:9589   */\n      0x00\n        /* \"#utility.yul\":9580:9586   */\n      dup3\n        /* \"#utility.yul\":9576:9590   */\n      add\n        /* \"#utility.yul\":9569:9619   */\n      mstore\n        /* \"#utility.yul\":9452:9626   */\n      pop\n      jump\t// out\n        /* \"#utility.yul\":9632:9998   */\n    tag_224:\n        /* \"#utility.yul\":9774:9777   */\n      0x00\n        /* \"#utility.yul\":9795:9862   */\n      tag_345\n        /* \"#utility.yul\":9859:9861   */\n      0x18\n        /* \"#utility.yul\":9854:9857   */\n      dup4\n        /* \"#utility.yul\":9795:9862   */\n      tag_217\n      jump\t// in\n    tag_345:\n        /* \"#utility.yul\":9788:9862   */\n      swap2\n      pop\n        /* \"#utility.yul\":9871:9964   */\n      tag_346\n        /* \"#utility.yul\":9960:9963   */\n      dup3\n        /* \"#utility.yul\":9871:9964   */\n      tag_223\n      jump\t// in\n    tag_346:\n        /* \"#utility.yul\":9989:9991   */\n      0x20\n        /* \"#utility.yul\":9984:9987   */\n      dup3\n        /* \"#utility.yul\":9980:9992   */\n      add\n        /* \"#utility.yul\":9973:9992   */\n      swap1\n      pop\n        /* \"#utility.yul\":9632:9998   */\n      swap2\n      swap1\n      pop\n      jump\t// out\n        /* \"#utility.yul\":10004:10423   */\n    tag_129:\n        /* \"#utility.yul\":10170:10174   */\n      0x00\n        /* \"#utility.yul\":10208:10210   */\n      0x20\n        /* \"#utility.yul\":10197:10206   */\n      dup3\n        /* \"#utility.yul\":10193:10211   */\n      add\n        /* \"#utility.yul\":10185:10211   */\n      swap1\n      pop\n        /* \"#utility.yul\":10257:10266   */\n      dup2\n        /* \"#utility.yul\":10251:10255   */\n      dup2\n        /* \"#utility.yul\":10247:10267   */\n      sub\n        /* \"#utility.yul\":10243:10244   */\n      0x00\n        /* \"#utility.yul\":10232:10241   */\n      dup4\n        /* \"#utility.yul\":10228:10245   */\n      add\n        /* \"#utility.yul\":10221:10268   */\n      mstore\n        /* \"#utility.yul\":10285:10416   */\n      tag_348\n        /* \"#utility.yul\":10411:10415   */\n      dup2\n        /* \"#utility.yul\":10285:10416   */\n      tag_224\n      jump\t// in\n    tag_348:\n        /* \"#utility.yul\":10277:10416   */\n      swap1\n      pop\n        /* \"#utility.yul\":10004:10423   */\n      swap2\n      swap1\n      pop\n      jump\t// out\n        /* \"#utility.yul\":10429:10610   */\n    tag_225:\n        /* \"#utility.yul\":10569:10602   */\n      0x5761676572206d7573742062652067726561746572207468616e207a65726f00\n        /* \"#utility.yul\":10565:10566   */\n      0x00\n        /* \"#utility.yul\":10557:10563   */\n      dup3\n        /* \"#utility.yul\":10553:10567   */\n      add\n        /* \"#utility.yul\":10546:10603   */\n      mstore\n        /* \"#utility.yul\":10429:10610   */\n      pop\n      jump\t// out\n        /* \"#utility.yul\":10616:10982   */\n    tag_226:\n        /* \"#utility.yul\":10758:10761   */\n      0x00\n        /* \"#utility.yul\":10779:10846   */\n      tag_351\n        /* \"#utility.yul\":10843:10845   */\n      0x1f\n        /* \"#utility.yul\":10838:10841   */\n      dup4\n        /* \"#utility.yul\":10779:10846   */\n      tag_217\n      jump\t// in\n    tag_351:\n        /* \"#utility.yul\":10772:10846   */\n      swap2\n      pop\n        /* \"#utility.yul\":10855:10948   */\n      tag_352\n        /* \"#utility.yul\":10944:10947   */\n      dup3\n        /* \"#utility.yul\":10855:10948   */\n      tag_225\n      jump\t// in\n    tag_352:\n        /* \"#utility.yul\":10973:10975   */\n      0x20\n        /* \"#utility.yul\":10968:10971   */\n      dup3\n        /* \"#utility.yul\":10964:10976   */\n      add\n        /* \"#utility.yul\":10957:10976   */\n      swap1\n      pop\n        /* \"#utility.yul\":10616:10982   */\n      swap2\n      swap1\n      pop\n      jump\t// out\n        /* \"#utility.yul\":10988:11407   */\n    tag_133:\n        /* \"#utility.yul\":11154:11158   */\n      0x00\n        /* \"#utility.yul\":11192:11194   */\n      0x20\n        /* \"#utility.yul\":11181:11190   */\n      dup3\n        /* \"#utility.yul\":11177:11195   */\n      add\n        /* \"#utility.yul\":11169:11195   */\n      swap1\n      pop\n        /* \"#utility.yul\":11241:11250   */\n      dup2\n        /* \"#utility.yul\":11235:11239   */\n      dup2\n        /* \"#utility.yul\":11231:11251   */\n      sub\n        /* \"#utility.yul\":11227:11228   */\n      0x00\n        /* \"#utility.yul\":11216:11225   */\n      dup4\n        /* \"#utility.yul\":11212:11229   */\n      add\n        /* \"#utility.yul\":11205:11252   */\n      mstore\n        /* \"#utility.yul\":11269:11400   */\n      tag_354\n        /* \"#utility.yul\":11395:11399   */\n      dup2\n        /* \"#utility.yul\":11269:11400   */\n      tag_226\n      jump\t// in\n    tag_354:\n        /* \"#utility.yul\":11261:11400   */\n      swap1\n      pop\n        /* \"#utility.yul\":10988:11407   */\n      swap2\n      swap1\n      pop\n      jump\t// out\n        /* \"#utility.yul\":11413:11577   */\n    tag_227:\n        /* \"#utility.yul\":11553:11569   */\n      0x496e76616c69642063686f696365000000000000000000000000000000000000\n        /* \"#utility.yul\":11549:11550   */\n      0x00\n        /* \"#utility.yul\":11541:11547   */\n      dup3\n        /* \"#utility.yul\":11537:11551   */\n      add\n        /* \"#utility.yul\":11530:11570   */\n      mstore\n        /* \"#utility.yul\":11413:11577   */\n      pop\n      jump\t// out\n        /* \"#utility.yul\":11583:11949   */\n    tag_228:\n        /* \"#utility.yul\":11725:11728   */\n      0x00\n        /* \"#utility.yul\":11746:11813   */\n      tag_357\n        /* \"#utility.yul\":11810:11812   */\n      0x0e\n        /* \"#utility.yul\":11805:11808   */\n      dup4\n        /* \"#utility.yul\":11746:11813   */\n      tag_217\n      jump\t// in\n    tag_357:\n        /* \"#utility.yul\":11739:11813   */\n      swap2\n      pop\n        /* \"#utility.yul\":11822:11915   */\n      tag_358\n        /* \"#utility.yul\":11911:11914   */\n      dup3\n        /* \"#utility.yul\":11822:11915   */\n      tag_227\n      jump\t// in\n    tag_358:\n        /* \"#utility.yul\":11940:11942   */\n      0x20\n        /* \"#utility.yul\":11935:11938   */\n      dup3\n        /* \"#utility.yul\":11931:11943   */\n      add\n        /* \"#utility.yul\":11924:11943   */\n      swap1\n      pop\n        /* \"#utility.yul\":11583:11949   */\n      swap2\n      swap1\n      pop\n      jump\t// out\n        /* \"#utility.yul\":11955:12374   */\n    tag_150:\n        /* \"#utility.yul\":12121:12125   */\n      0x00\n        /* \"#utility.yul\":12159:12161   */\n      0x20\n        /* \"#utility.yul\":12148:12157   */\n      dup3\n        /* \"#utility.yul\":12144:12162   */\n      add\n        /* \"#utility.yul\":12136:12162   */\n      swap1\n      pop\n        /* \"#utility.yul\":12208:12217   */\n      dup2\n        /* \"#utility.yul\":12202:12206   */\n      dup2\n        /* \"#utility.yul\":12198:12218   */\n      sub\n        /* \"#utility.yul\":12194:12195   */\n      0x00\n        /* \"#utility.yul\":12183:12192   */\n      dup4\n        /* \"#utility.yul\":12179:12196   */\n      add\n        /* \"#utility.yul\":12172:12219   */\n      mstore\n        /* \"#utility.yul\":12236:12367   */\n      tag_360\n        /* \"#utility.yul\":12362:12366   */\n      dup2\n        /* \"#utility.yul\":12236:12367   */\n      tag_228\n      jump\t// in\n    tag_360:\n        /* \"#utility.yul\":12228:12367   */\n      swap1\n      pop\n        /* \"#utility.yul\":11955:12374   */\n      swap2\n      swap1\n      pop\n      jump\t// out\n        /* \"#utility.yul\":12380:12476   */\n    tag_229:\n        /* \"#utility.yul\":12414:12422   */\n      0x00\n        /* \"#utility.yul\":12463:12468   */\n      dup2\n        /* \"#utility.yul\":12458:12461   */\n      0xf8\n        /* \"#utility.yul\":12454:12469   */\n      shl\n        /* \"#utility.yul\":12433:12469   */\n      swap1\n      pop\n        /* \"#utility.yul\":12380:12476   */\n      swap2\n      swap1\n      pop\n      jump\t// out\n        /* \"#utility.yul\":12482:12575   */\n    tag_230:\n        /* \"#utility.yul\":12519:12526   */\n      0x00\n        /* \"#utility.yul\":12548:12569   */\n      tag_363\n        /* \"#utility.yul\":12563:12568   */\n      dup3\n        /* \"#utility.yul\":12548:12569   */\n      tag_229\n      jump\t// in\n    tag_363:\n        /* \"#utility.yul\":12537:12569   */\n      swap1\n      pop\n        /* \"#utility.yul\":12482:12575   */\n      swap2\n      swap1\n      pop\n      jump\t// out\n        /* \"#utility.yul\":12581:12761   */\n    tag_231:\n        /* \"#utility.yul\":12692:12754   */\n      tag_365\n        /* \"#utility.yul\":12710:12753   */\n      tag_366\n        /* \"#utility.yul\":12747:12752   */\n      dup3\n        /* \"#utility.yul\":12710:12753   */\n      tag_196\n      jump\t// in\n    tag_366:\n        /* \"#utility.yul\":12692:12754   */\n      tag_230\n      jump\t// in\n    tag_365:\n        /* \"#utility.yul\":12687:12690   */\n      dup3\n        /* \"#utility.yul\":12680:12755   */\n      mstore\n        /* \"#utility.yul\":12581:12761   */\n      pop\n      pop\n      jump\t// out\n        /* \"#utility.yul\":12767:12866   */\n    tag_232:\n        /* \"#utility.yul\":12819:12825   */\n      0x00\n        /* \"#utility.yul\":12853:12858   */\n      dup2\n        /* \"#utility.yul\":12847:12859   */\n      mload\n        /* \"#utility.yul\":12837:12859   */\n      swap1\n      pop\n        /* \"#utility.yul\":12767:12866   */\n      swap2\n      swap1\n      pop\n      jump\t// out\n        /* \"#utility.yul\":12872:13020   */\n    tag_233:\n        /* \"#utility.yul\":12974:12985   */\n      0x00\n        /* \"#utility.yul\":13011:13014   */\n      dup2\n        /* \"#utility.yul\":12996:13014   */\n      swap1\n      pop\n        /* \"#utility.yul\":12872:13020   */\n      swap3\n      swap2\n      pop\n      pop\n      jump\t// out\n        /* \"#utility.yul\":13026:13165   */\n    tag_234:\n        /* \"#utility.yul\":13115:13121   */\n      dup3\n        /* \"#utility.yul\":13110:13113   */\n      dup2\n        /* \"#utility.yul\":13105:13108   */\n      dup4\n        /* \"#utility.yul\":13099:13122   */\n      mcopy\n        /* \"#utility.yul\":13156:13157   */\n      0x00\n        /* \"#utility.yul\":13147:13153   */\n      dup4\n        /* \"#utility.yul\":13142:13145   */\n      dup4\n        /* \"#utility.yul\":13138:13154   */\n      add\n        /* \"#utility.yul\":13131:13158   */\n      mstore\n        /* \"#utility.yul\":13026:13165   */\n      pop\n      pop\n      pop\n      jump\t// out\n        /* \"#utility.yul\":13171:13561   */\n    tag_235:\n        /* \"#utility.yul\":13277:13280   */\n      0x00\n        /* \"#utility.yul\":13305:13344   */\n      tag_371\n        /* \"#utility.yul\":13338:13343   */\n      dup3\n        /* \"#utility.yul\":13305:13344   */\n      tag_232\n      jump\t// in\n    tag_371:\n        /* \"#utility.yul\":13360:13449   */\n      tag_372\n        /* \"#utility.yul\":13442:13448   */\n      dup2\n        /* \"#utility.yul\":13437:13440   */\n      dup6\n        /* \"#utility.yul\":13360:13449   */\n      tag_233\n      jump\t// in\n    tag_372:\n        /* \"#utility.yul\":13353:13449   */\n      swap4\n      pop\n        /* \"#utility.yul\":13458:13523   */\n      tag_373\n        /* \"#utility.yul\":13516:13522   */\n      dup2\n        /* \"#utility.yul\":13511:13514   */\n      dup6\n        /* \"#utility.yul\":13504:13508   */\n      0x20\n        /* \"#utility.yul\":13497:13502   */\n      dup7\n        /* \"#utility.yul\":13493:13509   */\n      add\n        /* \"#utility.yul\":13458:13523   */\n      tag_234\n      jump\t// in\n    tag_373:\n        /* \"#utility.yul\":13548:13554   */\n      dup1\n        /* \"#utility.yul\":13543:13546   */\n      dup5\n        /* \"#utility.yul\":13539:13555   */\n      add\n        /* \"#utility.yul\":13532:13555   */\n      swap2\n      pop\n        /* \"#utility.yul\":13281:13561   */\n      pop\n        /* \"#utility.yul\":13171:13561   */\n      swap3\n      swap2\n      pop\n      pop\n      jump\t// out\n        /* \"#utility.yul\":13567:13994   */\n    tag_154:\n        /* \"#utility.yul\":13733:13736   */\n      0x00\n        /* \"#utility.yul\":13748:13829   */\n      tag_375\n        /* \"#utility.yul\":13825:13828   */\n      dup3\n        /* \"#utility.yul\":13816:13822   */\n      dup6\n        /* \"#utility.yul\":13748:13829   */\n      tag_231\n      jump\t// in\n    tag_375:\n        /* \"#utility.yul\":13854:13855   */\n      0x01\n        /* \"#utility.yul\":13849:13852   */\n      dup3\n        /* \"#utility.yul\":13845:13856   */\n      add\n        /* \"#utility.yul\":13838:13856   */\n      swap2\n      pop\n        /* \"#utility.yul\":13873:13968   */\n      tag_376\n        /* \"#utility.yul\":13964:13967   */\n      dup3\n        /* \"#utility.yul\":13955:13961   */\n      dup5\n        /* \"#utility.yul\":13873:13968   */\n      tag_235\n      jump\t// in\n    tag_376:\n        /* \"#utility.yul\":13866:13968   */\n      swap2\n      pop\n        /* \"#utility.yul\":13985:13988   */\n      dup2\n        /* \"#utility.yul\":13978:13988   */\n      swap1\n      pop\n        /* \"#utility.yul\":13567:13994   */\n      swap4\n      swap3\n      pop\n      pop\n      pop\n      jump\t// out\n        /* \"#utility.yul\":14000:14169   */\n    tag_236:\n        /* \"#utility.yul\":14140:14161   */\n      0x506c617965727320616c72656164792073657400000000000000000000000000\n        /* \"#utility.yul\":14136:14137   */\n      0x00\n        /* \"#utility.yul\":14128:14134   */\n      dup3\n        /* \"#utility.yul\":14124:14138   */\n      add\n        /* \"#utility.yul\":14117:14162   */\n      mstore\n        /* \"#utility.yul\":14000:14169   */\n      pop\n      jump\t// out\n        /* \"#utility.yul\":14175:14541   */\n    tag_237:\n        /* \"#utility.yul\":14317:14320   */\n      0x00\n        /* \"#utility.yul\":14338:14405   */\n      tag_379\n        /* \"#utility.yul\":14402:14404   */\n      0x13\n        /* \"#utility.yul\":14397:14400   */\n      dup4\n        /* \"#utility.yul\":14338:14405   */\n      tag_217\n      jump\t// in\n    tag_379:\n        /* \"#utility.yul\":14331:14405   */\n      swap2\n      pop\n        /* \"#utility.yul\":14414:14507   */\n      tag_380\n        /* \"#utility.yul\":14503:14506   */\n      dup3\n        /* \"#utility.yul\":14414:14507   */\n      tag_236\n      jump\t// in\n    tag_380:\n        /* \"#utility.yul\":14532:14534   */\n      0x20\n        /* \"#utility.yul\":14527:14530   */\n      dup3\n        /* \"#utility.yul\":14523:14535   */\n      add\n        /* \"#utility.yul\":14516:14535   */\n      swap1\n      pop\n        /* \"#utility.yul\":14175:14541   */\n      swap2\n      swap1\n      pop\n      jump\t// out\n        /* \"#utility.yul\":14547:14966   */\n    tag_161:\n        /* \"#utility.yul\":14713:14717   */\n      0x00\n        /* \"#utility.yul\":14751:14753   */\n      0x20\n        /* \"#utility.yul\":14740:14749   */\n      dup3\n        /* \"#utility.yul\":14736:14754   */\n      add\n        /* \"#utility.yul\":14728:14754   */\n      swap1\n      pop\n        /* \"#utility.yul\":14800:14809   */\n      dup2\n        /* \"#utility.yul\":14794:14798   */\n      dup2\n        /* \"#utility.yul\":14790:14810   */\n      sub\n        /* \"#utility.yul\":14786:14787   */\n      0x00\n        /* \"#utility.yul\":14775:14784   */\n      dup4\n        /* \"#utility.yul\":14771:14788   */\n      add\n        /* \"#utility.yul\":14764:14811   */\n      mstore\n        /* \"#utility.yul\":14828:14959   */\n      tag_382\n        /* \"#utility.yul\":14954:14958   */\n      dup2\n        /* \"#utility.yul\":14828:14959   */\n      tag_237\n      jump\t// in\n    tag_382:\n        /* \"#utility.yul\":14820:14959   */\n      swap1\n      pop\n        /* \"#utility.yul\":14547:14966   */\n      swap2\n      swap1\n      pop\n      jump\t// out\n        /* \"#utility.yul\":14972:15152   */\n    tag_238:\n        /* \"#utility.yul\":15112:15144   */\n      0x426f746820706c6179657273206d75737420636f6d6d69742066697273740000\n        /* \"#utility.yul\":15108:15109   */\n      0x00\n        /* \"#utility.yul\":15100:15106   */\n      dup3\n        /* \"#utility.yul\":15096:15110   */\n      add\n        /* \"#utility.yul\":15089:15145   */\n      mstore\n        /* \"#utility.yul\":14972:15152   */\n      pop\n      jump\t// out\n        /* \"#utility.yul\":15158:15524   */\n    tag_239:\n        /* \"#utility.yul\":15300:15303   */\n      0x00\n        /* \"#utility.yul\":15321:15388   */\n      tag_385\n        /* \"#utility.yul\":15385:15387   */\n      0x1e\n        /* \"#utility.yul\":15380:15383   */\n      dup4\n        /* \"#utility.yul\":15321:15388   */\n      tag_217\n      jump\t// in\n    tag_385:\n        /* \"#utility.yul\":15314:15388   */\n      swap2\n      pop\n        /* \"#utility.yul\":15397:15490   */\n      tag_386\n        /* \"#utility.yul\":15486:15489   */\n      dup3\n        /* \"#utility.yul\":15397:15490   */\n      tag_238\n      jump\t// in\n    tag_386:\n        /* \"#utility.yul\":15515:15517   */\n      0x20\n        /* \"#utility.yul\":15510:15513   */\n      dup3\n        /* \"#utility.yul\":15506:15518   */\n      add\n        /* \"#utility.yul\":15499:15518   */\n      swap1\n      pop\n        /* \"#utility.yul\":15158:15524   */\n      swap2\n      swap1\n      pop\n      jump\t// out\n        /* \"#utility.yul\":15530:15949   */\n    tag_170:\n        /* \"#utility.yul\":15696:15700   */\n      0x00\n        /* \"#utility.yul\":15734:15736   */\n      0x20\n        /* \"#utility.yul\":15723:15732   */\n      dup3\n        /* \"#utility.yul\":15719:15737   */\n      add\n        /* \"#utility.yul\":15711:15737   */\n      swap1\n      pop\n        /* \"#utility.yul\":15783:15792   */\n      dup2\n        /* \"#utility.yul\":15777:15781   */\n      dup2\n        /* \"#utility.yul\":15773:15793   */\n      sub\n        /* \"#utility.yul\":15769:15770   */\n      0x00\n        /* \"#utility.yul\":15758:15767   */\n      dup4\n        /* \"#utility.yul\":15754:15771   */\n      add\n        /* \"#utility.yul\":15747:15794   */\n      mstore\n        /* \"#utility.yul\":15811:15942   */\n      tag_388\n        /* \"#utility.yul\":15937:15941   */\n      dup2\n        /* \"#utility.yul\":15811:15942   */\n      tag_239\n      jump\t// in\n    tag_388:\n        /* \"#utility.yul\":15803:15942   */\n      swap1\n      pop\n        /* \"#utility.yul\":15530:15949   */\n      swap2\n      swap1\n      pop\n      jump\t// out\n        /* \"#utility.yul\":15955:16120   */\n    tag_240:\n        /* \"#utility.yul\":16095:16112   */\n      0x496e76616c69642072657665616c210000000000000000000000000000000000\n        /* \"#utility.yul\":16091:16092   */\n      0x00\n        /* \"#utility.yul\":16083:16089   */\n      dup3\n        /* \"#utility.yul\":16079:16093   */\n      add\n        /* \"#utility.yul\":16072:16113   */\n      mstore\n        /* \"#utility.yul\":15955:16120   */\n      pop\n      jump\t// out\n        /* \"#utility.yul\":16126:16492   */\n    tag_241:\n        /* \"#utility.yul\":16268:16271   */\n      0x00\n        /* \"#utility.yul\":16289:16356   */\n      tag_391\n        /* \"#utility.yul\":16353:16355   */\n      0x0f\n        /* \"#utility.yul\":16348:16351   */\n      dup4\n        /* \"#utility.yul\":16289:16356   */\n      tag_217\n      jump\t// in\n    tag_391:\n        /* \"#utility.yul\":16282:16356   */\n      swap2\n      pop\n        /* \"#utility.yul\":16365:16458   */\n      tag_392\n        /* \"#utility.yul\":16454:16457   */\n      dup3\n        /* \"#utility.yul\":16365:16458   */\n      tag_240\n      jump\t// in\n    tag_392:\n        /* \"#utility.yul\":16483:16485   */\n      0x20\n        /* \"#utility.yul\":16478:16481   */\n      dup3\n        /* \"#utility.yul\":16474:16486   */\n      add\n        /* \"#utility.yul\":16467:16486   */\n      swap1\n      pop\n        /* \"#utility.yul\":16126:16492   */\n      swap2\n      swap1\n      pop\n      jump\t// out\n        /* \"#utility.yul\":16498:16917   */\n    tag_177:\n        /* \"#utility.yul\":16664:16668   */\n      0x00\n        /* \"#utility.yul\":16702:16704   */\n      0x20\n        /* \"#utility.yul\":16691:16700   */\n      dup3\n        /* \"#utility.yul\":16687:16705   */\n      add\n        /* \"#utility.yul\":16679:16705   */\n      swap1\n      pop\n        /* \"#utility.yul\":16751:16760   */\n      dup2\n        /* \"#utility.yul\":16745:16749   */\n      dup2\n        /* \"#utility.yul\":16741:16761   */\n      sub\n        /* \"#utility.yul\":16737:16738   */\n      0x00\n        /* \"#utility.yul\":16726:16735   */\n      dup4\n        /* \"#utility.yul\":16722:16739   */\n      add\n        /* \"#utility.yul\":16715:16762   */\n      mstore\n        /* \"#utility.yul\":16779:16910   */\n      tag_394\n        /* \"#utility.yul\":16905:16909   */\n      dup2\n        /* \"#utility.yul\":16779:16910   */\n      tag_241\n      jump\t// in\n    tag_394:\n        /* \"#utility.yul\":16771:16910   */\n      swap1\n      pop\n        /* \"#utility.yul\":16498:16917   */\n      swap2\n      swap1\n      pop\n      jump\t// out\n\n    auxdata: 0xa264697066735822122035934668b6c00332b16306f543c8df538edcdc1fb67c1cacd6e49fff93bf1ff364736f6c634300081a0033\n}\n",
				"bytecode": {
					"linkReferences": {},
					"object": "60806040525f60085f6101000a81548160ff0219169083151502179055505f600860016101000a81548160ff0219169083151502179055505f600860026101000a81548160ff0219169083151502179055505f600860036101000a81548160ff0219169083151502179055503480156075575f80fd5b506119df806100835f395ff3fe608060405260043610610090575f3560e01c8063adf3ef9f11610058578063adf3ef9f14610147578063c9b21a5c1461016f578063ca3ed9e814610199578063d30895e4146101c1578063e4deede9146101ee57610090565b80630d56fa281461009457806333b16d93146100be57806359a5f12d146100d4578063737af77a14610101578063948b530a1461011d575b5f80fd5b34801561009f575f80fd5b506100a8610218565b6040516100b591906111b6565b60405180910390f35b3480156100c9575f80fd5b506100d261022b565b005b3480156100df575f80fd5b506100e8610756565b6040516100f894939291906112b1565b60405180910390f35b61011b60048036038101906101169190611464565b61079e565b005b348015610128575f80fd5b50610131610be0565b60405161013e91906111b6565b60405180910390f35b348015610152575f80fd5b5061016d600480360381019061016891906114e8565b610bf3565b005b34801561017a575f80fd5b50610183610d64565b60405161019091906111b6565b60405180910390f35b3480156101a4575f80fd5b506101bf60048036038101906101ba9190611464565b610d76565b005b3480156101cc575f80fd5b506101d5611058565b6040516101e594939291906112b1565b60405180910390f35b3480156101f9575f80fd5b5061020261109f565b60405161020f91906111b6565b60405180910390f35b600860029054906101000a900460ff1681565b5f73ffffffffffffffffffffffffffffffffffffffff165f80015f9054906101000a900473ffffffffffffffffffffffffffffffffffffffff1673ffffffffffffffffffffffffffffffffffffffff16141580156102d857505f73ffffffffffffffffffffffffffffffffffffffff1660045f015f9054906101000a900473ffffffffffffffffffffffffffffffffffffffff1673ffffffffffffffffffffffffffffffffffffffff1614155b610317576040517f08c379a000000000000000000000000000000000000000000000000000000000815260040161030e90611580565b60405180910390fd5b60085f9054906101000a900460ff16801561033e5750600860019054906101000a900460ff165b80156103565750600860029054906101000a900460ff165b801561036e5750600860039054906101000a900460ff165b6103ad576040517f08c379a00000000000000000000000000000000000000000000000000000000081526004016103a49061160e565b60405180910390fd5b60046002015f9054906101000a900460ff1660038111156103d1576103d0611226565b5b5f6002015f9054906101000a900460ff1660038111156103f4576103f3611226565b5b036104d4575f80015f9054906101000a900473ffffffffffffffffffffffffffffffffffffffff1673ffffffffffffffffffffffffffffffffffffffff166108fc5f6003015490811502906040515f60405180830381858888f19350505050158015610462573d5f803e3d5ffd5b5060045f015f9054906101000a900473ffffffffffffffffffffffffffffffffffffffff1673ffffffffffffffffffffffffffffffffffffffff166108fc60046003015490811502906040515f60405180830381858888f193505050501580156104ce573d5f803e3d5ffd5b5061074c565b600160038111156104e8576104e7611226565b5b5f6002015f9054906101000a900460ff16600381111561050b5761050a611226565b5b14801561054c575060038081111561052657610525611226565b5b60046002015f9054906101000a900460ff16600381111561054a57610549611226565b5b145b806105cc57506002600381111561056657610565611226565b5b5f6002015f9054906101000a900460ff16600381111561058957610588611226565b5b1480156105cb5750600160038111156105a5576105a4611226565b5b60046002015f9054906101000a900460ff1660038111156105c9576105c8611226565b5b145b5b8061064b57506003808111156105e5576105e4611226565b5b5f6002015f9054906101000a900460ff16600381111561060857610607611226565b5b14801561064a57506002600381111561062457610623611226565b5b60046002015f9054906101000a900460ff16600381111561064857610647611226565b5b145b5b156106cf575f80015f9054906101000a900473ffffffffffffffffffffffffffffffffffffffff1673ffffffffffffffffffffffffffffffffffffffff166108fc6004600301545f600301546106a19190611659565b90811502906040515f60405180830381858888f193505050501580156106c9573d5f803e3d5ffd5b5061074b565b60045f015f9054906101000a900473ffffffffffffffffffffffffffffffffffffffff1673ffffffffffffffffffffffffffffffffffffffff166108fc6004600301545f600301546107219190611659565b90811502906040515f60405180830381858888f19350505050158015610749573d5f803e3d5ffd5b505b5b6107546110b2565b565b6004805f015f9054906101000a900473ffffffffffffffffffffffffffffffffffffffff1690806001015490806002015f9054906101000a900460ff16908060030154905084565b5f73ffffffffffffffffffffffffffffffffffffffff165f80015f9054906101000a900473ffffffffffffffffffffffffffffffffffffffff1673ffffffffffffffffffffffffffffffffffffffff161415801561084b57505f73ffffffffffffffffffffffffffffffffffffffff1660045f015f9054906101000a900473ffffffffffffffffffffffffffffffffffffffff1673ffffffffffffffffffffffffffffffffffffffff1614155b61088a576040517f08c379a000000000000000000000000000000000000000000000000000000000815260040161088190611580565b60405180910390fd5b5f80015f9054906101000a900473ffffffffffffffffffffffffffffffffffffffff1673ffffffffffffffffffffffffffffffffffffffff163373ffffffffffffffffffffffffffffffffffffffff161480156108f2575060085f9054906101000a900460ff165b158015610966575060045f015f9054906101000a900473ffffffffffffffffffffffffffffffffffffffff1673ffffffffffffffffffffffffffffffffffffffff163373ffffffffffffffffffffffffffffffffffffffff161480156109645750600860019054906101000a900460ff165b155b6109a5576040517f08c379a000000000000000000000000000000000000000000000000000000000815260040161099c906116d6565b60405180910390fd5b5f34116109e7576040517f08c379a00000000000000000000000000000000000000000000000000000000081526004016109de9061173e565b60405180910390fd5b600160038111156109fb576109fa611226565b5b826003811115610a0e57610a0d611226565b5b1480610a3e575060026003811115610a2957610a28611226565b5b826003811115610a3c57610a3b611226565b5b145b80610a6c5750600380811115610a5757610a56611226565b5b826003811115610a6a57610a69611226565b5b145b610aab576040517f08c379a0000000000000000000000000000000000000000000000000000000008152600401610aa2906117a6565b60405180910390fd5b5f805f015f9054906101000a900473ffffffffffffffffffffffffffffffffffffffff1673ffffffffffffffffffffffffffffffffffffffff163373ffffffffffffffffffffffffffffffffffffffff1614610b08576004610b0a565b5f5b90505f8383604051602001610b2092919061184a565b6040516020818303038152906040528051906020012090508082600101819055503482600301819055505f80015f9054906101000a900473ffffffffffffffffffffffffffffffffffffffff1673ffffffffffffffffffffffffffffffffffffffff163373ffffffffffffffffffffffffffffffffffffffff1603610bbe57600160085f6101000a81548160ff021916908315150217905550610bda565b6001600860016101000a81548160ff0219169083151502179055505b50505050565b600860019054906101000a900460ff1681565b5f73ffffffffffffffffffffffffffffffffffffffff165f80015f9054906101000a900473ffffffffffffffffffffffffffffffffffffffff1673ffffffffffffffffffffffffffffffffffffffff16148015610c9e57505f73ffffffffffffffffffffffffffffffffffffffff1660045f015f9054906101000a900473ffffffffffffffffffffffffffffffffffffffff1673ffffffffffffffffffffffffffffffffffffffff16145b610cdd576040517f08c379a0000000000000000000000000000000000000000000000000000000008152600401610cd4906118bb565b60405180910390fd5b815f80015f6101000a81548173ffffffffffffffffffffffffffffffffffffffff021916908373ffffffffffffffffffffffffffffffffffffffff1602179055508060045f015f6101000a81548173ffffffffffffffffffffffffffffffffffffffff021916908373ffffffffffffffffffffffffffffffffffffffff1602179055505050565b60085f9054906101000a900460ff1681565b5f73ffffffffffffffffffffffffffffffffffffffff165f80015f9054906101000a900473ffffffffffffffffffffffffffffffffffffffff1673ffffffffffffffffffffffffffffffffffffffff1614158015610e2357505f73ffffffffffffffffffffffffffffffffffffffff1660045f015f9054906101000a900473ffffffffffffffffffffffffffffffffffffffff1673ffffffffffffffffffffffffffffffffffffffff1614155b610e62576040517f08c379a0000000000000000000000000000000000000000000000000000000008152600401610e5990611580565b60405180910390fd5b60085f9054906101000a900460ff168015610e895750600860019054906101000a900460ff165b610ec8576040517f08c379a0000000000000000000000000000000000000000000000000000000008152600401610ebf90611923565b60405180910390fd5b5f805f015f9054906101000a900473ffffffffffffffffffffffffffffffffffffffff1673ffffffffffffffffffffffffffffffffffffffff163373ffffffffffffffffffffffffffffffffffffffff1614610f25576004610f27565b5f5b905080600101548383604051602001610f4192919061184a565b6040516020818303038152906040528051906020012014610f97576040517f08c379a0000000000000000000000000000000000000000000000000000000008152600401610f8e9061198b565b60405180910390fd5b82816002015f6101000a81548160ff02191690836003811115610fbd57610fbc611226565b5b02179055505f80015f9054906101000a900473ffffffffffffffffffffffffffffffffffffffff1673ffffffffffffffffffffffffffffffffffffffff163373ffffffffffffffffffffffffffffffffffffffff1603611037576001600860026101000a81548160ff021916908315150217905550611053565b6001600860036101000a81548160ff0219169083151502179055505b505050565b5f805f015f9054906101000a900473ffffffffffffffffffffffffffffffffffffffff1690806001015490806002015f9054906101000a900460ff16908060030154905084565b600860039054906101000a900460ff1681565b5f801b5f600101819055505f801b6004600101819055505f806002015f6101000a81548160ff021916908360038111156110ef576110ee611226565b5b02179055505f60046002015f6101000a81548160ff0219169083600381111561111b5761111a611226565b5b02179055505f80600301819055505f6004600301819055505f60085f6101000a81548160ff0219169083151502179055505f600860016101000a81548160ff0219169083151502179055505f600860026101000a81548160ff0219169083151502179055505f600860036101000a81548160ff021916908315150217905550565b5f8115159050919050565b6111b08161119c565b82525050565b5f6020820190506111c95f8301846111a7565b92915050565b5f73ffffffffffffffffffffffffffffffffffffffff82169050919050565b5f6111f8826111cf565b9050919050565b611208816111ee565b82525050565b5f819050919050565b6112208161120e565b82525050565b7f4e487b71000000000000000000000000000000000000000000000000000000005f52602160045260245ffd5b6004811061126457611263611226565b5b50565b5f81905061127482611253565b919050565b5f61128382611267565b9050919050565b61129381611279565b82525050565b5f819050919050565b6112ab81611299565b82525050565b5f6080820190506112c45f8301876111ff565b6112d16020830186611217565b6112de604083018561128a565b6112eb60608301846112a2565b95945050505050565b5f604051905090565b5f80fd5b5f80fd5b60048110611311575f80fd5b50565b5f8135905061132281611305565b92915050565b5f80fd5b5f80fd5b5f601f19601f8301169050919050565b7f4e487b71000000000000000000000000000000000000000000000000000000005f52604160045260245ffd5b61137682611330565b810181811067ffffffffffffffff8211171561139557611394611340565b5b80604052505050565b5f6113a76112f4565b90506113b3828261136d565b919050565b5f67ffffffffffffffff8211156113d2576113d1611340565b5b6113db82611330565b9050602081019050919050565b828183375f83830152505050565b5f611408611403846113b8565b61139e565b9050828152602081018484840111156114245761142361132c565b5b61142f8482856113e8565b509392505050565b5f82601f83011261144b5761144a611328565b5b813561145b8482602086016113f6565b91505092915050565b5f806040838503121561147a576114796112fd565b5b5f61148785828601611314565b925050602083013567ffffffffffffffff8111156114a8576114a7611301565b5b6114b485828601611437565b9150509250929050565b6114c7816111ee565b81146114d1575f80fd5b50565b5f813590506114e2816114be565b92915050565b5f80604083850312156114fe576114fd6112fd565b5b5f61150b858286016114d4565b925050602061151c858286016114d4565b9150509250929050565b5f82825260208201905092915050565b7f506c6179657273206e6f742073657400000000000000000000000000000000005f82015250565b5f61156a600f83611526565b915061157582611536565b602082019050919050565b5f6020820190508181035f8301526115978161155e565b9050919050565b7f506c6179657273206d75737420636f6d6d697420616e642072657665616c20625f8201527f65666f72652064657465726d696e696e67207468652077696e6e657200000000602082015250565b5f6115f8603c83611526565b91506116038261159e565b604082019050919050565b5f6020820190508181035f830152611625816115ec565b9050919050565b7f4e487b71000000000000000000000000000000000000000000000000000000005f52601160045260245ffd5b5f61166382611299565b915061166e83611299565b92508282019050808211156116865761168561162c565b5b92915050565b7f506c6179657220616c726561647920636f6d6d697474656400000000000000005f82015250565b5f6116c0601883611526565b91506116cb8261168c565b602082019050919050565b5f6020820190508181035f8301526116ed816116b4565b9050919050565b7f5761676572206d7573742062652067726561746572207468616e207a65726f005f82015250565b5f611728601f83611526565b9150611733826116f4565b602082019050919050565b5f6020820190508181035f8301526117558161171c565b9050919050565b7f496e76616c69642063686f6963650000000000000000000000000000000000005f82015250565b5f611790600e83611526565b915061179b8261175c565b602082019050919050565b5f6020820190508181035f8301526117bd81611784565b9050919050565b5f8160f81b9050919050565b5f6117da826117c4565b9050919050565b6117f26117ed82611279565b6117d0565b82525050565b5f81519050919050565b5f81905092915050565b8281835e5f83830152505050565b5f611824826117f8565b61182e8185611802565b935061183e81856020860161180c565b80840191505092915050565b5f61185582856117e1565b600182019150611865828461181a565b91508190509392505050565b7f506c617965727320616c726561647920736574000000000000000000000000005f82015250565b5f6118a5601383611526565b91506118b082611871565b602082019050919050565b5f6020820190508181035f8301526118d281611899565b9050919050565b7f426f746820706c6179657273206d75737420636f6d6d697420666972737400005f82015250565b5f61190d601e83611526565b9150611918826118d9565b602082019050919050565b5f6020820190508181035f83015261193a81611901565b9050919050565b7f496e76616c69642072657665616c2100000000000000000000000000000000005f82015250565b5f611975600f83611526565b915061198082611941565b602082019050919050565b5f6020820190508181035f8301526119a281611969565b905091905056fea264697066735822122035934668b6c00332b16306f543c8df538edcdc1fb67c1cacd6e49fff93bf1ff364736f6c634300081a0033",
					"opcodes": "PUSH1 0x80 PUSH1 0x40 MSTORE PUSH0 PUSH1 0x8 PUSH0 PUSH2 0x100 EXP DUP2 SLOAD DUP2 PUSH1 0xFF MUL NOT AND SWAP1 DUP4 ISZERO ISZERO MUL OR SWAP1 SSTORE POP PUSH0 PUSH1 0x8 PUSH1 0x1 PUSH2 0x100 EXP DUP2 SLOAD DUP2 PUSH1 0xFF MUL NOT AND SWAP1 DUP4 ISZERO ISZERO MUL OR SWAP1 SSTORE POP PUSH0 PUSH1 0x8 PUSH1 0x2 PUSH2 0x100 EXP DUP2 SLOAD DUP2 PUSH1 0xFF MUL NOT AND SWAP1 DUP4 ISZERO ISZERO MUL OR SWAP1 SSTORE POP PUSH0 PUSH1 0x8 PUSH1 0x3 PUSH2 0x100 EXP DUP2 SLOAD DUP2 PUSH1 0xFF MUL NOT AND SWAP1 DUP4 ISZERO ISZERO MUL OR SWAP1 SSTORE POP CALLVALUE DUP1 ISZERO PUSH1 0x75 JUMPI PUSH0 DUP1 REVERT JUMPDEST POP PUSH2 0x19DF DUP1 PUSH2 0x83 PUSH0 CODECOPY PUSH0 RETURN INVALID PUSH1 0x80 PUSH1 0x40 MSTORE PUSH1 0x4 CALLDATASIZE LT PUSH2 0x90 JUMPI PUSH0 CALLDATALOAD PUSH1 0xE0 SHR DUP1 PUSH4 0xADF3EF9F GT PUSH2 0x58 JUMPI DUP1 PUSH4 0xADF3EF9F EQ PUSH2 0x147 JUMPI DUP1 PUSH4 0xC9B21A5C EQ PUSH2 0x16F JUMPI DUP1 PUSH4 0xCA3ED9E8 EQ PUSH2 0x199 JUMPI DUP1 PUSH4 0xD30895E4 EQ PUSH2 0x1C1 JUMPI DUP1 PUSH4 0xE4DEEDE9 EQ PUSH2 0x1EE JUMPI PUSH2 0x90 JUMP JUMPDEST DUP1 PUSH4 0xD56FA28 EQ PUSH2 0x94 JUMPI DUP1 PUSH4 0x33B16D93 EQ PUSH2 0xBE JUMPI DUP1 PUSH4 0x59A5F12D EQ PUSH2 0xD4 JUMPI DUP1 PUSH4 0x737AF77A EQ PUSH2 0x101 JUMPI DUP1 PUSH4 0x948B530A EQ PUSH2 0x11D JUMPI JUMPDEST PUSH0 DUP1 REVERT JUMPDEST CALLVALUE DUP1 ISZERO PUSH2 0x9F JUMPI PUSH0 DUP1 REVERT JUMPDEST POP PUSH2 0xA8 PUSH2 0x218 JUMP JUMPDEST PUSH1 0x40 MLOAD PUSH2 0xB5 SWAP2 SWAP1 PUSH2 0x11B6 JUMP JUMPDEST PUSH1 0x40 MLOAD DUP1 SWAP2 SUB SWAP1 RETURN JUMPDEST CALLVALUE DUP1 ISZERO PUSH2 0xC9 JUMPI PUSH0 DUP1 REVERT JUMPDEST POP PUSH2 0xD2 PUSH2 0x22B JUMP JUMPDEST STOP JUMPDEST CALLVALUE DUP1 ISZERO PUSH2 0xDF JUMPI PUSH0 DUP1 REVERT JUMPDEST POP PUSH2 0xE8 PUSH2 0x756 JUMP JUMPDEST PUSH1 0x40 MLOAD PUSH2 0xF8 SWAP5 SWAP4 SWAP3 SWAP2 SWAP1 PUSH2 0x12B1 JUMP JUMPDEST PUSH1 0x40 MLOAD DUP1 SWAP2 SUB SWAP1 RETURN JUMPDEST PUSH2 0x11B PUSH1 0x4 DUP1 CALLDATASIZE SUB DUP2 ADD SWAP1 PUSH2 0x116 SWAP2 SWAP1 PUSH2 0x1464 JUMP JUMPDEST PUSH2 0x79E JUMP JUMPDEST STOP JUMPDEST CALLVALUE DUP1 ISZERO PUSH2 0x128 JUMPI PUSH0 DUP1 REVERT JUMPDEST POP PUSH2 0x131 PUSH2 0xBE0 JUMP JUMPDEST PUSH1 0x40 MLOAD PUSH2 0x13E SWAP2 SWAP1 PUSH2 0x11B6 JUMP JUMPDEST PUSH1 0x40 MLOAD DUP1 SWAP2 SUB SWAP1 RETURN JUMPDEST CALLVALUE DUP1 ISZERO PUSH2 0x152 JUMPI PUSH0 DUP1 REVERT JUMPDEST POP PUSH2 0x16D PUSH1 0x4 DUP1 CALLDATASIZE SUB DUP2 ADD SWAP1 PUSH2 0x168 SWAP2 SWAP1 PUSH2 0x14E8 JUMP JUMPDEST PUSH2 0xBF3 JUMP JUMPDEST STOP JUMPDEST CALLVALUE DUP1 ISZERO PUSH2 0x17A JUMPI PUSH0 DUP1 REVERT JUMPDEST POP PUSH2 0x183 PUSH2 0xD64 JUMP JUMPDEST PUSH1 0x40 MLOAD PUSH2 0x190 SWAP2 SWAP1 PUSH2 0x11B6 JUMP JUMPDEST PUSH1 0x40 MLOAD DUP1 SWAP2 SUB SWAP1 RETURN JUMPDEST CALLVALUE DUP1 ISZERO PUSH2 0x1A4 JUMPI PUSH0 DUP1 REVERT JUMPDEST POP PUSH2 0x1BF PUSH1 0x4 DUP1 CALLDATASIZE SUB DUP2 ADD SWAP1 PUSH2 0x1BA SWAP2 SWAP1 PUSH2 0x1464 JUMP JUMPDEST PUSH2 0xD76 JUMP JUMPDEST STOP JUMPDEST CALLVALUE DUP1 ISZERO PUSH2 0x1CC JUMPI PUSH0 DUP1 REVERT JUMPDEST POP PUSH2 0x1D5 PUSH2 0x1058 JUMP JUMPDEST PUSH1 0x40 MLOAD PUSH2 0x1E5 SWAP5 SWAP4 SWAP3 SWAP2 SWAP1 PUSH2 0x12B1 JUMP JUMPDEST PUSH1 0x40 MLOAD DUP1 SWAP2 SUB SWAP1 RETURN JUMPDEST CALLVALUE DUP1 ISZERO PUSH2 0x1F9 JUMPI PUSH0 DUP1 REVERT JUMPDEST POP PUSH2 0x202 PUSH2 0x109F JUMP JUMPDEST PUSH1 0x40 MLOAD PUSH2 0x20F SWAP2 SWAP1 PUSH2 0x11B6 JUMP JUMPDEST PUSH1 0x40 MLOAD DUP1 SWAP2 SUB SWAP1 RETURN JUMPDEST PUSH1 0x8 PUSH1 0x2 SWAP1 SLOAD SWAP1 PUSH2 0x100 EXP SWAP1 DIV PUSH1 0xFF AND DUP2 JUMP JUMPDEST PUSH0 PUSH20 0xFFFFFFFFFFFFFFFFFFFFFFFFFFFFFFFFFFFFFFFF AND PUSH0 DUP1 ADD PUSH0 SWAP1 SLOAD SWAP1 PUSH2 0x100 EXP SWAP1 DIV PUSH20 0xFFFFFFFFFFFFFFFFFFFFFFFFFFFFFFFFFFFFFFFF AND PUSH20 0xFFFFFFFFFFFFFFFFFFFFFFFFFFFFFFFFFFFFFFFF AND EQ ISZERO DUP1 ISZERO PUSH2 0x2D8 JUMPI POP PUSH0 PUSH20 0xFFFFFFFFFFFFFFFFFFFFFFFFFFFFFFFFFFFFFFFF AND PUSH1 0x4 PUSH0 ADD PUSH0 SWAP1 SLOAD SWAP1 PUSH2 0x100 EXP SWAP1 DIV PUSH20 0xFFFFFFFFFFFFFFFFFFFFFFFFFFFFFFFFFFFFFFFF AND PUSH20 0xFFFFFFFFFFFFFFFFFFFFFFFFFFFFFFFFFFFFFFFF AND EQ ISZERO JUMPDEST PUSH2 0x317 JUMPI PUSH1 0x40 MLOAD PUSH32 0x8C379A000000000000000000000000000000000000000000000000000000000 DUP2 MSTORE PUSH1 0x4 ADD PUSH2 0x30E SWAP1 PUSH2 0x1580 JUMP JUMPDEST PUSH1 0x40 MLOAD DUP1 SWAP2 SUB SWAP1 REVERT JUMPDEST PUSH1 0x8 PUSH0 SWAP1 SLOAD SWAP1 PUSH2 0x100 EXP SWAP1 DIV PUSH1 0xFF AND DUP1 ISZERO PUSH2 0x33E JUMPI POP PUSH1 0x8 PUSH1 0x1 SWAP1 SLOAD SWAP1 PUSH2 0x100 EXP SWAP1 DIV PUSH1 0xFF AND JUMPDEST DUP1 ISZERO PUSH2 0x356 JUMPI POP PUSH1 0x8 PUSH1 0x2 SWAP1 SLOAD SWAP1 PUSH2 0x100 EXP SWAP1 DIV PUSH1 0xFF AND JUMPDEST DUP1 ISZERO PUSH2 0x36E JUMPI POP PUSH1 0x8 PUSH1 0x3 SWAP1 SLOAD SWAP1 PUSH2 0x100 EXP SWAP1 DIV PUSH1 0xFF AND JUMPDEST PUSH2 0x3AD JUMPI PUSH1 0x40 MLOAD PUSH32 0x8C379A000000000000000000000000000000000000000000000000000000000 DUP2 MSTORE PUSH1 0x4 ADD PUSH2 0x3A4 SWAP1 PUSH2 0x160E JUMP JUMPDEST PUSH1 0x40 MLOAD DUP1 SWAP2 SUB SWAP1 REVERT JUMPDEST PUSH1 0x4 PUSH1 0x2 ADD PUSH0 SWAP1 SLOAD SWAP1 PUSH2 0x100 EXP SWAP1 DIV PUSH1 0xFF AND PUSH1 0x3 DUP2 GT ISZERO PUSH2 0x3D1 JUMPI PUSH2 0x3D0 PUSH2 0x1226 JUMP JUMPDEST JUMPDEST PUSH0 PUSH1 0x2 ADD PUSH0 SWAP1 SLOAD SWAP1 PUSH2 0x100 EXP SWAP1 DIV PUSH1 0xFF AND PUSH1 0x3 DUP2 GT ISZERO PUSH2 0x3F4 JUMPI PUSH2 0x3F3 PUSH2 0x1226 JUMP JUMPDEST JUMPDEST SUB PUSH2 0x4D4 JUMPI PUSH0 DUP1 ADD PUSH0 SWAP1 SLOAD SWAP1 PUSH2 0x100 EXP SWAP1 DIV PUSH20 0xFFFFFFFFFFFFFFFFFFFFFFFFFFFFFFFFFFFFFFFF AND PUSH20 0xFFFFFFFFFFFFFFFFFFFFFFFFFFFFFFFFFFFFFFFF AND PUSH2 0x8FC PUSH0 PUSH1 0x3 ADD SLOAD SWAP1 DUP2 ISZERO MUL SWAP1 PUSH1 0x40 MLOAD PUSH0 PUSH1 0x40 MLOAD DUP1 DUP4 SUB DUP2 DUP6 DUP9 DUP9 CALL SWAP4 POP POP POP POP ISZERO DUP1 ISZERO PUSH2 0x462 JUMPI RETURNDATASIZE PUSH0 DUP1 RETURNDATACOPY RETURNDATASIZE PUSH0 REVERT JUMPDEST POP PUSH1 0x4 PUSH0 ADD PUSH0 SWAP1 SLOAD SWAP1 PUSH2 0x100 EXP SWAP1 DIV PUSH20 0xFFFFFFFFFFFFFFFFFFFFFFFFFFFFFFFFFFFFFFFF AND PUSH20 0xFFFFFFFFFFFFFFFFFFFFFFFFFFFFFFFFFFFFFFFF AND PUSH2 0x8FC PUSH1 0x4 PUSH1 0x3 ADD SLOAD SWAP1 DUP2 ISZERO MUL SWAP1 PUSH1 0x40 MLOAD PUSH0 PUSH1 0x40 MLOAD DUP1 DUP4 SUB DUP2 DUP6 DUP9 DUP9 CALL SWAP4 POP POP POP POP ISZERO DUP1 ISZERO PUSH2 0x4CE JUMPI RETURNDATASIZE PUSH0 DUP1 RETURNDATACOPY RETURNDATASIZE PUSH0 REVERT JUMPDEST POP PUSH2 0x74C JUMP JUMPDEST PUSH1 0x1 PUSH1 0x3 DUP2 GT ISZERO PUSH2 0x4E8 JUMPI PUSH2 0x4E7 PUSH2 0x1226 JUMP JUMPDEST JUMPDEST PUSH0 PUSH1 0x2 ADD PUSH0 SWAP1 SLOAD SWAP1 PUSH2 0x100 EXP SWAP1 DIV PUSH1 0xFF AND PUSH1 0x3 DUP2 GT ISZERO PUSH2 0x50B JUMPI PUSH2 0x50A PUSH2 0x1226 JUMP JUMPDEST JUMPDEST EQ DUP1 ISZERO PUSH2 0x54C JUMPI POP PUSH1 0x3 DUP1 DUP2 GT ISZERO PUSH2 0x526 JUMPI PUSH2 0x525 PUSH2 0x1226 JUMP JUMPDEST JUMPDEST PUSH1 0x4 PUSH1 0x2 ADD PUSH0 SWAP1 SLOAD SWAP1 PUSH2 0x100 EXP SWAP1 DIV PUSH1 0xFF AND PUSH1 0x3 DUP2 GT ISZERO PUSH2 0x54A JUMPI PUSH2 0x549 PUSH2 0x1226 JUMP JUMPDEST JUMPDEST EQ JUMPDEST DUP1 PUSH2 0x5CC JUMPI POP PUSH1 0x2 PUSH1 0x3 DUP2 GT ISZERO PUSH2 0x566 JUMPI PUSH2 0x565 PUSH2 0x1226 JUMP JUMPDEST JUMPDEST PUSH0 PUSH1 0x2 ADD PUSH0 SWAP1 SLOAD SWAP1 PUSH2 0x100 EXP SWAP1 DIV PUSH1 0xFF AND PUSH1 0x3 DUP2 GT ISZERO PUSH2 0x589 JUMPI PUSH2 0x588 PUSH2 0x1226 JUMP JUMPDEST JUMPDEST EQ DUP1 ISZERO PUSH2 0x5CB JUMPI POP PUSH1 0x1 PUSH1 0x3 DUP2 GT ISZERO PUSH2 0x5A5 JUMPI PUSH2 0x5A4 PUSH2 0x1226 JUMP JUMPDEST JUMPDEST PUSH1 0x4 PUSH1 0x2 ADD PUSH0 SWAP1 SLOAD SWAP1 PUSH2 0x100 EXP SWAP1 DIV PUSH1 0xFF AND PUSH1 0x3 DUP2 GT ISZERO PUSH2 0x5C9 JUMPI PUSH2 0x5C8 PUSH2 0x1226 JUMP JUMPDEST JUMPDEST EQ JUMPDEST JUMPDEST DUP1 PUSH2 0x64B JUMPI POP PUSH1 0x3 DUP1 DUP2 GT ISZERO PUSH2 0x5E5 JUMPI PUSH2 0x5E4 PUSH2 0x1226 JUMP JUMPDEST JUMPDEST PUSH0 PUSH1 0x2 ADD PUSH0 SWAP1 SLOAD SWAP1 PUSH2 0x100 EXP SWAP1 DIV PUSH1 0xFF AND PUSH1 0x3 DUP2 GT ISZERO PUSH2 0x608 JUMPI PUSH2 0x607 PUSH2 0x1226 JUMP JUMPDEST JUMPDEST EQ DUP1 ISZERO PUSH2 0x64A JUMPI POP PUSH1 0x2 PUSH1 0x3 DUP2 GT ISZERO PUSH2 0x624 JUMPI PUSH2 0x623 PUSH2 0x1226 JUMP JUMPDEST JUMPDEST PUSH1 0x4 PUSH1 0x2 ADD PUSH0 SWAP1 SLOAD SWAP1 PUSH2 0x100 EXP SWAP1 DIV PUSH1 0xFF AND PUSH1 0x3 DUP2 GT ISZERO PUSH2 0x648 JUMPI PUSH2 0x647 PUSH2 0x1226 JUMP JUMPDEST JUMPDEST EQ JUMPDEST JUMPDEST ISZERO PUSH2 0x6CF JUMPI PUSH0 DUP1 ADD PUSH0 SWAP1 SLOAD SWAP1 PUSH2 0x100 EXP SWAP1 DIV PUSH20 0xFFFFFFFFFFFFFFFFFFFFFFFFFFFFFFFFFFFFFFFF AND PUSH20 0xFFFFFFFFFFFFFFFFFFFFFFFFFFFFFFFFFFFFFFFF AND PUSH2 0x8FC PUSH1 0x4 PUSH1 0x3 ADD SLOAD PUSH0 PUSH1 0x3 ADD SLOAD PUSH2 0x6A1 SWAP2 SWAP1 PUSH2 0x1659 JUMP JUMPDEST SWAP1 DUP2 ISZERO MUL SWAP1 PUSH1 0x40 MLOAD PUSH0 PUSH1 0x40 MLOAD DUP1 DUP4 SUB DUP2 DUP6 DUP9 DUP9 CALL SWAP4 POP POP POP POP ISZERO DUP1 ISZERO PUSH2 0x6C9 JUMPI RETURNDATASIZE PUSH0 DUP1 RETURNDATACOPY RETURNDATASIZE PUSH0 REVERT JUMPDEST POP PUSH2 0x74B JUMP JUMPDEST PUSH1 0x4 PUSH0 ADD PUSH0 SWAP1 SLOAD SWAP1 PUSH2 0x100 EXP SWAP1 DIV PUSH20 0xFFFFFFFFFFFFFFFFFFFFFFFFFFFFFFFFFFFFFFFF AND PUSH20 0xFFFFFFFFFFFFFFFFFFFFFFFFFFFFFFFFFFFFFFFF AND PUSH2 0x8FC PUSH1 0x4 PUSH1 0x3 ADD SLOAD PUSH0 PUSH1 0x3 ADD SLOAD PUSH2 0x721 SWAP2 SWAP1 PUSH2 0x1659 JUMP JUMPDEST SWAP1 DUP2 ISZERO MUL SWAP1 PUSH1 0x40 MLOAD PUSH0 PUSH1 0x40 MLOAD DUP1 DUP4 SUB DUP2 DUP6 DUP9 DUP9 CALL SWAP4 POP POP POP POP ISZERO DUP1 ISZERO PUSH2 0x749 JUMPI RETURNDATASIZE PUSH0 DUP1 RETURNDATACOPY RETURNDATASIZE PUSH0 REVERT JUMPDEST POP JUMPDEST JUMPDEST PUSH2 0x754 PUSH2 0x10B2 JUMP JUMPDEST JUMP JUMPDEST PUSH1 0x4 DUP1 PUSH0 ADD PUSH0 SWAP1 SLOAD SWAP1 PUSH2 0x100 EXP SWAP1 DIV PUSH20 0xFFFFFFFFFFFFFFFFFFFFFFFFFFFFFFFFFFFFFFFF AND SWAP1 DUP1 PUSH1 0x1 ADD SLOAD SWAP1 DUP1 PUSH1 0x2 ADD PUSH0 SWAP1 SLOAD SWAP1 PUSH2 0x100 EXP SWAP1 DIV PUSH1 0xFF AND SWAP1 DUP1 PUSH1 0x3 ADD SLOAD SWAP1 POP DUP5 JUMP JUMPDEST PUSH0 PUSH20 0xFFFFFFFFFFFFFFFFFFFFFFFFFFFFFFFFFFFFFFFF AND PUSH0 DUP1 ADD PUSH0 SWAP1 SLOAD SWAP1 PUSH2 0x100 EXP SWAP1 DIV PUSH20 0xFFFFFFFFFFFFFFFFFFFFFFFFFFFFFFFFFFFFFFFF AND PUSH20 0xFFFFFFFFFFFFFFFFFFFFFFFFFFFFFFFFFFFFFFFF AND EQ ISZERO DUP1 ISZERO PUSH2 0x84B JUMPI POP PUSH0 PUSH20 0xFFFFFFFFFFFFFFFFFFFFFFFFFFFFFFFFFFFFFFFF AND PUSH1 0x4 PUSH0 ADD PUSH0 SWAP1 SLOAD SWAP1 PUSH2 0x100 EXP SWAP1 DIV PUSH20 0xFFFFFFFFFFFFFFFFFFFFFFFFFFFFFFFFFFFFFFFF AND PUSH20 0xFFFFFFFFFFFFFFFFFFFFFFFFFFFFFFFFFFFFFFFF AND EQ ISZERO JUMPDEST PUSH2 0x88A JUMPI PUSH1 0x40 MLOAD PUSH32 0x8C379A000000000000000000000000000000000000000000000000000000000 DUP2 MSTORE PUSH1 0x4 ADD PUSH2 0x881 SWAP1 PUSH2 0x1580 JUMP JUMPDEST PUSH1 0x40 MLOAD DUP1 SWAP2 SUB SWAP1 REVERT JUMPDEST PUSH0 DUP1 ADD PUSH0 SWAP1 SLOAD SWAP1 PUSH2 0x100 EXP SWAP1 DIV PUSH20 0xFFFFFFFFFFFFFFFFFFFFFFFFFFFFFFFFFFFFFFFF AND PUSH20 0xFFFFFFFFFFFFFFFFFFFFFFFFFFFFFFFFFFFFFFFF AND CALLER PUSH20 0xFFFFFFFFFFFFFFFFFFFFFFFFFFFFFFFFFFFFFFFF AND EQ DUP1 ISZERO PUSH2 0x8F2 JUMPI POP PUSH1 0x8 PUSH0 SWAP1 SLOAD SWAP1 PUSH2 0x100 EXP SWAP1 DIV PUSH1 0xFF AND JUMPDEST ISZERO DUP1 ISZERO PUSH2 0x966 JUMPI POP PUSH1 0x4 PUSH0 ADD PUSH0 SWAP1 SLOAD SWAP1 PUSH2 0x100 EXP SWAP1 DIV PUSH20 0xFFFFFFFFFFFFFFFFFFFFFFFFFFFFFFFFFFFFFFFF AND PUSH20 0xFFFFFFFFFFFFFFFFFFFFFFFFFFFFFFFFFFFFFFFF AND CALLER PUSH20 0xFFFFFFFFFFFFFFFFFFFFFFFFFFFFFFFFFFFFFFFF AND EQ DUP1 ISZERO PUSH2 0x964 JUMPI POP PUSH1 0x8 PUSH1 0x1 SWAP1 SLOAD SWAP1 PUSH2 0x100 EXP SWAP1 DIV PUSH1 0xFF AND JUMPDEST ISZERO JUMPDEST PUSH2 0x9A5 JUMPI PUSH1 0x40 MLOAD PUSH32 0x8C379A000000000000000000000000000000000000000000000000000000000 DUP2 MSTORE PUSH1 0x4 ADD PUSH2 0x99C SWAP1 PUSH2 0x16D6 JUMP JUMPDEST PUSH1 0x40 MLOAD DUP1 SWAP2 SUB SWAP1 REVERT JUMPDEST PUSH0 CALLVALUE GT PUSH2 0x9E7 JUMPI PUSH1 0x40 MLOAD PUSH32 0x8C379A000000000000000000000000000000000000000000000000000000000 DUP2 MSTORE PUSH1 0x4 ADD PUSH2 0x9DE SWAP1 PUSH2 0x173E JUMP JUMPDEST PUSH1 0x40 MLOAD DUP1 SWAP2 SUB SWAP1 REVERT JUMPDEST PUSH1 0x1 PUSH1 0x3 DUP2 GT ISZERO PUSH2 0x9FB JUMPI PUSH2 0x9FA PUSH2 0x1226 JUMP JUMPDEST JUMPDEST DUP3 PUSH1 0x3 DUP2 GT ISZERO PUSH2 0xA0E JUMPI PUSH2 0xA0D PUSH2 0x1226 JUMP JUMPDEST JUMPDEST EQ DUP1 PUSH2 0xA3E JUMPI POP PUSH1 0x2 PUSH1 0x3 DUP2 GT ISZERO PUSH2 0xA29 JUMPI PUSH2 0xA28 PUSH2 0x1226 JUMP JUMPDEST JUMPDEST DUP3 PUSH1 0x3 DUP2 GT ISZERO PUSH2 0xA3C JUMPI PUSH2 0xA3B PUSH2 0x1226 JUMP JUMPDEST JUMPDEST EQ JUMPDEST DUP1 PUSH2 0xA6C JUMPI POP PUSH1 0x3 DUP1 DUP2 GT ISZERO PUSH2 0xA57 JUMPI PUSH2 0xA56 PUSH2 0x1226 JUMP JUMPDEST JUMPDEST DUP3 PUSH1 0x3 DUP2 GT ISZERO PUSH2 0xA6A JUMPI PUSH2 0xA69 PUSH2 0x1226 JUMP JUMPDEST JUMPDEST EQ JUMPDEST PUSH2 0xAAB JUMPI PUSH1 0x40 MLOAD PUSH32 0x8C379A000000000000000000000000000000000000000000000000000000000 DUP2 MSTORE PUSH1 0x4 ADD PUSH2 0xAA2 SWAP1 PUSH2 0x17A6 JUMP JUMPDEST PUSH1 0x40 MLOAD DUP1 SWAP2 SUB SWAP1 REVERT JUMPDEST PUSH0 DUP1 PUSH0 ADD PUSH0 SWAP1 SLOAD SWAP1 PUSH2 0x100 EXP SWAP1 DIV PUSH20 0xFFFFFFFFFFFFFFFFFFFFFFFFFFFFFFFFFFFFFFFF AND PUSH20 0xFFFFFFFFFFFFFFFFFFFFFFFFFFFFFFFFFFFFFFFF AND CALLER PUSH20 0xFFFFFFFFFFFFFFFFFFFFFFFFFFFFFFFFFFFFFFFF AND EQ PUSH2 0xB08 JUMPI PUSH1 0x4 PUSH2 0xB0A JUMP JUMPDEST PUSH0 JUMPDEST SWAP1 POP PUSH0 DUP4 DUP4 PUSH1 0x40 MLOAD PUSH1 0x20 ADD PUSH2 0xB20 SWAP3 SWAP2 SWAP1 PUSH2 0x184A JUMP JUMPDEST PUSH1 0x40 MLOAD PUSH1 0x20 DUP2 DUP4 SUB SUB DUP2 MSTORE SWAP1 PUSH1 0x40 MSTORE DUP1 MLOAD SWAP1 PUSH1 0x20 ADD KECCAK256 SWAP1 POP DUP1 DUP3 PUSH1 0x1 ADD DUP2 SWAP1 SSTORE POP CALLVALUE DUP3 PUSH1 0x3 ADD DUP2 SWAP1 SSTORE POP PUSH0 DUP1 ADD PUSH0 SWAP1 SLOAD SWAP1 PUSH2 0x100 EXP SWAP1 DIV PUSH20 0xFFFFFFFFFFFFFFFFFFFFFFFFFFFFFFFFFFFFFFFF AND PUSH20 0xFFFFFFFFFFFFFFFFFFFFFFFFFFFFFFFFFFFFFFFF AND CALLER PUSH20 0xFFFFFFFFFFFFFFFFFFFFFFFFFFFFFFFFFFFFFFFF AND SUB PUSH2 0xBBE JUMPI PUSH1 0x1 PUSH1 0x8 PUSH0 PUSH2 0x100 EXP DUP2 SLOAD DUP2 PUSH1 0xFF MUL NOT AND SWAP1 DUP4 ISZERO ISZERO MUL OR SWAP1 SSTORE POP PUSH2 0xBDA JUMP JUMPDEST PUSH1 0x1 PUSH1 0x8 PUSH1 0x1 PUSH2 0x100 EXP DUP2 SLOAD DUP2 PUSH1 0xFF MUL NOT AND SWAP1 DUP4 ISZERO ISZERO MUL OR SWAP1 SSTORE POP JUMPDEST POP POP POP POP JUMP JUMPDEST PUSH1 0x8 PUSH1 0x1 SWAP1 SLOAD SWAP1 PUSH2 0x100 EXP SWAP1 DIV PUSH1 0xFF AND DUP2 JUMP JUMPDEST PUSH0 PUSH20 0xFFFFFFFFFFFFFFFFFFFFFFFFFFFFFFFFFFFFFFFF AND PUSH0 DUP1 ADD PUSH0 SWAP1 SLOAD SWAP1 PUSH2 0x100 EXP SWAP1 DIV PUSH20 0xFFFFFFFFFFFFFFFFFFFFFFFFFFFFFFFFFFFFFFFF AND PUSH20 0xFFFFFFFFFFFFFFFFFFFFFFFFFFFFFFFFFFFFFFFF AND EQ DUP1 ISZERO PUSH2 0xC9E JUMPI POP PUSH0 PUSH20 0xFFFFFFFFFFFFFFFFFFFFFFFFFFFFFFFFFFFFFFFF AND PUSH1 0x4 PUSH0 ADD PUSH0 SWAP1 SLOAD SWAP1 PUSH2 0x100 EXP SWAP1 DIV PUSH20 0xFFFFFFFFFFFFFFFFFFFFFFFFFFFFFFFFFFFFFFFF AND PUSH20 0xFFFFFFFFFFFFFFFFFFFFFFFFFFFFFFFFFFFFFFFF AND EQ JUMPDEST PUSH2 0xCDD JUMPI PUSH1 0x40 MLOAD PUSH32 0x8C379A000000000000000000000000000000000000000000000000000000000 DUP2 MSTORE PUSH1 0x4 ADD PUSH2 0xCD4 SWAP1 PUSH2 0x18BB JUMP JUMPDEST PUSH1 0x40 MLOAD DUP1 SWAP2 SUB SWAP1 REVERT JUMPDEST DUP2 PUSH0 DUP1 ADD PUSH0 PUSH2 0x100 EXP DUP2 SLOAD DUP2 PUSH20 0xFFFFFFFFFFFFFFFFFFFFFFFFFFFFFFFFFFFFFFFF MUL NOT AND SWAP1 DUP4 PUSH20 0xFFFFFFFFFFFFFFFFFFFFFFFFFFFFFFFFFFFFFFFF AND MUL OR SWAP1 SSTORE POP DUP1 PUSH1 0x4 PUSH0 ADD PUSH0 PUSH2 0x100 EXP DUP2 SLOAD DUP2 PUSH20 0xFFFFFFFFFFFFFFFFFFFFFFFFFFFFFFFFFFFFFFFF MUL NOT AND SWAP1 DUP4 PUSH20 0xFFFFFFFFFFFFFFFFFFFFFFFFFFFFFFFFFFFFFFFF AND MUL OR SWAP1 SSTORE POP POP POP JUMP JUMPDEST PUSH1 0x8 PUSH0 SWAP1 SLOAD SWAP1 PUSH2 0x100 EXP SWAP1 DIV PUSH1 0xFF AND DUP2 JUMP JUMPDEST PUSH0 PUSH20 0xFFFFFFFFFFFFFFFFFFFFFFFFFFFFFFFFFFFFFFFF AND PUSH0 DUP1 ADD PUSH0 SWAP1 SLOAD SWAP1 PUSH2 0x100 EXP SWAP1 DIV PUSH20 0xFFFFFFFFFFFFFFFFFFFFFFFFFFFFFFFFFFFFFFFF AND PUSH20 0xFFFFFFFFFFFFFFFFFFFFFFFFFFFFFFFFFFFFFFFF AND EQ ISZERO DUP1 ISZERO PUSH2 0xE23 JUMPI POP PUSH0 PUSH20 0xFFFFFFFFFFFFFFFFFFFFFFFFFFFFFFFFFFFFFFFF AND PUSH1 0x4 PUSH0 ADD PUSH0 SWAP1 SLOAD SWAP1 PUSH2 0x100 EXP SWAP1 DIV PUSH20 0xFFFFFFFFFFFFFFFFFFFFFFFFFFFFFFFFFFFFFFFF AND PUSH20 0xFFFFFFFFFFFFFFFFFFFFFFFFFFFFFFFFFFFFFFFF AND EQ ISZERO JUMPDEST PUSH2 0xE62 JUMPI PUSH1 0x40 MLOAD PUSH32 0x8C379A000000000000000000000000000000000000000000000000000000000 DUP2 MSTORE PUSH1 0x4 ADD PUSH2 0xE59 SWAP1 PUSH2 0x1580 JUMP JUMPDEST PUSH1 0x40 MLOAD DUP1 SWAP2 SUB SWAP1 REVERT JUMPDEST PUSH1 0x8 PUSH0 SWAP1 SLOAD SWAP1 PUSH2 0x100 EXP SWAP1 DIV PUSH1 0xFF AND DUP1 ISZERO PUSH2 0xE89 JUMPI POP PUSH1 0x8 PUSH1 0x1 SWAP1 SLOAD SWAP1 PUSH2 0x100 EXP SWAP1 DIV PUSH1 0xFF AND JUMPDEST PUSH2 0xEC8 JUMPI PUSH1 0x40 MLOAD PUSH32 0x8C379A000000000000000000000000000000000000000000000000000000000 DUP2 MSTORE PUSH1 0x4 ADD PUSH2 0xEBF SWAP1 PUSH2 0x1923 JUMP JUMPDEST PUSH1 0x40 MLOAD DUP1 SWAP2 SUB SWAP1 REVERT JUMPDEST PUSH0 DUP1 PUSH0 ADD PUSH0 SWAP1 SLOAD SWAP1 PUSH2 0x100 EXP SWAP1 DIV PUSH20 0xFFFFFFFFFFFFFFFFFFFFFFFFFFFFFFFFFFFFFFFF AND PUSH20 0xFFFFFFFFFFFFFFFFFFFFFFFFFFFFFFFFFFFFFFFF AND CALLER PUSH20 0xFFFFFFFFFFFFFFFFFFFFFFFFFFFFFFFFFFFFFFFF AND EQ PUSH2 0xF25 JUMPI PUSH1 0x4 PUSH2 0xF27 JUMP JUMPDEST PUSH0 JUMPDEST SWAP1 POP DUP1 PUSH1 0x1 ADD SLOAD DUP4 DUP4 PUSH1 0x40 MLOAD PUSH1 0x20 ADD PUSH2 0xF41 SWAP3 SWAP2 SWAP1 PUSH2 0x184A JUMP JUMPDEST PUSH1 0x40 MLOAD PUSH1 0x20 DUP2 DUP4 SUB SUB DUP2 MSTORE SWAP1 PUSH1 0x40 MSTORE DUP1 MLOAD SWAP1 PUSH1 0x20 ADD KECCAK256 EQ PUSH2 0xF97 JUMPI PUSH1 0x40 MLOAD PUSH32 0x8C379A000000000000000000000000000000000000000000000000000000000 DUP2 MSTORE PUSH1 0x4 ADD PUSH2 0xF8E SWAP1 PUSH2 0x198B JUMP JUMPDEST PUSH1 0x40 MLOAD DUP1 SWAP2 SUB SWAP1 REVERT JUMPDEST DUP3 DUP2 PUSH1 0x2 ADD PUSH0 PUSH2 0x100 EXP DUP2 SLOAD DUP2 PUSH1 0xFF MUL NOT AND SWAP1 DUP4 PUSH1 0x3 DUP2 GT ISZERO PUSH2 0xFBD JUMPI PUSH2 0xFBC PUSH2 0x1226 JUMP JUMPDEST JUMPDEST MUL OR SWAP1 SSTORE POP PUSH0 DUP1 ADD PUSH0 SWAP1 SLOAD SWAP1 PUSH2 0x100 EXP SWAP1 DIV PUSH20 0xFFFFFFFFFFFFFFFFFFFFFFFFFFFFFFFFFFFFFFFF AND PUSH20 0xFFFFFFFFFFFFFFFFFFFFFFFFFFFFFFFFFFFFFFFF AND CALLER PUSH20 0xFFFFFFFFFFFFFFFFFFFFFFFFFFFFFFFFFFFFFFFF AND SUB PUSH2 0x1037 JUMPI PUSH1 0x1 PUSH1 0x8 PUSH1 0x2 PUSH2 0x100 EXP DUP2 SLOAD DUP2 PUSH1 0xFF MUL NOT AND SWAP1 DUP4 ISZERO ISZERO MUL OR SWAP1 SSTORE POP PUSH2 0x1053 JUMP JUMPDEST PUSH1 0x1 PUSH1 0x8 PUSH1 0x3 PUSH2 0x100 EXP DUP2 SLOAD DUP2 PUSH1 0xFF MUL NOT AND SWAP1 DUP4 ISZERO ISZERO MUL OR SWAP1 SSTORE POP JUMPDEST POP POP POP JUMP JUMPDEST PUSH0 DUP1 PUSH0 ADD PUSH0 SWAP1 SLOAD SWAP1 PUSH2 0x100 EXP SWAP1 DIV PUSH20 0xFFFFFFFFFFFFFFFFFFFFFFFFFFFFFFFFFFFFFFFF AND SWAP1 DUP1 PUSH1 0x1 ADD SLOAD SWAP1 DUP1 PUSH1 0x2 ADD PUSH0 SWAP1 SLOAD SWAP1 PUSH2 0x100 EXP SWAP1 DIV PUSH1 0xFF AND SWAP1 DUP1 PUSH1 0x3 ADD SLOAD SWAP1 POP DUP5 JUMP JUMPDEST PUSH1 0x8 PUSH1 0x3 SWAP1 SLOAD SWAP1 PUSH2 0x100 EXP SWAP1 DIV PUSH1 0xFF AND DUP2 JUMP JUMPDEST PUSH0 DUP1 SHL PUSH0 PUSH1 0x1 ADD DUP2 SWAP1 SSTORE POP PUSH0 DUP1 SHL PUSH1 0x4 PUSH1 0x1 ADD DUP2 SWAP1 SSTORE POP PUSH0 DUP1 PUSH1 0x2 ADD PUSH0 PUSH2 0x100 EXP DUP2 SLOAD DUP2 PUSH1 0xFF MUL NOT AND SWAP1 DUP4 PUSH1 0x3 DUP2 GT ISZERO PUSH2 0x10EF JUMPI PUSH2 0x10EE PUSH2 0x1226 JUMP JUMPDEST JUMPDEST MUL OR SWAP1 SSTORE POP PUSH0 PUSH1 0x4 PUSH1 0x2 ADD PUSH0 PUSH2 0x100 EXP DUP2 SLOAD DUP2 PUSH1 0xFF MUL NOT AND SWAP1 DUP4 PUSH1 0x3 DUP2 GT ISZERO PUSH2 0x111B JUMPI PUSH2 0x111A PUSH2 0x1226 JUMP JUMPDEST JUMPDEST MUL OR SWAP1 SSTORE POP PUSH0 DUP1 PUSH1 0x3 ADD DUP2 SWAP1 SSTORE POP PUSH0 PUSH1 0x4 PUSH1 0x3 ADD DUP2 SWAP1 SSTORE POP PUSH0 PUSH1 0x8 PUSH0 PUSH2 0x100 EXP DUP2 SLOAD DUP2 PUSH1 0xFF MUL NOT AND SWAP1 DUP4 ISZERO ISZERO MUL OR SWAP1 SSTORE POP PUSH0 PUSH1 0x8 PUSH1 0x1 PUSH2 0x100 EXP DUP2 SLOAD DUP2 PUSH1 0xFF MUL NOT AND SWAP1 DUP4 ISZERO ISZERO MUL OR SWAP1 SSTORE POP PUSH0 PUSH1 0x8 PUSH1 0x2 PUSH2 0x100 EXP DUP2 SLOAD DUP2 PUSH1 0xFF MUL NOT AND SWAP1 DUP4 ISZERO ISZERO MUL OR SWAP1 SSTORE POP PUSH0 PUSH1 0x8 PUSH1 0x3 PUSH2 0x100 EXP DUP2 SLOAD DUP2 PUSH1 0xFF MUL NOT AND SWAP1 DUP4 ISZERO ISZERO MUL OR SWAP1 SSTORE POP JUMP JUMPDEST PUSH0 DUP2 ISZERO ISZERO SWAP1 POP SWAP2 SWAP1 POP JUMP JUMPDEST PUSH2 0x11B0 DUP2 PUSH2 0x119C JUMP JUMPDEST DUP3 MSTORE POP POP JUMP JUMPDEST PUSH0 PUSH1 0x20 DUP3 ADD SWAP1 POP PUSH2 0x11C9 PUSH0 DUP4 ADD DUP5 PUSH2 0x11A7 JUMP JUMPDEST SWAP3 SWAP2 POP POP JUMP JUMPDEST PUSH0 PUSH20 0xFFFFFFFFFFFFFFFFFFFFFFFFFFFFFFFFFFFFFFFF DUP3 AND SWAP1 POP SWAP2 SWAP1 POP JUMP JUMPDEST PUSH0 PUSH2 0x11F8 DUP3 PUSH2 0x11CF JUMP JUMPDEST SWAP1 POP SWAP2 SWAP1 POP JUMP JUMPDEST PUSH2 0x1208 DUP2 PUSH2 0x11EE JUMP JUMPDEST DUP3 MSTORE POP POP JUMP JUMPDEST PUSH0 DUP2 SWAP1 POP SWAP2 SWAP1 POP JUMP JUMPDEST PUSH2 0x1220 DUP2 PUSH2 0x120E JUMP JUMPDEST DUP3 MSTORE POP POP JUMP JUMPDEST PUSH32 0x4E487B7100000000000000000000000000000000000000000000000000000000 PUSH0 MSTORE PUSH1 0x21 PUSH1 0x4 MSTORE PUSH1 0x24 PUSH0 REVERT JUMPDEST PUSH1 0x4 DUP2 LT PUSH2 0x1264 JUMPI PUSH2 0x1263 PUSH2 0x1226 JUMP JUMPDEST JUMPDEST POP JUMP JUMPDEST PUSH0 DUP2 SWAP1 POP PUSH2 0x1274 DUP3 PUSH2 0x1253 JUMP JUMPDEST SWAP2 SWAP1 POP JUMP JUMPDEST PUSH0 PUSH2 0x1283 DUP3 PUSH2 0x1267 JUMP JUMPDEST SWAP1 POP SWAP2 SWAP1 POP JUMP JUMPDEST PUSH2 0x1293 DUP2 PUSH2 0x1279 JUMP JUMPDEST DUP3 MSTORE POP POP JUMP JUMPDEST PUSH0 DUP2 SWAP1 POP SWAP2 SWAP1 POP JUMP JUMPDEST PUSH2 0x12AB DUP2 PUSH2 0x1299 JUMP JUMPDEST DUP3 MSTORE POP POP JUMP JUMPDEST PUSH0 PUSH1 0x80 DUP3 ADD SWAP1 POP PUSH2 0x12C4 PUSH0 DUP4 ADD DUP8 PUSH2 0x11FF JUMP JUMPDEST PUSH2 0x12D1 PUSH1 0x20 DUP4 ADD DUP7 PUSH2 0x1217 JUMP JUMPDEST PUSH2 0x12DE PUSH1 0x40 DUP4 ADD DUP6 PUSH2 0x128A JUMP JUMPDEST PUSH2 0x12EB PUSH1 0x60 DUP4 ADD DUP5 PUSH2 0x12A2 JUMP JUMPDEST SWAP6 SWAP5 POP POP POP POP POP JUMP JUMPDEST PUSH0 PUSH1 0x40 MLOAD SWAP1 POP SWAP1 JUMP JUMPDEST PUSH0 DUP1 REVERT JUMPDEST PUSH0 DUP1 REVERT JUMPDEST PUSH1 0x4 DUP2 LT PUSH2 0x1311 JUMPI PUSH0 DUP1 REVERT JUMPDEST POP JUMP JUMPDEST PUSH0 DUP2 CALLDATALOAD SWAP1 POP PUSH2 0x1322 DUP2 PUSH2 0x1305 JUMP JUMPDEST SWAP3 SWAP2 POP POP JUMP JUMPDEST PUSH0 DUP1 REVERT JUMPDEST PUSH0 DUP1 REVERT JUMPDEST PUSH0 PUSH1 0x1F NOT PUSH1 0x1F DUP4 ADD AND SWAP1 POP SWAP2 SWAP1 POP JUMP JUMPDEST PUSH32 0x4E487B7100000000000000000000000000000000000000000000000000000000 PUSH0 MSTORE PUSH1 0x41 PUSH1 0x4 MSTORE PUSH1 0x24 PUSH0 REVERT JUMPDEST PUSH2 0x1376 DUP3 PUSH2 0x1330 JUMP JUMPDEST DUP2 ADD DUP2 DUP2 LT PUSH8 0xFFFFFFFFFFFFFFFF DUP3 GT OR ISZERO PUSH2 0x1395 JUMPI PUSH2 0x1394 PUSH2 0x1340 JUMP JUMPDEST JUMPDEST DUP1 PUSH1 0x40 MSTORE POP POP POP JUMP JUMPDEST PUSH0 PUSH2 0x13A7 PUSH2 0x12F4 JUMP JUMPDEST SWAP1 POP PUSH2 0x13B3 DUP3 DUP3 PUSH2 0x136D JUMP JUMPDEST SWAP2 SWAP1 POP JUMP JUMPDEST PUSH0 PUSH8 0xFFFFFFFFFFFFFFFF DUP3 GT ISZERO PUSH2 0x13D2 JUMPI PUSH2 0x13D1 PUSH2 0x1340 JUMP JUMPDEST JUMPDEST PUSH2 0x13DB DUP3 PUSH2 0x1330 JUMP JUMPDEST SWAP1 POP PUSH1 0x20 DUP2 ADD SWAP1 POP SWAP2 SWAP1 POP JUMP JUMPDEST DUP3 DUP2 DUP4 CALLDATACOPY PUSH0 DUP4 DUP4 ADD MSTORE POP POP POP JUMP JUMPDEST PUSH0 PUSH2 0x1408 PUSH2 0x1403 DUP5 PUSH2 0x13B8 JUMP JUMPDEST PUSH2 0x139E JUMP JUMPDEST SWAP1 POP DUP3 DUP2 MSTORE PUSH1 0x20 DUP2 ADD DUP5 DUP5 DUP5 ADD GT ISZERO PUSH2 0x1424 JUMPI PUSH2 0x1423 PUSH2 0x132C JUMP JUMPDEST JUMPDEST PUSH2 0x142F DUP5 DUP3 DUP6 PUSH2 0x13E8 JUMP JUMPDEST POP SWAP4 SWAP3 POP POP POP JUMP JUMPDEST PUSH0 DUP3 PUSH1 0x1F DUP4 ADD SLT PUSH2 0x144B JUMPI PUSH2 0x144A PUSH2 0x1328 JUMP JUMPDEST JUMPDEST DUP2 CALLDATALOAD PUSH2 0x145B DUP5 DUP3 PUSH1 0x20 DUP7 ADD PUSH2 0x13F6 JUMP JUMPDEST SWAP2 POP POP SWAP3 SWAP2 POP POP JUMP JUMPDEST PUSH0 DUP1 PUSH1 0x40 DUP4 DUP6 SUB SLT ISZERO PUSH2 0x147A JUMPI PUSH2 0x1479 PUSH2 0x12FD JUMP JUMPDEST JUMPDEST PUSH0 PUSH2 0x1487 DUP6 DUP3 DUP7 ADD PUSH2 0x1314 JUMP JUMPDEST SWAP3 POP POP PUSH1 0x20 DUP4 ADD CALLDATALOAD PUSH8 0xFFFFFFFFFFFFFFFF DUP2 GT ISZERO PUSH2 0x14A8 JUMPI PUSH2 0x14A7 PUSH2 0x1301 JUMP JUMPDEST JUMPDEST PUSH2 0x14B4 DUP6 DUP3 DUP7 ADD PUSH2 0x1437 JUMP JUMPDEST SWAP2 POP POP SWAP3 POP SWAP3 SWAP1 POP JUMP JUMPDEST PUSH2 0x14C7 DUP2 PUSH2 0x11EE JUMP JUMPDEST DUP2 EQ PUSH2 0x14D1 JUMPI PUSH0 DUP1 REVERT JUMPDEST POP JUMP JUMPDEST PUSH0 DUP2 CALLDATALOAD SWAP1 POP PUSH2 0x14E2 DUP2 PUSH2 0x14BE JUMP JUMPDEST SWAP3 SWAP2 POP POP JUMP JUMPDEST PUSH0 DUP1 PUSH1 0x40 DUP4 DUP6 SUB SLT ISZERO PUSH2 0x14FE JUMPI PUSH2 0x14FD PUSH2 0x12FD JUMP JUMPDEST JUMPDEST PUSH0 PUSH2 0x150B DUP6 DUP3 DUP7 ADD PUSH2 0x14D4 JUMP JUMPDEST SWAP3 POP POP PUSH1 0x20 PUSH2 0x151C DUP6 DUP3 DUP7 ADD PUSH2 0x14D4 JUMP JUMPDEST SWAP2 POP POP SWAP3 POP SWAP3 SWAP1 POP JUMP JUMPDEST PUSH0 DUP3 DUP3 MSTORE PUSH1 0x20 DUP3 ADD SWAP1 POP SWAP3 SWAP2 POP POP JUMP JUMPDEST PUSH32 0x506C6179657273206E6F74207365740000000000000000000000000000000000 PUSH0 DUP3 ADD MSTORE POP JUMP JUMPDEST PUSH0 PUSH2 0x156A PUSH1 0xF DUP4 PUSH2 0x1526 JUMP JUMPDEST SWAP2 POP PUSH2 0x1575 DUP3 PUSH2 0x1536 JUMP JUMPDEST PUSH1 0x20 DUP3 ADD SWAP1 POP SWAP2 SWAP1 POP JUMP JUMPDEST PUSH0 PUSH1 0x20 DUP3 ADD SWAP1 POP DUP2 DUP2 SUB PUSH0 DUP4 ADD MSTORE PUSH2 0x1597 DUP2 PUSH2 0x155E JUMP JUMPDEST SWAP1 POP SWAP2 SWAP1 POP JUMP JUMPDEST PUSH32 0x506C6179657273206D75737420636F6D6D697420616E642072657665616C2062 PUSH0 DUP3 ADD MSTORE PUSH32 0x65666F72652064657465726D696E696E67207468652077696E6E657200000000 PUSH1 0x20 DUP3 ADD MSTORE POP JUMP JUMPDEST PUSH0 PUSH2 0x15F8 PUSH1 0x3C DUP4 PUSH2 0x1526 JUMP JUMPDEST SWAP2 POP PUSH2 0x1603 DUP3 PUSH2 0x159E JUMP JUMPDEST PUSH1 0x40 DUP3 ADD SWAP1 POP SWAP2 SWAP1 POP JUMP JUMPDEST PUSH0 PUSH1 0x20 DUP3 ADD SWAP1 POP DUP2 DUP2 SUB PUSH0 DUP4 ADD MSTORE PUSH2 0x1625 DUP2 PUSH2 0x15EC JUMP JUMPDEST SWAP1 POP SWAP2 SWAP1 POP JUMP JUMPDEST PUSH32 0x4E487B7100000000000000000000000000000000000000000000000000000000 PUSH0 MSTORE PUSH1 0x11 PUSH1 0x4 MSTORE PUSH1 0x24 PUSH0 REVERT JUMPDEST PUSH0 PUSH2 0x1663 DUP3 PUSH2 0x1299 JUMP JUMPDEST SWAP2 POP PUSH2 0x166E DUP4 PUSH2 0x1299 JUMP JUMPDEST SWAP3 POP DUP3 DUP3 ADD SWAP1 POP DUP1 DUP3 GT ISZERO PUSH2 0x1686 JUMPI PUSH2 0x1685 PUSH2 0x162C JUMP JUMPDEST JUMPDEST SWAP3 SWAP2 POP POP JUMP JUMPDEST PUSH32 0x506C6179657220616C726561647920636F6D6D69747465640000000000000000 PUSH0 DUP3 ADD MSTORE POP JUMP JUMPDEST PUSH0 PUSH2 0x16C0 PUSH1 0x18 DUP4 PUSH2 0x1526 JUMP JUMPDEST SWAP2 POP PUSH2 0x16CB DUP3 PUSH2 0x168C JUMP JUMPDEST PUSH1 0x20 DUP3 ADD SWAP1 POP SWAP2 SWAP1 POP JUMP JUMPDEST PUSH0 PUSH1 0x20 DUP3 ADD SWAP1 POP DUP2 DUP2 SUB PUSH0 DUP4 ADD MSTORE PUSH2 0x16ED DUP2 PUSH2 0x16B4 JUMP JUMPDEST SWAP1 POP SWAP2 SWAP1 POP JUMP JUMPDEST PUSH32 0x5761676572206D7573742062652067726561746572207468616E207A65726F00 PUSH0 DUP3 ADD MSTORE POP JUMP JUMPDEST PUSH0 PUSH2 0x1728 PUSH1 0x1F DUP4 PUSH2 0x1526 JUMP JUMPDEST SWAP2 POP PUSH2 0x1733 DUP3 PUSH2 0x16F4 JUMP JUMPDEST PUSH1 0x20 DUP3 ADD SWAP1 POP SWAP2 SWAP1 POP JUMP JUMPDEST PUSH0 PUSH1 0x20 DUP3 ADD SWAP1 POP DUP2 DUP2 SUB PUSH0 DUP4 ADD MSTORE PUSH2 0x1755 DUP2 PUSH2 0x171C JUMP JUMPDEST SWAP1 POP SWAP2 SWAP1 POP JUMP JUMPDEST PUSH32 0x496E76616C69642063686F696365000000000000000000000000000000000000 PUSH0 DUP3 ADD MSTORE POP JUMP JUMPDEST PUSH0 PUSH2 0x1790 PUSH1 0xE DUP4 PUSH2 0x1526 JUMP JUMPDEST SWAP2 POP PUSH2 0x179B DUP3 PUSH2 0x175C JUMP JUMPDEST PUSH1 0x20 DUP3 ADD SWAP1 POP SWAP2 SWAP1 POP JUMP JUMPDEST PUSH0 PUSH1 0x20 DUP3 ADD SWAP1 POP DUP2 DUP2 SUB PUSH0 DUP4 ADD MSTORE PUSH2 0x17BD DUP2 PUSH2 0x1784 JUMP JUMPDEST SWAP1 POP SWAP2 SWAP1 POP JUMP JUMPDEST PUSH0 DUP2 PUSH1 0xF8 SHL SWAP1 POP SWAP2 SWAP1 POP JUMP JUMPDEST PUSH0 PUSH2 0x17DA DUP3 PUSH2 0x17C4 JUMP JUMPDEST SWAP1 POP SWAP2 SWAP1 POP JUMP JUMPDEST PUSH2 0x17F2 PUSH2 0x17ED DUP3 PUSH2 0x1279 JUMP JUMPDEST PUSH2 0x17D0 JUMP JUMPDEST DUP3 MSTORE POP POP JUMP JUMPDEST PUSH0 DUP2 MLOAD SWAP1 POP SWAP2 SWAP1 POP JUMP JUMPDEST PUSH0 DUP2 SWAP1 POP SWAP3 SWAP2 POP POP JUMP JUMPDEST DUP3 DUP2 DUP4 MCOPY PUSH0 DUP4 DUP4 ADD MSTORE POP POP POP JUMP JUMPDEST PUSH0 PUSH2 0x1824 DUP3 PUSH2 0x17F8 JUMP JUMPDEST PUSH2 0x182E DUP2 DUP6 PUSH2 0x1802 JUMP JUMPDEST SWAP4 POP PUSH2 0x183E DUP2 DUP6 PUSH1 0x20 DUP7 ADD PUSH2 0x180C JUMP JUMPDEST DUP1 DUP5 ADD SWAP2 POP POP SWAP3 SWAP2 POP POP JUMP JUMPDEST PUSH0 PUSH2 0x1855 DUP3 DUP6 PUSH2 0x17E1 JUMP JUMPDEST PUSH1 0x1 DUP3 ADD SWAP2 POP PUSH2 0x1865 DUP3 DUP5 PUSH2 0x181A JUMP JUMPDEST SWAP2 POP DUP2 SWAP1 POP SWAP4 SWAP3 POP POP POP JUMP JUMPDEST PUSH32 0x506C617965727320616C72656164792073657400000000000000000000000000 PUSH0 DUP3 ADD MSTORE POP JUMP JUMPDEST PUSH0 PUSH2 0x18A5 PUSH1 0x13 DUP4 PUSH2 0x1526 JUMP JUMPDEST SWAP2 POP PUSH2 0x18B0 DUP3 PUSH2 0x1871 JUMP JUMPDEST PUSH1 0x20 DUP3 ADD SWAP1 POP SWAP2 SWAP1 POP JUMP JUMPDEST PUSH0 PUSH1 0x20 DUP3 ADD SWAP1 POP DUP2 DUP2 SUB PUSH0 DUP4 ADD MSTORE PUSH2 0x18D2 DUP2 PUSH2 0x1899 JUMP JUMPDEST SWAP1 POP SWAP2 SWAP1 POP JUMP JUMPDEST PUSH32 0x426F746820706C6179657273206D75737420636F6D6D69742066697273740000 PUSH0 DUP3 ADD MSTORE POP JUMP JUMPDEST PUSH0 PUSH2 0x190D PUSH1 0x1E DUP4 PUSH2 0x1526 JUMP JUMPDEST SWAP2 POP PUSH2 0x1918 DUP3 PUSH2 0x18D9 JUMP JUMPDEST PUSH1 0x20 DUP3 ADD SWAP1 POP SWAP2 SWAP1 POP JUMP JUMPDEST PUSH0 PUSH1 0x20 DUP3 ADD SWAP1 POP DUP2 DUP2 SUB PUSH0 DUP4 ADD MSTORE PUSH2 0x193A DUP2 PUSH2 0x1901 JUMP JUMPDEST SWAP1 POP SWAP2 SWAP1 POP JUMP JUMPDEST PUSH32 0x496E76616C69642072657665616C210000000000000000000000000000000000 PUSH0 DUP3 ADD MSTORE POP JUMP JUMPDEST PUSH0 PUSH2 0x1975 PUSH1 0xF DUP4 PUSH2 0x1526 JUMP JUMPDEST SWAP2 POP PUSH2 0x1980 DUP3 PUSH2 0x1941 JUMP JUMPDEST PUSH1 0x20 DUP3 ADD SWAP1 POP SWAP2 SWAP1 POP JUMP JUMPDEST PUSH0 PUSH1 0x20 DUP3 ADD SWAP1 POP DUP2 DUP2 SUB PUSH0 DUP4 ADD MSTORE PUSH2 0x19A2 DUP2 PUSH2 0x1969 JUMP JUMPDEST SWAP1 POP SWAP2 SWAP1 POP JUMP INVALID LOG2 PUSH5 0x6970667358 0x22 SLT KECCAK256 CALLDATALOAD SWAP4 CHAINID PUSH9 0xB6C00332B16306F543 0xC8 0xDF MSTORE8 DUP15 0xDC 0xDC 0x1F 0xB6 PUSH29 0x1CACD6E49FFF93BF1FF364736F6C634300081A00330000000000000000 "
				},
				"gasEstimates": {
					"creation": {
						"codeDepositCost": "1324600",
						"executionCost": "98587",
						"totalCost": "1423187"
					},
					"external": {
						"commit(uint8,string)": "infinite",
						"determineWinner()": "infinite",
						"isPlayer1Committed()": "2488",
						"isPlayer1Revealed()": "2518",
						"isPlayer2Committed()": "2606",
						"isPlayer2Revealed()": "2605",
						"player1()": "9348",
						"player2()": "9328",
						"reveal(uint8,string)": "infinite",
						"setPlayers(address,address)": "infinite"
					},
					"internal": {
						"resetGame()": "165891"
					}
				},
				"methodIdentifiers": {
					"commit(uint8,string)": "737af77a",
					"determineWinner()": "33b16d93",
					"isPlayer1Committed()": "c9b21a5c",
					"isPlayer1Revealed()": "0d56fa28",
					"isPlayer2Committed()": "948b530a",
					"isPlayer2Revealed()": "e4deede9",
					"player1()": "d30895e4",
					"player2()": "59a5f12d",
					"reveal(uint8,string)": "ca3ed9e8",
					"setPlayers(address,address)": "adf3ef9f"
				}
			},
			"storageLayout": {
				"storage": [
					{
						"astId": 19,
						"contract": "RockPaperScissors.sol:RockPaperScissors",
						"label": "player1",
						"offset": 0,
						"slot": "0",
						"type": "t_struct(Player)16_storage"
					},
					{
						"astId": 22,
						"contract": "RockPaperScissors.sol:RockPaperScissors",
						"label": "player2",
						"offset": 0,
						"slot": "4",
						"type": "t_struct(Player)16_storage"
					},
					{
						"astId": 25,
						"contract": "RockPaperScissors.sol:RockPaperScissors",
						"label": "isPlayer1Committed",
						"offset": 0,
						"slot": "8",
						"type": "t_bool"
					},
					{
						"astId": 28,
						"contract": "RockPaperScissors.sol:RockPaperScissors",
						"label": "isPlayer2Committed",
						"offset": 1,
						"slot": "8",
						"type": "t_bool"
					},
					{
						"astId": 31,
						"contract": "RockPaperScissors.sol:RockPaperScissors",
						"label": "isPlayer1Revealed",
						"offset": 2,
						"slot": "8",
						"type": "t_bool"
					},
					{
						"astId": 34,
						"contract": "RockPaperScissors.sol:RockPaperScissors",
						"label": "isPlayer2Revealed",
						"offset": 3,
						"slot": "8",
						"type": "t_bool"
					}
				],
				"types": {
					"t_address_payable": {
						"encoding": "inplace",
						"label": "address payable",
						"numberOfBytes": "20"
					},
					"t_bool": {
						"encoding": "inplace",
						"label": "bool",
						"numberOfBytes": "1"
					},
					"t_bytes32": {
						"encoding": "inplace",
						"label": "bytes32",
						"numberOfBytes": "32"
					},
					"t_enum(Choice)6": {
						"encoding": "inplace",
						"label": "enum RockPaperScissors.Choice",
						"numberOfBytes": "1"
					},
					"t_struct(Player)16_storage": {
						"encoding": "inplace",
						"label": "struct RockPaperScissors.Player",
						"members": [
							{
								"astId": 8,
								"contract": "RockPaperScissors.sol:RockPaperScissors",
								"label": "playerAddress",
								"offset": 0,
								"slot": "0",
								"type": "t_address_payable"
							},
							{
								"astId": 10,
								"contract": "RockPaperScissors.sol:RockPaperScissors",
								"label": "commitment",
								"offset": 0,
								"slot": "1",
								"type": "t_bytes32"
							},
							{
								"astId": 13,
								"contract": "RockPaperScissors.sol:RockPaperScissors",
								"label": "choice",
								"offset": 0,
								"slot": "2",
								"type": "t_enum(Choice)6"
							},
							{
								"astId": 15,
								"contract": "RockPaperScissors.sol:RockPaperScissors",
								"label": "wager",
								"offset": 0,
								"slot": "3",
								"type": "t_uint256"
							}
						],
						"numberOfBytes": "128"
					},
					"t_uint256": {
						"encoding": "inplace",
						"label": "uint256",
						"numberOfBytes": "32"
					}
				}
			},
			"userdoc": {
				"kind": "user",
				"methods": {},
				"version": 1
			}
		}
	}
}