{
	"data": {
		"bytecode": {
			"linkReferences": {},
			"object": "60806040525f60085f6101000a81548160ff0219169083151502179055505f600860016101000a81548160ff0219169083151502179055505f600860026101000a81548160ff0219169083151502179055505f600860036101000a81548160ff0219169083151502179055503480156075575f80fd5b506119df806100835f395ff3fe608060405260043610610090575f3560e01c8063adf3ef9f11610058578063adf3ef9f14610147578063c9b21a5c1461016f578063ca3ed9e814610199578063d30895e4146101c1578063e4deede9146101ee57610090565b80630d56fa281461009457806333b16d93146100be57806359a5f12d146100d4578063737af77a14610101578063948b530a1461011d575b5f80fd5b34801561009f575f80fd5b506100a8610218565b6040516100b591906111b6565b60405180910390f35b3480156100c9575f80fd5b506100d261022b565b005b3480156100df575f80fd5b506100e8610756565b6040516100f894939291906112b1565b60405180910390f35b61011b60048036038101906101169190611464565b61079e565b005b348015610128575f80fd5b50610131610be0565b60405161013e91906111b6565b60405180910390f35b348015610152575f80fd5b5061016d600480360381019061016891906114e8565b610bf3565b005b34801561017a575f80fd5b50610183610d64565b60405161019091906111b6565b60405180910390f35b3480156101a4575f80fd5b506101bf60048036038101906101ba9190611464565b610d76565b005b3480156101cc575f80fd5b506101d5611058565b6040516101e594939291906112b1565b60405180910390f35b3480156101f9575f80fd5b5061020261109f565b60405161020f91906111b6565b60405180910390f35b600860029054906101000a900460ff1681565b5f73ffffffffffffffffffffffffffffffffffffffff165f80015f9054906101000a900473ffffffffffffffffffffffffffffffffffffffff1673ffffffffffffffffffffffffffffffffffffffff16141580156102d857505f73ffffffffffffffffffffffffffffffffffffffff1660045f015f9054906101000a900473ffffffffffffffffffffffffffffffffffffffff1673ffffffffffffffffffffffffffffffffffffffff1614155b610317576040517f08c379a000000000000000000000000000000000000000000000000000000000815260040161030e90611580565b60405180910390fd5b60085f9054906101000a900460ff16801561033e5750600860019054906101000a900460ff165b80156103565750600860029054906101000a900460ff165b801561036e5750600860039054906101000a900460ff165b6103ad576040517f08c379a00000000000000000000000000000000000000000000000000000000081526004016103a49061160e565b60405180910390fd5b60046002015f9054906101000a900460ff1660038111156103d1576103d0611226565b5b5f6002015f9054906101000a900460ff1660038111156103f4576103f3611226565b5b036104d4575f80015f9054906101000a900473ffffffffffffffffffffffffffffffffffffffff1673ffffffffffffffffffffffffffffffffffffffff166108fc5f6003015490811502906040515f60405180830381858888f19350505050158015610462573d5f803e3d5ffd5b5060045f015f9054906101000a900473ffffffffffffffffffffffffffffffffffffffff1673ffffffffffffffffffffffffffffffffffffffff166108fc60046003015490811502906040515f60405180830381858888f193505050501580156104ce573d5f803e3d5ffd5b5061074c565b600160038111156104e8576104e7611226565b5b5f6002015f9054906101000a900460ff16600381111561050b5761050a611226565b5b14801561054c575060038081111561052657610525611226565b5b60046002015f9054906101000a900460ff16600381111561054a57610549611226565b5b145b806105cc57506002600381111561056657610565611226565b5b5f6002015f9054906101000a900460ff16600381111561058957610588611226565b5b1480156105cb5750600160038111156105a5576105a4611226565b5b60046002015f9054906101000a900460ff1660038111156105c9576105c8611226565b5b145b5b8061064b57506003808111156105e5576105e4611226565b5b5f6002015f9054906101000a900460ff16600381111561060857610607611226565b5b14801561064a57506002600381111561062457610623611226565b5b60046002015f9054906101000a900460ff16600381111561064857610647611226565b5b145b5b156106cf575f80015f9054906101000a900473ffffffffffffffffffffffffffffffffffffffff1673ffffffffffffffffffffffffffffffffffffffff166108fc6004600301545f600301546106a19190611659565b90811502906040515f60405180830381858888f193505050501580156106c9573d5f803e3d5ffd5b5061074b565b60045f015f9054906101000a900473ffffffffffffffffffffffffffffffffffffffff1673ffffffffffffffffffffffffffffffffffffffff166108fc6004600301545f600301546107219190611659565b90811502906040515f60405180830381858888f19350505050158015610749573d5f803e3d5ffd5b505b5b6107546110b2565b565b6004805f015f9054906101000a900473ffffffffffffffffffffffffffffffffffffffff1690806001015490806002015f9054906101000a900460ff16908060030154905084565b5f73ffffffffffffffffffffffffffffffffffffffff165f80015f9054906101000a900473ffffffffffffffffffffffffffffffffffffffff1673ffffffffffffffffffffffffffffffffffffffff161415801561084b57505f73ffffffffffffffffffffffffffffffffffffffff1660045f015f9054906101000a900473ffffffffffffffffffffffffffffffffffffffff1673ffffffffffffffffffffffffffffffffffffffff1614155b61088a576040517f08c379a000000000000000000000000000000000000000000000000000000000815260040161088190611580565b60405180910390fd5b5f80015f9054906101000a900473ffffffffffffffffffffffffffffffffffffffff1673ffffffffffffffffffffffffffffffffffffffff163373ffffffffffffffffffffffffffffffffffffffff161480156108f2575060085f9054906101000a900460ff165b158015610966575060045f015f9054906101000a900473ffffffffffffffffffffffffffffffffffffffff1673ffffffffffffffffffffffffffffffffffffffff163373ffffffffffffffffffffffffffffffffffffffff161480156109645750600860019054906101000a900460ff165b155b6109a5576040517f08c379a000000000000000000000000000000000000000000000000000000000815260040161099c906116d6565b60405180910390fd5b5f34116109e7576040517f08c379a00000000000000000000000000000000000000000000000000000000081526004016109de9061173e565b60405180910390fd5b600160038111156109fb576109fa611226565b5b826003811115610a0e57610a0d611226565b5b1480610a3e575060026003811115610a2957610a28611226565b5b826003811115610a3c57610a3b611226565b5b145b80610a6c5750600380811115610a5757610a56611226565b5b826003811115610a6a57610a69611226565b5b145b610aab576040517f08c379a0000000000000000000000000000000000000000000000000000000008152600401610aa2906117a6565b60405180910390fd5b5f805f015f9054906101000a900473ffffffffffffffffffffffffffffffffffffffff1673ffffffffffffffffffffffffffffffffffffffff163373ffffffffffffffffffffffffffffffffffffffff1614610b08576004610b0a565b5f5b90505f8383604051602001610b2092919061184a565b6040516020818303038152906040528051906020012090508082600101819055503482600301819055505f80015f9054906101000a900473ffffffffffffffffffffffffffffffffffffffff1673ffffffffffffffffffffffffffffffffffffffff163373ffffffffffffffffffffffffffffffffffffffff1603610bbe57600160085f6101000a81548160ff021916908315150217905550610bda565b6001600860016101000a81548160ff0219169083151502179055505b50505050565b600860019054906101000a900460ff1681565b5f73ffffffffffffffffffffffffffffffffffffffff165f80015f9054906101000a900473ffffffffffffffffffffffffffffffffffffffff1673ffffffffffffffffffffffffffffffffffffffff16148015610c9e57505f73ffffffffffffffffffffffffffffffffffffffff1660045f015f9054906101000a900473ffffffffffffffffffffffffffffffffffffffff1673ffffffffffffffffffffffffffffffffffffffff16145b610cdd576040517f08c379a0000000000000000000000000000000000000000000000000000000008152600401610cd4906118bb565b60405180910390fd5b815f80015f6101000a81548173ffffffffffffffffffffffffffffffffffffffff021916908373ffffffffffffffffffffffffffffffffffffffff1602179055508060045f015f6101000a81548173ffffffffffffffffffffffffffffffffffffffff021916908373ffffffffffffffffffffffffffffffffffffffff1602179055505050565b60085f9054906101000a900460ff1681565b5f73ffffffffffffffffffffffffffffffffffffffff165f80015f9054906101000a900473ffffffffffffffffffffffffffffffffffffffff1673ffffffffffffffffffffffffffffffffffffffff1614158015610e2357505f73ffffffffffffffffffffffffffffffffffffffff1660045f015f9054906101000a900473ffffffffffffffffffffffffffffffffffffffff1673ffffffffffffffffffffffffffffffffffffffff1614155b610e62576040517f08c379a0000000000000000000000000000000000000000000000000000000008152600401610e5990611580565b60405180910390fd5b60085f9054906101000a900460ff168015610e895750600860019054906101000a900460ff165b610ec8576040517f08c379a0000000000000000000000000000000000000000000000000000000008152600401610ebf90611923565b60405180910390fd5b5f805f015f9054906101000a900473ffffffffffffffffffffffffffffffffffffffff1673ffffffffffffffffffffffffffffffffffffffff163373ffffffffffffffffffffffffffffffffffffffff1614610f25576004610f27565b5f5b905080600101548383604051602001610f4192919061184a565b6040516020818303038152906040528051906020012014610f97576040517f08c379a0000000000000000000000000000000000000000000000000000000008152600401610f8e9061198b565b60405180910390fd5b82816002015f6101000a81548160ff02191690836003811115610fbd57610fbc611226565b5b02179055505f80015f9054906101000a900473ffffffffffffffffffffffffffffffffffffffff1673ffffffffffffffffffffffffffffffffffffffff163373ffffffffffffffffffffffffffffffffffffffff1603611037576001600860026101000a81548160ff021916908315150217905550611053565b6001600860036101000a81548160ff0219169083151502179055505b505050565b5f805f015f9054906101000a900473ffffffffffffffffffffffffffffffffffffffff1690806001015490806002015f9054906101000a900460ff16908060030154905084565b600860039054906101000a900460ff1681565b5f801b5f600101819055505f801b6004600101819055505f806002015f6101000a81548160ff021916908360038111156110ef576110ee611226565b5b02179055505f60046002015f6101000a81548160ff0219169083600381111561111b5761111a611226565b5b02179055505f80600301819055505f6004600301819055505f60085f6101000a81548160ff0219169083151502179055505f600860016101000a81548160ff0219169083151502179055505f600860026101000a81548160ff0219169083151502179055505f600860036101000a81548160ff021916908315150217905550565b5f8115159050919050565b6111b08161119c565b82525050565b5f6020820190506111c95f8301846111a7565b92915050565b5f73ffffffffffffffffffffffffffffffffffffffff82169050919050565b5f6111f8826111cf565b9050919050565b611208816111ee565b82525050565b5f819050919050565b6112208161120e565b82525050565b7f4e487b71000000000000000000000000000000000000000000000000000000005f52602160045260245ffd5b6004811061126457611263611226565b5b50565b5f81905061127482611253565b919050565b5f61128382611267565b9050919050565b61129381611279565b82525050565b5f819050919050565b6112ab81611299565b82525050565b5f6080820190506112c45f8301876111ff565b6112d16020830186611217565b6112de604083018561128a565b6112eb60608301846112a2565b95945050505050565b5f604051905090565b5f80fd5b5f80fd5b60048110611311575f80fd5b50565b5f8135905061132281611305565b92915050565b5f80fd5b5f80fd5b5f601f19601f8301169050919050565b7f4e487b71000000000000000000000000000000000000000000000000000000005f52604160045260245ffd5b61137682611330565b810181811067ffffffffffffffff8211171561139557611394611340565b5b80604052505050565b5f6113a76112f4565b90506113b3828261136d565b919050565b5f67ffffffffffffffff8211156113d2576113d1611340565b5b6113db82611330565b9050602081019050919050565b828183375f83830152505050565b5f611408611403846113b8565b61139e565b9050828152602081018484840111156114245761142361132c565b5b61142f8482856113e8565b509392505050565b5f82601f83011261144b5761144a611328565b5b813561145b8482602086016113f6565b91505092915050565b5f806040838503121561147a576114796112fd565b5b5f61148785828601611314565b925050602083013567ffffffffffffffff8111156114a8576114a7611301565b5b6114b485828601611437565b9150509250929050565b6114c7816111ee565b81146114d1575f80fd5b50565b5f813590506114e2816114be565b92915050565b5f80604083850312156114fe576114fd6112fd565b5b5f61150b858286016114d4565b925050602061151c858286016114d4565b9150509250929050565b5f82825260208201905092915050565b7f506c6179657273206e6f742073657400000000000000000000000000000000005f82015250565b5f61156a600f83611526565b915061157582611536565b602082019050919050565b5f6020820190508181035f8301526115978161155e565b9050919050565b7f506c6179657273206d75737420636f6d6d697420616e642072657665616c20625f8201527f65666f72652064657465726d696e696e67207468652077696e6e657200000000602082015250565b5f6115f8603c83611526565b91506116038261159e565b604082019050919050565b5f6020820190508181035f830152611625816115ec565b9050919050565b7f4e487b71000000000000000000000000000000000000000000000000000000005f52601160045260245ffd5b5f61166382611299565b915061166e83611299565b92508282019050808211156116865761168561162c565b5b92915050565b7f506c6179657220616c726561647920636f6d6d697474656400000000000000005f82015250565b5f6116c0601883611526565b91506116cb8261168c565b602082019050919050565b5f6020820190508181035f8301526116ed816116b4565b9050919050565b7f5761676572206d7573742062652067726561746572207468616e207a65726f005f82015250565b5f611728601f83611526565b9150611733826116f4565b602082019050919050565b5f6020820190508181035f8301526117558161171c565b9050919050565b7f496e76616c69642063686f6963650000000000000000000000000000000000005f82015250565b5f611790600e83611526565b915061179b8261175c565b602082019050919050565b5f6020820190508181035f8301526117bd81611784565b9050919050565b5f8160f81b9050919050565b5f6117da826117c4565b9050919050565b6117f26117ed82611279565b6117d0565b82525050565b5f81519050919050565b5f81905092915050565b8281835e5f83830152505050565b5f611824826117f8565b61182e8185611802565b935061183e81856020860161180c565b80840191505092915050565b5f61185582856117e1565b600182019150611865828461181a565b91508190509392505050565b7f506c617965727320616c726561647920736574000000000000000000000000005f82015250565b5f6118a5601383611526565b91506118b082611871565b602082019050919050565b5f6020820190508181035f8301526118d281611899565b9050919050565b7f426f746820706c6179657273206d75737420636f6d6d697420666972737400005f82015250565b5f61190d601e83611526565b9150611918826118d9565b602082019050919050565b5f6020820190508181035f83015261193a81611901565b9050919050565b7f496e76616c69642072657665616c2100000000000000000000000000000000005f82015250565b5f611975600f83611526565b915061198082611941565b602082019050919050565b5f6020820190508181035f8301526119a281611969565b905091905056fea264697066735822122035934668b6c00332b16306f543c8df538edcdc1fb67c1cacd6e49fff93bf1ff364736f6c634300081a0033",
			"opcodes": "PUSH1 0x80 PUSH1 0x40 MSTORE PUSH0 PUSH1 0x8 PUSH0 PUSH2 0x100 EXP DUP2 SLOAD DUP2 PUSH1 0xFF MUL NOT AND SWAP1 DUP4 ISZERO ISZERO MUL OR SWAP1 SSTORE POP PUSH0 PUSH1 0x8 PUSH1 0x1 PUSH2 0x100 EXP DUP2 SLOAD DUP2 PUSH1 0xFF MUL NOT AND SWAP1 DUP4 ISZERO ISZERO MUL OR SWAP1 SSTORE POP PUSH0 PUSH1 0x8 PUSH1 0x2 PUSH2 0x100 EXP DUP2 SLOAD DUP2 PUSH1 0xFF MUL NOT AND SWAP1 DUP4 ISZERO ISZERO MUL OR SWAP1 SSTORE POP PUSH0 PUSH1 0x8 PUSH1 0x3 PUSH2 0x100 EXP DUP2 SLOAD DUP2 PUSH1 0xFF MUL NOT AND SWAP1 DUP4 ISZERO ISZERO MUL OR SWAP1 SSTORE POP CALLVALUE DUP1 ISZERO PUSH1 0x75 JUMPI PUSH0 DUP1 REVERT JUMPDEST POP PUSH2 0x19DF DUP1 PUSH2 0x83 PUSH0 CODECOPY PUSH0 RETURN INVALID PUSH1 0x80 PUSH1 0x40 MSTORE PUSH1 0x4 CALLDATASIZE LT PUSH2 0x90 JUMPI PUSH0 CALLDATALOAD PUSH1 0xE0 SHR DUP1 PUSH4 0xADF3EF9F GT PUSH2 0x58 JUMPI DUP1 PUSH4 0xADF3EF9F EQ PUSH2 0x147 JUMPI DUP1 PUSH4 0xC9B21A5C EQ PUSH2 0x16F JUMPI DUP1 PUSH4 0xCA3ED9E8 EQ PUSH2 0x199 JUMPI DUP1 PUSH4 0xD30895E4 EQ PUSH2 0x1C1 JUMPI DUP1 PUSH4 0xE4DEEDE9 EQ PUSH2 0x1EE JUMPI PUSH2 0x90 JUMP JUMPDEST DUP1 PUSH4 0xD56FA28 EQ PUSH2 0x94 JUMPI DUP1 PUSH4 0x33B16D93 EQ PUSH2 0xBE JUMPI DUP1 PUSH4 0x59A5F12D EQ PUSH2 0xD4 JUMPI DUP1 PUSH4 0x737AF77A EQ PUSH2 0x101 JUMPI DUP1 PUSH4 0x948B530A EQ PUSH2 0x11D JUMPI JUMPDEST PUSH0 DUP1 REVERT JUMPDEST CALLVALUE DUP1 ISZERO PUSH2 0x9F JUMPI PUSH0 DUP1 REVERT JUMPDEST POP PUSH2 0xA8 PUSH2 0x218 JUMP JUMPDEST PUSH1 0x40 MLOAD PUSH2 0xB5 SWAP2 SWAP1 PUSH2 0x11B6 JUMP JUMPDEST PUSH1 0x40 MLOAD DUP1 SWAP2 SUB SWAP1 RETURN JUMPDEST CALLVALUE DUP1 ISZERO PUSH2 0xC9 JUMPI PUSH0 DUP1 REVERT JUMPDEST POP PUSH2 0xD2 PUSH2 0x22B JUMP JUMPDEST STOP JUMPDEST CALLVALUE DUP1 ISZERO PUSH2 0xDF JUMPI PUSH0 DUP1 REVERT JUMPDEST POP PUSH2 0xE8 PUSH2 0x756 JUMP JUMPDEST PUSH1 0x40 MLOAD PUSH2 0xF8 SWAP5 SWAP4 SWAP3 SWAP2 SWAP1 PUSH2 0x12B1 JUMP JUMPDEST PUSH1 0x40 MLOAD DUP1 SWAP2 SUB SWAP1 RETURN JUMPDEST PUSH2 0x11B PUSH1 0x4 DUP1 CALLDATASIZE SUB DUP2 ADD SWAP1 PUSH2 0x116 SWAP2 SWAP1 PUSH2 0x1464 JUMP JUMPDEST PUSH2 0x79E JUMP JUMPDEST STOP JUMPDEST CALLVALUE DUP1 ISZERO PUSH2 0x128 JUMPI PUSH0 DUP1 REVERT JUMPDEST POP PUSH2 0x131 PUSH2 0xBE0 JUMP JUMPDEST PUSH1 0x40 MLOAD PUSH2 0x13E SWAP2 SWAP1 PUSH2 0x11B6 JUMP JUMPDEST PUSH1 0x40 MLOAD DUP1 SWAP2 SUB SWAP1 RETURN JUMPDEST CALLVALUE DUP1 ISZERO PUSH2 0x152 JUMPI PUSH0 DUP1 REVERT JUMPDEST POP PUSH2 0x16D PUSH1 0x4 DUP1 CALLDATASIZE SUB DUP2 ADD SWAP1 PUSH2 0x168 SWAP2 SWAP1 PUSH2 0x14E8 JUMP JUMPDEST PUSH2 0xBF3 JUMP JUMPDEST STOP JUMPDEST CALLVALUE DUP1 ISZERO PUSH2 0x17A JUMPI PUSH0 DUP1 REVERT JUMPDEST POP PUSH2 0x183 PUSH2 0xD64 JUMP JUMPDEST PUSH1 0x40 MLOAD PUSH2 0x190 SWAP2 SWAP1 PUSH2 0x11B6 JUMP JUMPDEST PUSH1 0x40 MLOAD DUP1 SWAP2 SUB SWAP1 RETURN JUMPDEST CALLVALUE DUP1 ISZERO PUSH2 0x1A4 JUMPI PUSH0 DUP1 REVERT JUMPDEST POP PUSH2 0x1BF PUSH1 0x4 DUP1 CALLDATASIZE SUB DUP2 ADD SWAP1 PUSH2 0x1BA SWAP2 SWAP1 PUSH2 0x1464 JUMP JUMPDEST PUSH2 0xD76 JUMP JUMPDEST STOP JUMPDEST CALLVALUE DUP1 ISZERO PUSH2 0x1CC JUMPI PUSH0 DUP1 REVERT JUMPDEST POP PUSH2 0x1D5 PUSH2 0x1058 JUMP JUMPDEST PUSH1 0x40 MLOAD PUSH2 0x1E5 SWAP5 SWAP4 SWAP3 SWAP2 SWAP1 PUSH2 0x12B1 JUMP JUMPDEST PUSH1 0x40 MLOAD DUP1 SWAP2 SUB SWAP1 RETURN JUMPDEST CALLVALUE DUP1 ISZERO PUSH2 0x1F9 JUMPI PUSH0 DUP1 REVERT JUMPDEST POP PUSH2 0x202 PUSH2 0x109F JUMP JUMPDEST PUSH1 0x40 MLOAD PUSH2 0x20F SWAP2 SWAP1 PUSH2 0x11B6 JUMP JUMPDEST PUSH1 0x40 MLOAD DUP1 SWAP2 SUB SWAP1 RETURN JUMPDEST PUSH1 0x8 PUSH1 0x2 SWAP1 SLOAD SWAP1 PUSH2 0x100 EXP SWAP1 DIV PUSH1 0xFF AND DUP2 JUMP JUMPDEST PUSH0 PUSH20 0xFFFFFFFFFFFFFFFFFFFFFFFFFFFFFFFFFFFFFFFF AND PUSH0 DUP1 ADD PUSH0 SWAP1 SLOAD SWAP1 PUSH2 0x100 EXP SWAP1 DIV PUSH20 0xFFFFFFFFFFFFFFFFFFFFFFFFFFFFFFFFFFFFFFFF AND PUSH20 0xFFFFFFFFFFFFFFFFFFFFFFFFFFFFFFFFFFFFFFFF AND EQ ISZERO DUP1 ISZERO PUSH2 0x2D8 JUMPI POP PUSH0 PUSH20 0xFFFFFFFFFFFFFFFFFFFFFFFFFFFFFFFFFFFFFFFF AND PUSH1 0x4 PUSH0 ADD PUSH0 SWAP1 SLOAD SWAP1 PUSH2 0x100 EXP SWAP1 DIV PUSH20 0xFFFFFFFFFFFFFFFFFFFFFFFFFFFFFFFFFFFFFFFF AND PUSH20 0xFFFFFFFFFFFFFFFFFFFFFFFFFFFFFFFFFFFFFFFF AND EQ ISZERO JUMPDEST PUSH2 0x317 JUMPI PUSH1 0x40 MLOAD PUSH32 0x8C379A000000000000000000000000000000000000000000000000000000000 DUP2 MSTORE PUSH1 0x4 ADD PUSH2 0x30E SWAP1 PUSH2 0x1580 JUMP JUMPDEST PUSH1 0x40 MLOAD DUP1 SWAP2 SUB SWAP1 REVERT JUMPDEST PUSH1 0x8 PUSH0 SWAP1 SLOAD SWAP1 PUSH2 0x100 EXP SWAP1 DIV PUSH1 0xFF AND DUP1 ISZERO PUSH2 0x33E JUMPI POP PUSH1 0x8 PUSH1 0x1 SWAP1 SLOAD SWAP1 PUSH2 0x100 EXP SWAP1 DIV PUSH1 0xFF AND JUMPDEST DUP1 ISZERO PUSH2 0x356 JUMPI POP PUSH1 0x8 PUSH1 0x2 SWAP1 SLOAD SWAP1 PUSH2 0x100 EXP SWAP1 DIV PUSH1 0xFF AND JUMPDEST DUP1 ISZERO PUSH2 0x36E JUMPI POP PUSH1 0x8 PUSH1 0x3 SWAP1 SLOAD SWAP1 PUSH2 0x100 EXP SWAP1 DIV PUSH1 0xFF AND JUMPDEST PUSH2 0x3AD JUMPI PUSH1 0x40 MLOAD PUSH32 0x8C379A000000000000000000000000000000000000000000000000000000000 DUP2 MSTORE PUSH1 0x4 ADD PUSH2 0x3A4 SWAP1 PUSH2 0x160E JUMP JUMPDEST PUSH1 0x40 MLOAD DUP1 SWAP2 SUB SWAP1 REVERT JUMPDEST PUSH1 0x4 PUSH1 0x2 ADD PUSH0 SWAP1 SLOAD SWAP1 PUSH2 0x100 EXP SWAP1 DIV PUSH1 0xFF AND PUSH1 0x3 DUP2 GT ISZERO PUSH2 0x3D1 JUMPI PUSH2 0x3D0 PUSH2 0x1226 JUMP JUMPDEST JUMPDEST PUSH0 PUSH1 0x2 ADD PUSH0 SWAP1 SLOAD SWAP1 PUSH2 0x100 EXP SWAP1 DIV PUSH1 0xFF AND PUSH1 0x3 DUP2 GT ISZERO PUSH2 0x3F4 JUMPI PUSH2 0x3F3 PUSH2 0x1226 JUMP JUMPDEST JUMPDEST SUB PUSH2 0x4D4 JUMPI PUSH0 DUP1 ADD PUSH0 SWAP1 SLOAD SWAP1 PUSH2 0x100 EXP SWAP1 DIV PUSH20 0xFFFFFFFFFFFFFFFFFFFFFFFFFFFFFFFFFFFFFFFF AND PUSH20 0xFFFFFFFFFFFFFFFFFFFFFFFFFFFFFFFFFFFFFFFF AND PUSH2 0x8FC PUSH0 PUSH1 0x3 ADD SLOAD SWAP1 DUP2 ISZERO MUL SWAP1 PUSH1 0x40 MLOAD PUSH0 PUSH1 0x40 MLOAD DUP1 DUP4 SUB DUP2 DUP6 DUP9 DUP9 CALL SWAP4 POP POP POP POP ISZERO DUP1 ISZERO PUSH2 0x462 JUMPI RETURNDATASIZE PUSH0 DUP1 RETURNDATACOPY RETURNDATASIZE PUSH0 REVERT JUMPDEST POP PUSH1 0x4 PUSH0 ADD PUSH0 SWAP1 SLOAD SWAP1 PUSH2 0x100 EXP SWAP1 DIV PUSH20 0xFFFFFFFFFFFFFFFFFFFFFFFFFFFFFFFFFFFFFFFF AND PUSH20 0xFFFFFFFFFFFFFFFFFFFFFFFFFFFFFFFFFFFFFFFF AND PUSH2 0x8FC PUSH1 0x4 PUSH1 0x3 ADD SLOAD SWAP1 DUP2 ISZERO MUL SWAP1 PUSH1 0x40 MLOAD PUSH0 PUSH1 0x40 MLOAD DUP1 DUP4 SUB DUP2 DUP6 DUP9 DUP9 CALL SWAP4 POP POP POP POP ISZERO DUP1 ISZERO PUSH2 0x4CE JUMPI RETURNDATASIZE PUSH0 DUP1 RETURNDATACOPY RETURNDATASIZE PUSH0 REVERT JUMPDEST POP PUSH2 0x74C JUMP JUMPDEST PUSH1 0x1 PUSH1 0x3 DUP2 GT ISZERO PUSH2 0x4E8 JUMPI PUSH2 0x4E7 PUSH2 0x1226 JUMP JUMPDEST JUMPDEST PUSH0 PUSH1 0x2 ADD PUSH0 SWAP1 SLOAD SWAP1 PUSH2 0x100 EXP SWAP1 DIV PUSH1 0xFF AND PUSH1 0x3 DUP2 GT ISZERO PUSH2 0x50B JUMPI PUSH2 0x50A PUSH2 0x1226 JUMP JUMPDEST JUMPDEST EQ DUP1 ISZERO PUSH2 0x54C JUMPI POP PUSH1 0x3 DUP1 DUP2 GT ISZERO PUSH2 0x526 JUMPI PUSH2 0x525 PUSH2 0x1226 JUMP JUMPDEST JUMPDEST PUSH1 0x4 PUSH1 0x2 ADD PUSH0 SWAP1 SLOAD SWAP1 PUSH2 0x100 EXP SWAP1 DIV PUSH1 0xFF AND PUSH1 0x3 DUP2 GT ISZERO PUSH2 0x54A JUMPI PUSH2 0x549 PUSH2 0x1226 JUMP JUMPDEST JUMPDEST EQ JUMPDEST DUP1 PUSH2 0x5CC JUMPI POP PUSH1 0x2 PUSH1 0x3 DUP2 GT ISZERO PUSH2 0x566 JUMPI PUSH2 0x565 PUSH2 0x1226 JUMP JUMPDEST JUMPDEST PUSH0 PUSH1 0x2 ADD PUSH0 SWAP1 SLOAD SWAP1 PUSH2 0x100 EXP SWAP1 DIV PUSH1 0xFF AND PUSH1 0x3 DUP2 GT ISZERO PUSH2 0x589 JUMPI PUSH2 0x588 PUSH2 0x1226 JUMP JUMPDEST JUMPDEST EQ DUP1 ISZERO PUSH2 0x5CB JUMPI POP PUSH1 0x1 PUSH1 0x3 DUP2 GT ISZERO PUSH2 0x5A5 JUMPI PUSH2 0x5A4 PUSH2 0x1226 JUMP JUMPDEST JUMPDEST PUSH1 0x4 PUSH1 0x2 ADD PUSH0 SWAP1 SLOAD SWAP1 PUSH2 0x100 EXP SWAP1 DIV PUSH1 0xFF AND PUSH1 0x3 DUP2 GT ISZERO PUSH2 0x5C9 JUMPI PUSH2 0x5C8 PUSH2 0x1226 JUMP JUMPDEST JUMPDEST EQ JUMPDEST JUMPDEST DUP1 PUSH2 0x64B JUMPI POP PUSH1 0x3 DUP1 DUP2 GT ISZERO PUSH2 0x5E5 JUMPI PUSH2 0x5E4 PUSH2 0x1226 JUMP JUMPDEST JUMPDEST PUSH0 PUSH1 0x2 ADD PUSH0 SWAP1 SLOAD SWAP1 PUSH2 0x100 EXP SWAP1 DIV PUSH1 0xFF AND PUSH1 0x3 DUP2 GT ISZERO PUSH2 0x608 JUMPI PUSH2 0x607 PUSH2 0x1226 JUMP JUMPDEST JUMPDEST EQ DUP1 ISZERO PUSH2 0x64A JUMPI POP PUSH1 0x2 PUSH1 0x3 DUP2 GT ISZERO PUSH2 0x624 JUMPI PUSH2 0x623 PUSH2 0x1226 JUMP JUMPDEST JUMPDEST PUSH1 0x4 PUSH1 0x2 ADD PUSH0 SWAP1 SLOAD SWAP1 PUSH2 0x100 EXP SWAP1 DIV PUSH1 0xFF AND PUSH1 0x3 DUP2 GT ISZERO PUSH2 0x648 JUMPI PUSH2 0x647 PUSH2 0x1226 JUMP JUMPDEST JUMPDEST EQ JUMPDEST JUMPDEST ISZERO PUSH2 0x6CF JUMPI PUSH0 DUP1 ADD PUSH0 SWAP1 SLOAD SWAP1 PUSH2 0x100 EXP SWAP1 DIV PUSH20 0xFFFFFFFFFFFFFFFFFFFFFFFFFFFFFFFFFFFFFFFF AND PUSH20 0xFFFFFFFFFFFFFFFFFFFFFFFFFFFFFFFFFFFFFFFF AND PUSH2 0x8FC PUSH1 0x4 PUSH1 0x3 ADD SLOAD PUSH0 PUSH1 0x3 ADD SLOAD PUSH2 0x6A1 SWAP2 SWAP1 PUSH2 0x1659 JUMP JUMPDEST SWAP1 DUP2 ISZERO MUL SWAP1 PUSH1 0x40 MLOAD PUSH0 PUSH1 0x40 MLOAD DUP1 DUP4 SUB DUP2 DUP6 DUP9 DUP9 CALL SWAP4 POP POP POP POP ISZERO DUP1 ISZERO PUSH2 0x6C9 JUMPI RETURNDATASIZE PUSH0 DUP1 RETURNDATACOPY RETURNDATASIZE PUSH0 REVERT JUMPDEST POP PUSH2 0x74B JUMP JUMPDEST PUSH1 0x4 PUSH0 ADD PUSH0 SWAP1 SLOAD SWAP1 PUSH2 0x100 EXP SWAP1 DIV PUSH20 0xFFFFFFFFFFFFFFFFFFFFFFFFFFFFFFFFFFFFFFFF AND PUSH20 0xFFFFFFFFFFFFFFFFFFFFFFFFFFFFFFFFFFFFFFFF AND PUSH2 0x8FC PUSH1 0x4 PUSH1 0x3 ADD SLOAD PUSH0 PUSH1 0x3 ADD SLOAD PUSH2 0x721 SWAP2 SWAP1 PUSH2 0x1659 JUMP JUMPDEST SWAP1 DUP2 ISZERO MUL SWAP1 PUSH1 0x40 MLOAD PUSH0 PUSH1 0x40 MLOAD DUP1 DUP4 SUB DUP2 DUP6 DUP9 DUP9 CALL SWAP4 POP POP POP POP ISZERO DUP1 ISZERO PUSH2 0x749 JUMPI RETURNDATASIZE PUSH0 DUP1 RETURNDATACOPY RETURNDATASIZE PUSH0 REVERT JUMPDEST POP JUMPDEST JUMPDEST PUSH2 0x754 PUSH2 0x10B2 JUMP JUMPDEST JUMP JUMPDEST PUSH1 0x4 DUP1 PUSH0 ADD PUSH0 SWAP1 SLOAD SWAP1 PUSH2 0x100 EXP SWAP1 DIV PUSH20 0xFFFFFFFFFFFFFFFFFFFFFFFFFFFFFFFFFFFFFFFF AND SWAP1 DUP1 PUSH1 0x1 ADD SLOAD SWAP1 DUP1 PUSH1 0x2 ADD PUSH0 SWAP1 SLOAD SWAP1 PUSH2 0x100 EXP SWAP1 DIV PUSH1 0xFF AND SWAP1 DUP1 PUSH1 0x3 ADD SLOAD SWAP1 POP DUP5 JUMP JUMPDEST PUSH0 PUSH20 0xFFFFFFFFFFFFFFFFFFFFFFFFFFFFFFFFFFFFFFFF AND PUSH0 DUP1 ADD PUSH0 SWAP1 SLOAD SWAP1 PUSH2 0x100 EXP SWAP1 DIV PUSH20 0xFFFFFFFFFFFFFFFFFFFFFFFFFFFFFFFFFFFFFFFF AND PUSH20 0xFFFFFFFFFFFFFFFFFFFFFFFFFFFFFFFFFFFFFFFF AND EQ ISZERO DUP1 ISZERO PUSH2 0x84B JUMPI POP PUSH0 PUSH20 0xFFFFFFFFFFFFFFFFFFFFFFFFFFFFFFFFFFFFFFFF AND PUSH1 0x4 PUSH0 ADD PUSH0 SWAP1 SLOAD SWAP1 PUSH2 0x100 EXP SWAP1 DIV PUSH20 0xFFFFFFFFFFFFFFFFFFFFFFFFFFFFFFFFFFFFFFFF AND PUSH20 0xFFFFFFFFFFFFFFFFFFFFFFFFFFFFFFFFFFFFFFFF AND EQ ISZERO JUMPDEST PUSH2 0x88A JUMPI PUSH1 0x40 MLOAD PUSH32 0x8C379A000000000000000000000000000000000000000000000000000000000 DUP2 MSTORE PUSH1 0x4 ADD PUSH2 0x881 SWAP1 PUSH2 0x1580 JUMP JUMPDEST PUSH1 0x40 MLOAD DUP1 SWAP2 SUB SWAP1 REVERT JUMPDEST PUSH0 DUP1 ADD PUSH0 SWAP1 SLOAD SWAP1 PUSH2 0x100 EXP SWAP1 DIV PUSH20 0xFFFFFFFFFFFFFFFFFFFFFFFFFFFFFFFFFFFFFFFF AND PUSH20 0xFFFFFFFFFFFFFFFFFFFFFFFFFFFFFFFFFFFFFFFF AND CALLER PUSH20 0xFFFFFFFFFFFFFFFFFFFFFFFFFFFFFFFFFFFFFFFF AND EQ DUP1 ISZERO PUSH2 0x8F2 JUMPI POP PUSH1 0x8 PUSH0 SWAP1 SLOAD SWAP1 PUSH2 0x100 EXP SWAP1 DIV PUSH1 0xFF AND JUMPDEST ISZERO DUP1 ISZERO PUSH2 0x966 JUMPI POP PUSH1 0x4 PUSH0 ADD PUSH0 SWAP1 SLOAD SWAP1 PUSH2 0x100 EXP SWAP1 DIV PUSH20 0xFFFFFFFFFFFFFFFFFFFFFFFFFFFFFFFFFFFFFFFF AND PUSH20 0xFFFFFFFFFFFFFFFFFFFFFFFFFFFFFFFFFFFFFFFF AND CALLER PUSH20 0xFFFFFFFFFFFFFFFFFFFFFFFFFFFFFFFFFFFFFFFF AND EQ DUP1 ISZERO PUSH2 0x964 JUMPI POP PUSH1 0x8 PUSH1 0x1 SWAP1 SLOAD SWAP1 PUSH2 0x100 EXP SWAP1 DIV PUSH1 0xFF AND JUMPDEST ISZERO JUMPDEST PUSH2 0x9A5 JUMPI PUSH1 0x40 MLOAD PUSH32 0x8C379A000000000000000000000000000000000000000000000000000000000 DUP2 MSTORE PUSH1 0x4 ADD PUSH2 0x99C SWAP1 PUSH2 0x16D6 JUMP JUMPDEST PUSH1 0x40 MLOAD DUP1 SWAP2 SUB SWAP1 REVERT JUMPDEST PUSH0 CALLVALUE GT PUSH2 0x9E7 JUMPI PUSH1 0x40 MLOAD PUSH32 0x8C379A000000000000000000000000000000000000000000000000000000000 DUP2 MSTORE PUSH1 0x4 ADD PUSH2 0x9DE SWAP1 PUSH2 0x173E JUMP JUMPDEST PUSH1 0x40 MLOAD DUP1 SWAP2 SUB SWAP1 REVERT JUMPDEST PUSH1 0x1 PUSH1 0x3 DUP2 GT ISZERO PUSH2 0x9FB JUMPI PUSH2 0x9FA PUSH2 0x1226 JUMP JUMPDEST JUMPDEST DUP3 PUSH1 0x3 DUP2 GT ISZERO PUSH2 0xA0E JUMPI PUSH2 0xA0D PUSH2 0x1226 JUMP JUMPDEST JUMPDEST EQ DUP1 PUSH2 0xA3E JUMPI POP PUSH1 0x2 PUSH1 0x3 DUP2 GT ISZERO PUSH2 0xA29 JUMPI PUSH2 0xA28 PUSH2 0x1226 JUMP JUMPDEST JUMPDEST DUP3 PUSH1 0x3 DUP2 GT ISZERO PUSH2 0xA3C JUMPI PUSH2 0xA3B PUSH2 0x1226 JUMP JUMPDEST JUMPDEST EQ JUMPDEST DUP1 PUSH2 0xA6C JUMPI POP PUSH1 0x3 DUP1 DUP2 GT ISZERO PUSH2 0xA57 JUMPI PUSH2 0xA56 PUSH2 0x1226 JUMP JUMPDEST JUMPDEST DUP3 PUSH1 0x3 DUP2 GT ISZERO PUSH2 0xA6A JUMPI PUSH2 0xA69 PUSH2 0x1226 JUMP JUMPDEST JUMPDEST EQ JUMPDEST PUSH2 0xAAB JUMPI PUSH1 0x40 MLOAD PUSH32 0x8C379A000000000000000000000000000000000000000000000000000000000 DUP2 MSTORE PUSH1 0x4 ADD PUSH2 0xAA2 SWAP1 PUSH2 0x17A6 JUMP JUMPDEST PUSH1 0x40 MLOAD DUP1 SWAP2 SUB SWAP1 REVERT JUMPDEST PUSH0 DUP1 PUSH0 ADD PUSH0 SWAP1 SLOAD SWAP1 PUSH2 0x100 EXP SWAP1 DIV PUSH20 0xFFFFFFFFFFFFFFFFFFFFFFFFFFFFFFFFFFFFFFFF AND PUSH20 0xFFFFFFFFFFFFFFFFFFFFFFFFFFFFFFFFFFFFFFFF AND CALLER PUSH20 0xFFFFFFFFFFFFFFFFFFFFFFFFFFFFFFFFFFFFFFFF AND EQ PUSH2 0xB08 JUMPI PUSH1 0x4 PUSH2 0xB0A JUMP JUMPDEST PUSH0 JUMPDEST SWAP1 POP PUSH0 DUP4 DUP4 PUSH1 0x40 MLOAD PUSH1 0x20 ADD PUSH2 0xB20 SWAP3 SWAP2 SWAP1 PUSH2 0x184A JUMP JUMPDEST PUSH1 0x40 MLOAD PUSH1 0x20 DUP2 DUP4 SUB SUB DUP2 MSTORE SWAP1 PUSH1 0x40 MSTORE DUP1 MLOAD SWAP1 PUSH1 0x20 ADD KECCAK256 SWAP1 POP DUP1 DUP3 PUSH1 0x1 ADD DUP2 SWAP1 SSTORE POP CALLVALUE DUP3 PUSH1 0x3 ADD DUP2 SWAP1 SSTORE POP PUSH0 DUP1 ADD PUSH0 SWAP1 SLOAD SWAP1 PUSH2 0x100 EXP SWAP1 DIV PUSH20 0xFFFFFFFFFFFFFFFFFFFFFFFFFFFFFFFFFFFFFFFF AND PUSH20 0xFFFFFFFFFFFFFFFFFFFFFFFFFFFFFFFFFFFFFFFF AND CALLER PUSH20 0xFFFFFFFFFFFFFFFFFFFFFFFFFFFFFFFFFFFFFFFF AND SUB PUSH2 0xBBE JUMPI PUSH1 0x1 PUSH1 0x8 PUSH0 PUSH2 0x100 EXP DUP2 SLOAD DUP2 PUSH1 0xFF MUL NOT AND SWAP1 DUP4 ISZERO ISZERO MUL OR SWAP1 SSTORE POP PUSH2 0xBDA JUMP JUMPDEST PUSH1 0x1 PUSH1 0x8 PUSH1 0x1 PUSH2 0x100 EXP DUP2 SLOAD DUP2 PUSH1 0xFF MUL NOT AND SWAP1 DUP4 ISZERO ISZERO MUL OR SWAP1 SSTORE POP JUMPDEST POP POP POP POP JUMP JUMPDEST PUSH1 0x8 PUSH1 0x1 SWAP1 SLOAD SWAP1 PUSH2 0x100 EXP SWAP1 DIV PUSH1 0xFF AND DUP2 JUMP JUMPDEST PUSH0 PUSH20 0xFFFFFFFFFFFFFFFFFFFFFFFFFFFFFFFFFFFFFFFF AND PUSH0 DUP1 ADD PUSH0 SWAP1 SLOAD SWAP1 PUSH2 0x100 EXP SWAP1 DIV PUSH20 0xFFFFFFFFFFFFFFFFFFFFFFFFFFFFFFFFFFFFFFFF AND PUSH20 0xFFFFFFFFFFFFFFFFFFFFFFFFFFFFFFFFFFFFFFFF AND EQ DUP1 ISZERO PUSH2 0xC9E JUMPI POP PUSH0 PUSH20 0xFFFFFFFFFFFFFFFFFFFFFFFFFFFFFFFFFFFFFFFF AND PUSH1 0x4 PUSH0 ADD PUSH0 SWAP1 SLOAD SWAP1 PUSH2 0x100 EXP SWAP1 DIV PUSH20 0xFFFFFFFFFFFFFFFFFFFFFFFFFFFFFFFFFFFFFFFF AND PUSH20 0xFFFFFFFFFFFFFFFFFFFFFFFFFFFFFFFFFFFFFFFF AND EQ JUMPDEST PUSH2 0xCDD JUMPI PUSH1 0x40 MLOAD PUSH32 0x8C379A000000000000000000000000000000000000000000000000000000000 DUP2 MSTORE PUSH1 0x4 ADD PUSH2 0xCD4 SWAP1 PUSH2 0x18BB JUMP JUMPDEST PUSH1 0x40 MLOAD DUP1 SWAP2 SUB SWAP1 REVERT JUMPDEST DUP2 PUSH0 DUP1 ADD PUSH0 PUSH2 0x100 EXP DUP2 SLOAD DUP2 PUSH20 0xFFFFFFFFFFFFFFFFFFFFFFFFFFFFFFFFFFFFFFFF MUL NOT AND SWAP1 DUP4 PUSH20 0xFFFFFFFFFFFFFFFFFFFFFFFFFFFFFFFFFFFFFFFF AND MUL OR SWAP1 SSTORE POP DUP1 PUSH1 0x4 PUSH0 ADD PUSH0 PUSH2 0x100 EXP DUP2 SLOAD DUP2 PUSH20 0xFFFFFFFFFFFFFFFFFFFFFFFFFFFFFFFFFFFFFFFF MUL NOT AND SWAP1 DUP4 PUSH20 0xFFFFFFFFFFFFFFFFFFFFFFFFFFFFFFFFFFFFFFFF AND MUL OR SWAP1 SSTORE POP POP POP JUMP JUMPDEST PUSH1 0x8 PUSH0 SWAP1 SLOAD SWAP1 PUSH2 0x100 EXP SWAP1 DIV PUSH1 0xFF AND DUP2 JUMP JUMPDEST PUSH0 PUSH20 0xFFFFFFFFFFFFFFFFFFFFFFFFFFFFFFFFFFFFFFFF AND PUSH0 DUP1 ADD PUSH0 SWAP1 SLOAD SWAP1 PUSH2 0x100 EXP SWAP1 DIV PUSH20 0xFFFFFFFFFFFFFFFFFFFFFFFFFFFFFFFFFFFFFFFF AND PUSH20 0xFFFFFFFFFFFFFFFFFFFFFFFFFFFFFFFFFFFFFFFF AND EQ ISZERO DUP1 ISZERO PUSH2 0xE23 JUMPI POP PUSH0 PUSH20 0xFFFFFFFFFFFFFFFFFFFFFFFFFFFFFFFFFFFFFFFF AND PUSH1 0x4 PUSH0 ADD PUSH0 SWAP1 SLOAD SWAP1 PUSH2 0x100 EXP SWAP1 DIV PUSH20 0xFFFFFFFFFFFFFFFFFFFFFFFFFFFFFFFFFFFFFFFF AND PUSH20 0xFFFFFFFFFFFFFFFFFFFFFFFFFFFFFFFFFFFFFFFF AND EQ ISZERO JUMPDEST PUSH2 0xE62 JUMPI PUSH1 0x40 MLOAD PUSH32 0x8C379A000000000000000000000000000000000000000000000000000000000 DUP2 MSTORE PUSH1 0x4 ADD PUSH2 0xE59 SWAP1 PUSH2 0x1580 JUMP JUMPDEST PUSH1 0x40 MLOAD DUP1 SWAP2 SUB SWAP1 REVERT JUMPDEST PUSH1 0x8 PUSH0 SWAP1 SLOAD SWAP1 PUSH2 0x100 EXP SWAP1 DIV PUSH1 0xFF AND DUP1 ISZERO PUSH2 0xE89 JUMPI POP PUSH1 0x8 PUSH1 0x1 SWAP1 SLOAD SWAP1 PUSH2 0x100 EXP SWAP1 DIV PUSH1 0xFF AND JUMPDEST PUSH2 0xEC8 JUMPI PUSH1 0x40 MLOAD PUSH32 0x8C379A000000000000000000000000000000000000000000000000000000000 DUP2 MSTORE PUSH1 0x4 ADD PUSH2 0xEBF SWAP1 PUSH2 0x1923 JUMP JUMPDEST PUSH1 0x40 MLOAD DUP1 SWAP2 SUB SWAP1 REVERT JUMPDEST PUSH0 DUP1 PUSH0 ADD PUSH0 SWAP1 SLOAD SWAP1 PUSH2 0x100 EXP SWAP1 DIV PUSH20 0xFFFFFFFFFFFFFFFFFFFFFFFFFFFFFFFFFFFFFFFF AND PUSH20 0xFFFFFFFFFFFFFFFFFFFFFFFFFFFFFFFFFFFFFFFF AND CALLER PUSH20 0xFFFFFFFFFFFFFFFFFFFFFFFFFFFFFFFFFFFFFFFF AND EQ PUSH2 0xF25 JUMPI PUSH1 0x4 PUSH2 0xF27 JUMP JUMPDEST PUSH0 JUMPDEST SWAP1 POP DUP1 PUSH1 0x1 ADD SLOAD DUP4 DUP4 PUSH1 0x40 MLOAD PUSH1 0x20 ADD PUSH2 0xF41 SWAP3 SWAP2 SWAP1 PUSH2 0x184A JUMP JUMPDEST PUSH1 0x40 MLOAD PUSH1 0x20 DUP2 DUP4 SUB SUB DUP2 MSTORE SWAP1 PUSH1 0x40 MSTORE DUP1 MLOAD SWAP1 PUSH1 0x20 ADD KECCAK256 EQ PUSH2 0xF97 JUMPI PUSH1 0x40 MLOAD PUSH32 0x8C379A000000000000000000000000000000000000000000000000000000000 DUP2 MSTORE PUSH1 0x4 ADD PUSH2 0xF8E SWAP1 PUSH2 0x198B JUMP JUMPDEST PUSH1 0x40 MLOAD DUP1 SWAP2 SUB SWAP1 REVERT JUMPDEST DUP3 DUP2 PUSH1 0x2 ADD PUSH0 PUSH2 0x100 EXP DUP2 SLOAD DUP2 PUSH1 0xFF MUL NOT AND SWAP1 DUP4 PUSH1 0x3 DUP2 GT ISZERO PUSH2 0xFBD JUMPI PUSH2 0xFBC PUSH2 0x1226 JUMP JUMPDEST JUMPDEST MUL OR SWAP1 SSTORE POP PUSH0 DUP1 ADD PUSH0 SWAP1 SLOAD SWAP1 PUSH2 0x100 EXP SWAP1 DIV PUSH20 0xFFFFFFFFFFFFFFFFFFFFFFFFFFFFFFFFFFFFFFFF AND PUSH20 0xFFFFFFFFFFFFFFFFFFFFFFFFFFFFFFFFFFFFFFFF AND CALLER PUSH20 0xFFFFFFFFFFFFFFFFFFFFFFFFFFFFFFFFFFFFFFFF AND SUB PUSH2 0x1037 JUMPI PUSH1 0x1 PUSH1 0x8 PUSH1 0x2 PUSH2 0x100 EXP DUP2 SLOAD DUP2 PUSH1 0xFF MUL NOT AND SWAP1 DUP4 ISZERO ISZERO MUL OR SWAP1 SSTORE POP PUSH2 0x1053 JUMP JUMPDEST PUSH1 0x1 PUSH1 0x8 PUSH1 0x3 PUSH2 0x100 EXP DUP2 SLOAD DUP2 PUSH1 0xFF MUL NOT AND SWAP1 DUP4 ISZERO ISZERO MUL OR SWAP1 SSTORE POP JUMPDEST POP POP POP JUMP JUMPDEST PUSH0 DUP1 PUSH0 ADD PUSH0 SWAP1 SLOAD SWAP1 PUSH2 0x100 EXP SWAP1 DIV PUSH20 0xFFFFFFFFFFFFFFFFFFFFFFFFFFFFFFFFFFFFFFFF AND SWAP1 DUP1 PUSH1 0x1 ADD SLOAD SWAP1 DUP1 PUSH1 0x2 ADD PUSH0 SWAP1 SLOAD SWAP1 PUSH2 0x100 EXP SWAP1 DIV PUSH1 0xFF AND SWAP1 DUP1 PUSH1 0x3 ADD SLOAD SWAP1 POP DUP5 JUMP JUMPDEST PUSH1 0x8 PUSH1 0x3 SWAP1 SLOAD SWAP1 PUSH2 0x100 EXP SWAP1 DIV PUSH1 0xFF AND DUP2 JUMP JUMPDEST PUSH0 DUP1 SHL PUSH0 PUSH1 0x1 ADD DUP2 SWAP1 SSTORE POP PUSH0 DUP1 SHL PUSH1 0x4 PUSH1 0x1 ADD DUP2 SWAP1 SSTORE POP PUSH0 DUP1 PUSH1 0x2 ADD PUSH0 PUSH2 0x100 EXP DUP2 SLOAD DUP2 PUSH1 0xFF MUL NOT AND SWAP1 DUP4 PUSH1 0x3 DUP2 GT ISZERO PUSH2 0x10EF JUMPI PUSH2 0x10EE PUSH2 0x1226 JUMP JUMPDEST JUMPDEST MUL OR SWAP1 SSTORE POP PUSH0 PUSH1 0x4 PUSH1 0x2 ADD PUSH0 PUSH2 0x100 EXP DUP2 SLOAD DUP2 PUSH1 0xFF MUL NOT AND SWAP1 DUP4 PUSH1 0x3 DUP2 GT ISZERO PUSH2 0x111B JUMPI PUSH2 0x111A PUSH2 0x1226 JUMP JUMPDEST JUMPDEST MUL OR SWAP1 SSTORE POP PUSH0 DUP1 PUSH1 0x3 ADD DUP2 SWAP1 SSTORE POP PUSH0 PUSH1 0x4 PUSH1 0x3 ADD DUP2 SWAP1 SSTORE POP PUSH0 PUSH1 0x8 PUSH0 PUSH2 0x100 EXP DUP2 SLOAD DUP2 PUSH1 0xFF MUL NOT AND SWAP1 DUP4 ISZERO ISZERO MUL OR SWAP1 SSTORE POP PUSH0 PUSH1 0x8 PUSH1 0x1 PUSH2 0x100 EXP DUP2 SLOAD DUP2 PUSH1 0xFF MUL NOT AND SWAP1 DUP4 ISZERO ISZERO MUL OR SWAP1 SSTORE POP PUSH0 PUSH1 0x8 PUSH1 0x2 PUSH2 0x100 EXP DUP2 SLOAD DUP2 PUSH1 0xFF MUL NOT AND SWAP1 DUP4 ISZERO ISZERO MUL OR SWAP1 SSTORE POP PUSH0 PUSH1 0x8 PUSH1 0x3 PUSH2 0x100 EXP DUP2 SLOAD DUP2 PUSH1 0xFF MUL NOT AND SWAP1 DUP4 ISZERO ISZERO MUL OR SWAP1 SSTORE POP JUMP JUMPDEST PUSH0 DUP2 ISZERO ISZERO SWAP1 POP SWAP2 SWAP1 POP JUMP JUMPDEST PUSH2 0x11B0 DUP2 PUSH2 0x119C JUMP JUMPDEST DUP3 MSTORE POP POP JUMP JUMPDEST PUSH0 PUSH1 0x20 DUP3 ADD SWAP1 POP PUSH2 0x11C9 PUSH0 DUP4 ADD DUP5 PUSH2 0x11A7 JUMP JUMPDEST SWAP3 SWAP2 POP POP JUMP JUMPDEST PUSH0 PUSH20 0xFFFFFFFFFFFFFFFFFFFFFFFFFFFFFFFFFFFFFFFF DUP3 AND SWAP1 POP SWAP2 SWAP1 POP JUMP JUMPDEST PUSH0 PUSH2 0x11F8 DUP3 PUSH2 0x11CF JUMP JUMPDEST SWAP1 POP SWAP2 SWAP1 POP JUMP JUMPDEST PUSH2 0x1208 DUP2 PUSH2 0x11EE JUMP JUMPDEST DUP3 MSTORE POP POP JUMP JUMPDEST PUSH0 DUP2 SWAP1 POP SWAP2 SWAP1 POP JUMP JUMPDEST PUSH2 0x1220 DUP2 PUSH2 0x120E JUMP JUMPDEST DUP3 MSTORE POP POP JUMP JUMPDEST PUSH32 0x4E487B7100000000000000000000000000000000000000000000000000000000 PUSH0 MSTORE PUSH1 0x21 PUSH1 0x4 MSTORE PUSH1 0x24 PUSH0 REVERT JUMPDEST PUSH1 0x4 DUP2 LT PUSH2 0x1264 JUMPI PUSH2 0x1263 PUSH2 0x1226 JUMP JUMPDEST JUMPDEST POP JUMP JUMPDEST PUSH0 DUP2 SWAP1 POP PUSH2 0x1274 DUP3 PUSH2 0x1253 JUMP JUMPDEST SWAP2 SWAP1 POP JUMP JUMPDEST PUSH0 PUSH2 0x1283 DUP3 PUSH2 0x1267 JUMP JUMPDEST SWAP1 POP SWAP2 SWAP1 POP JUMP JUMPDEST PUSH2 0x1293 DUP2 PUSH2 0x1279 JUMP JUMPDEST DUP3 MSTORE POP POP JUMP JUMPDEST PUSH0 DUP2 SWAP1 POP SWAP2 SWAP1 POP JUMP JUMPDEST PUSH2 0x12AB DUP2 PUSH2 0x1299 JUMP JUMPDEST DUP3 MSTORE POP POP JUMP JUMPDEST PUSH0 PUSH1 0x80 DUP3 ADD SWAP1 POP PUSH2 0x12C4 PUSH0 DUP4 ADD DUP8 PUSH2 0x11FF JUMP JUMPDEST PUSH2 0x12D1 PUSH1 0x20 DUP4 ADD DUP7 PUSH2 0x1217 JUMP JUMPDEST PUSH2 0x12DE PUSH1 0x40 DUP4 ADD DUP6 PUSH2 0x128A JUMP JUMPDEST PUSH2 0x12EB PUSH1 0x60 DUP4 ADD DUP5 PUSH2 0x12A2 JUMP JUMPDEST SWAP6 SWAP5 POP POP POP POP POP JUMP JUMPDEST PUSH0 PUSH1 0x40 MLOAD SWAP1 POP SWAP1 JUMP JUMPDEST PUSH0 DUP1 REVERT JUMPDEST PUSH0 DUP1 REVERT JUMPDEST PUSH1 0x4 DUP2 LT PUSH2 0x1311 JUMPI PUSH0 DUP1 REVERT JUMPDEST POP JUMP JUMPDEST PUSH0 DUP2 CALLDATALOAD SWAP1 POP PUSH2 0x1322 DUP2 PUSH2 0x1305 JUMP JUMPDEST SWAP3 SWAP2 POP POP JUMP JUMPDEST PUSH0 DUP1 REVERT JUMPDEST PUSH0 DUP1 REVERT JUMPDEST PUSH0 PUSH1 0x1F NOT PUSH1 0x1F DUP4 ADD AND SWAP1 POP SWAP2 SWAP1 POP JUMP JUMPDEST PUSH32 0x4E487B7100000000000000000000000000000000000000000000000000000000 PUSH0 MSTORE PUSH1 0x41 PUSH1 0x4 MSTORE PUSH1 0x24 PUSH0 REVERT JUMPDEST PUSH2 0x1376 DUP3 PUSH2 0x1330 JUMP JUMPDEST DUP2 ADD DUP2 DUP2 LT PUSH8 0xFFFFFFFFFFFFFFFF DUP3 GT OR ISZERO PUSH2 0x1395 JUMPI PUSH2 0x1394 PUSH2 0x1340 JUMP JUMPDEST JUMPDEST DUP1 PUSH1 0x40 MSTORE POP POP POP JUMP JUMPDEST PUSH0 PUSH2 0x13A7 PUSH2 0x12F4 JUMP JUMPDEST SWAP1 POP PUSH2 0x13B3 DUP3 DUP3 PUSH2 0x136D JUMP JUMPDEST SWAP2 SWAP1 POP JUMP JUMPDEST PUSH0 PUSH8 0xFFFFFFFFFFFFFFFF DUP3 GT ISZERO PUSH2 0x13D2 JUMPI PUSH2 0x13D1 PUSH2 0x1340 JUMP JUMPDEST JUMPDEST PUSH2 0x13DB DUP3 PUSH2 0x1330 JUMP JUMPDEST SWAP1 POP PUSH1 0x20 DUP2 ADD SWAP1 POP SWAP2 SWAP1 POP JUMP JUMPDEST DUP3 DUP2 DUP4 CALLDATACOPY PUSH0 DUP4 DUP4 ADD MSTORE POP POP POP JUMP JUMPDEST PUSH0 PUSH2 0x1408 PUSH2 0x1403 DUP5 PUSH2 0x13B8 JUMP JUMPDEST PUSH2 0x139E JUMP JUMPDEST SWAP1 POP DUP3 DUP2 MSTORE PUSH1 0x20 DUP2 ADD DUP5 DUP5 DUP5 ADD GT ISZERO PUSH2 0x1424 JUMPI PUSH2 0x1423 PUSH2 0x132C JUMP JUMPDEST JUMPDEST PUSH2 0x142F DUP5 DUP3 DUP6 PUSH2 0x13E8 JUMP JUMPDEST POP SWAP4 SWAP3 POP POP POP JUMP JUMPDEST PUSH0 DUP3 PUSH1 0x1F DUP4 ADD SLT PUSH2 0x144B JUMPI PUSH2 0x144A PUSH2 0x1328 JUMP JUMPDEST JUMPDEST DUP2 CALLDATALOAD PUSH2 0x145B DUP5 DUP3 PUSH1 0x20 DUP7 ADD PUSH2 0x13F6 JUMP JUMPDEST SWAP2 POP POP SWAP3 SWAP2 POP POP JUMP JUMPDEST PUSH0 DUP1 PUSH1 0x40 DUP4 DUP6 SUB SLT ISZERO PUSH2 0x147A JUMPI PUSH2 0x1479 PUSH2 0x12FD JUMP JUMPDEST JUMPDEST PUSH0 PUSH2 0x1487 DUP6 DUP3 DUP7 ADD PUSH2 0x1314 JUMP JUMPDEST SWAP3 POP POP PUSH1 0x20 DUP4 ADD CALLDATALOAD PUSH8 0xFFFFFFFFFFFFFFFF DUP2 GT ISZERO PUSH2 0x14A8 JUMPI PUSH2 0x14A7 PUSH2 0x1301 JUMP JUMPDEST JUMPDEST PUSH2 0x14B4 DUP6 DUP3 DUP7 ADD PUSH2 0x1437 JUMP JUMPDEST SWAP2 POP POP SWAP3 POP SWAP3 SWAP1 POP JUMP JUMPDEST PUSH2 0x14C7 DUP2 PUSH2 0x11EE JUMP JUMPDEST DUP2 EQ PUSH2 0x14D1 JUMPI PUSH0 DUP1 REVERT JUMPDEST POP JUMP JUMPDEST PUSH0 DUP2 CALLDATALOAD SWAP1 POP PUSH2 0x14E2 DUP2 PUSH2 0x14BE JUMP JUMPDEST SWAP3 SWAP2 POP POP JUMP JUMPDEST PUSH0 DUP1 PUSH1 0x40 DUP4 DUP6 SUB SLT ISZERO PUSH2 0x14FE JUMPI PUSH2 0x14FD PUSH2 0x12FD JUMP JUMPDEST JUMPDEST PUSH0 PUSH2 0x150B DUP6 DUP3 DUP7 ADD PUSH2 0x14D4 JUMP JUMPDEST SWAP3 POP POP PUSH1 0x20 PUSH2 0x151C DUP6 DUP3 DUP7 ADD PUSH2 0x14D4 JUMP JUMPDEST SWAP2 POP POP SWAP3 POP SWAP3 SWAP1 POP JUMP JUMPDEST PUSH0 DUP3 DUP3 MSTORE PUSH1 0x20 DUP3 ADD SWAP1 POP SWAP3 SWAP2 POP POP JUMP JUMPDEST PUSH32 0x506C6179657273206E6F74207365740000000000000000000000000000000000 PUSH0 DUP3 ADD MSTORE POP JUMP JUMPDEST PUSH0 PUSH2 0x156A PUSH1 0xF DUP4 PUSH2 0x1526 JUMP JUMPDEST SWAP2 POP PUSH2 0x1575 DUP3 PUSH2 0x1536 JUMP JUMPDEST PUSH1 0x20 DUP3 ADD SWAP1 POP SWAP2 SWAP1 POP JUMP JUMPDEST PUSH0 PUSH1 0x20 DUP3 ADD SWAP1 POP DUP2 DUP2 SUB PUSH0 DUP4 ADD MSTORE PUSH2 0x1597 DUP2 PUSH2 0x155E JUMP JUMPDEST SWAP1 POP SWAP2 SWAP1 POP JUMP JUMPDEST PUSH32 0x506C6179657273206D75737420636F6D6D697420616E642072657665616C2062 PUSH0 DUP3 ADD MSTORE PUSH32 0x65666F72652064657465726D696E696E67207468652077696E6E657200000000 PUSH1 0x20 DUP3 ADD MSTORE POP JUMP JUMPDEST PUSH0 PUSH2 0x15F8 PUSH1 0x3C DUP4 PUSH2 0x1526 JUMP JUMPDEST SWAP2 POP PUSH2 0x1603 DUP3 PUSH2 0x159E JUMP JUMPDEST PUSH1 0x40 DUP3 ADD SWAP1 POP SWAP2 SWAP1 POP JUMP JUMPDEST PUSH0 PUSH1 0x20 DUP3 ADD SWAP1 POP DUP2 DUP2 SUB PUSH0 DUP4 ADD MSTORE PUSH2 0x1625 DUP2 PUSH2 0x15EC JUMP JUMPDEST SWAP1 POP SWAP2 SWAP1 POP JUMP JUMPDEST PUSH32 0x4E487B7100000000000000000000000000000000000000000000000000000000 PUSH0 MSTORE PUSH1 0x11 PUSH1 0x4 MSTORE PUSH1 0x24 PUSH0 REVERT JUMPDEST PUSH0 PUSH2 0x1663 DUP3 PUSH2 0x1299 JUMP JUMPDEST SWAP2 POP PUSH2 0x166E DUP4 PUSH2 0x1299 JUMP JUMPDEST SWAP3 POP DUP3 DUP3 ADD SWAP1 POP DUP1 DUP3 GT ISZERO PUSH2 0x1686 JUMPI PUSH2 0x1685 PUSH2 0x162C JUMP JUMPDEST JUMPDEST SWAP3 SWAP2 POP POP JUMP JUMPDEST PUSH32 0x506C6179657220616C726561647920636F6D6D69747465640000000000000000 PUSH0 DUP3 ADD MSTORE POP JUMP JUMPDEST PUSH0 PUSH2 0x16C0 PUSH1 0x18 DUP4 PUSH2 0x1526 JUMP JUMPDEST SWAP2 POP PUSH2 0x16CB DUP3 PUSH2 0x168C JUMP JUMPDEST PUSH1 0x20 DUP3 ADD SWAP1 POP SWAP2 SWAP1 POP JUMP JUMPDEST PUSH0 PUSH1 0x20 DUP3 ADD SWAP1 POP DUP2 DUP2 SUB PUSH0 DUP4 ADD MSTORE PUSH2 0x16ED DUP2 PUSH2 0x16B4 JUMP JUMPDEST SWAP1 POP SWAP2 SWAP1 POP JUMP JUMPDEST PUSH32 0x5761676572206D7573742062652067726561746572207468616E207A65726F00 PUSH0 DUP3 ADD MSTORE POP JUMP JUMPDEST PUSH0 PUSH2 0x1728 PUSH1 0x1F DUP4 PUSH2 0x1526 JUMP JUMPDEST SWAP2 POP PUSH2 0x1733 DUP3 PUSH2 0x16F4 JUMP JUMPDEST PUSH1 0x20 DUP3 ADD SWAP1 POP SWAP2 SWAP1 POP JUMP JUMPDEST PUSH0 PUSH1 0x20 DUP3 ADD SWAP1 POP DUP2 DUP2 SUB PUSH0 DUP4 ADD MSTORE PUSH2 0x1755 DUP2 PUSH2 0x171C JUMP JUMPDEST SWAP1 POP SWAP2 SWAP1 POP JUMP JUMPDEST PUSH32 0x496E76616C69642063686F696365000000000000000000000000000000000000 PUSH0 DUP3 ADD MSTORE POP JUMP JUMPDEST PUSH0 PUSH2 0x1790 PUSH1 0xE DUP4 PUSH2 0x1526 JUMP JUMPDEST SWAP2 POP PUSH2 0x179B DUP3 PUSH2 0x175C JUMP JUMPDEST PUSH1 0x20 DUP3 ADD SWAP1 POP SWAP2 SWAP1 POP JUMP JUMPDEST PUSH0 PUSH1 0x20 DUP3 ADD SWAP1 POP DUP2 DUP2 SUB PUSH0 DUP4 ADD MSTORE PUSH2 0x17BD DUP2 PUSH2 0x1784 JUMP JUMPDEST SWAP1 POP SWAP2 SWAP1 POP JUMP JUMPDEST PUSH0 DUP2 PUSH1 0xF8 SHL SWAP1 POP SWAP2 SWAP1 POP JUMP JUMPDEST PUSH0 PUSH2 0x17DA DUP3 PUSH2 0x17C4 JUMP JUMPDEST SWAP1 POP SWAP2 SWAP1 POP JUMP JUMPDEST PUSH2 0x17F2 PUSH2 0x17ED DUP3 PUSH2 0x1279 JUMP JUMPDEST PUSH2 0x17D0 JUMP JUMPDEST DUP3 MSTORE POP POP JUMP JUMPDEST PUSH0 DUP2 MLOAD SWAP1 POP SWAP2 SWAP1 POP JUMP JUMPDEST PUSH0 DUP2 SWAP1 POP SWAP3 SWAP2 POP POP JUMP JUMPDEST DUP3 DUP2 DUP4 MCOPY PUSH0 DUP4 DUP4 ADD MSTORE POP POP POP JUMP JUMPDEST PUSH0 PUSH2 0x1824 DUP3 PUSH2 0x17F8 JUMP JUMPDEST PUSH2 0x182E DUP2 DUP6 PUSH2 0x1802 JUMP JUMPDEST SWAP4 POP PUSH2 0x183E DUP2 DUP6 PUSH1 0x20 DUP7 ADD PUSH2 0x180C JUMP JUMPDEST DUP1 DUP5 ADD SWAP2 POP POP SWAP3 SWAP2 POP POP JUMP JUMPDEST PUSH0 PUSH2 0x1855 DUP3 DUP6 PUSH2 0x17E1 JUMP JUMPDEST PUSH1 0x1 DUP3 ADD SWAP2 POP PUSH2 0x1865 DUP3 DUP5 PUSH2 0x181A JUMP JUMPDEST SWAP2 POP DUP2 SWAP1 POP SWAP4 SWAP3 POP POP POP JUMP JUMPDEST PUSH32 0x506C617965727320616C72656164792073657400000000000000000000000000 PUSH0 DUP3 ADD MSTORE POP JUMP JUMPDEST PUSH0 PUSH2 0x18A5 PUSH1 0x13 DUP4 PUSH2 0x1526 JUMP JUMPDEST SWAP2 POP PUSH2 0x18B0 DUP3 PUSH2 0x1871 JUMP JUMPDEST PUSH1 0x20 DUP3 ADD SWAP1 POP SWAP2 SWAP1 POP JUMP JUMPDEST PUSH0 PUSH1 0x20 DUP3 ADD SWAP1 POP DUP2 DUP2 SUB PUSH0 DUP4 ADD MSTORE PUSH2 0x18D2 DUP2 PUSH2 0x1899 JUMP JUMPDEST SWAP1 POP SWAP2 SWAP1 POP JUMP JUMPDEST PUSH32 0x426F746820706C6179657273206D75737420636F6D6D69742066697273740000 PUSH0 DUP3 ADD MSTORE POP JUMP JUMPDEST PUSH0 PUSH2 0x190D PUSH1 0x1E DUP4 PUSH2 0x1526 JUMP JUMPDEST SWAP2 POP PUSH2 0x1918 DUP3 PUSH2 0x18D9 JUMP JUMPDEST PUSH1 0x20 DUP3 ADD SWAP1 POP SWAP2 SWAP1 POP JUMP JUMPDEST PUSH0 PUSH1 0x20 DUP3 ADD SWAP1 POP DUP2 DUP2 SUB PUSH0 DUP4 ADD MSTORE PUSH2 0x193A DUP2 PUSH2 0x1901 JUMP JUMPDEST SWAP1 POP SWAP2 SWAP1 POP JUMP JUMPDEST PUSH32 0x496E76616C69642072657665616C210000000000000000000000000000000000 PUSH0 DUP3 ADD MSTORE POP JUMP JUMPDEST PUSH0 PUSH2 0x1975 PUSH1 0xF DUP4 PUSH2 0x1526 JUMP JUMPDEST SWAP2 POP PUSH2 0x1980 DUP3 PUSH2 0x1941 JUMP JUMPDEST PUSH1 0x20 DUP3 ADD SWAP1 POP SWAP2 SWAP1 POP JUMP JUMPDEST PUSH0 PUSH1 0x20 DUP3 ADD SWAP1 POP DUP2 DUP2 SUB PUSH0 DUP4 ADD MSTORE PUSH2 0x19A2 DUP2 PUSH2 0x1969 JUMP JUMPDEST SWAP1 POP SWAP2 SWAP1 POP JUMP INVALID LOG2 PUSH5 0x6970667358 0x22 SLT KECCAK256 CALLDATALOAD SWAP4 CHAINID PUSH9 0xB6C00332B16306F543 0xC8 0xDF MSTORE8 DUP15 0xDC 0xDC 0x1F 0xB6 PUSH29 0x1CACD6E49FFF93BF1FF364736F6C634300081A00330000000000000000 "
		},
		"gasEstimates": {
			"creation": {
				"codeDepositCost": "1324600",
				"executionCost": "98587",
				"totalCost": "1423187"
			},
			"external": {
				"commit(uint8,string)": "infinite",
				"determineWinner()": "infinite",
				"isPlayer1Committed()": "2488",
				"isPlayer1Revealed()": "2518",
				"isPlayer2Committed()": "2606",
				"isPlayer2Revealed()": "2605",
				"player1()": "9348",
				"player2()": "9328",
				"reveal(uint8,string)": "infinite",
				"setPlayers(address,address)": "infinite"
			},
			"internal": {
				"resetGame()": "165891"
			}
		},
		"methodIdentifiers": {
			"commit(uint8,string)": "737af77a",
			"determineWinner()": "33b16d93",
			"isPlayer1Committed()": "c9b21a5c",
			"isPlayer1Revealed()": "0d56fa28",
			"isPlayer2Committed()": "948b530a",
			"isPlayer2Revealed()": "e4deede9",
			"player1()": "d30895e4",
			"player2()": "59a5f12d",
			"reveal(uint8,string)": "ca3ed9e8",
			"setPlayers(address,address)": "adf3ef9f"
		}
	},
	"abi": [
		{
			"inputs": [
				{
					"internalType": "enum RockPaperScissors.Choice",
					"name": "_choice",
					"type": "uint8"
				},
				{
					"internalType": "string",
					"name": "_secret",
					"type": "string"
				}
			],
			"name": "commit",
			"outputs": [],
			"stateMutability": "payable",
			"type": "function"
		},
		{
			"inputs": [],
			"name": "determineWinner",
			"outputs": [],
			"stateMutability": "nonpayable",
			"type": "function"
		},
		{
			"inputs": [],
			"name": "isPlayer1Committed",
			"outputs": [
				{
					"internalType": "bool",
					"name": "",
					"type": "bool"
				}
			],
			"stateMutability": "view",
			"type": "function"
		},
		{
			"inputs": [],
			"name": "isPlayer1Revealed",
			"outputs": [
				{
					"internalType": "bool",
					"name": "",
					"type": "bool"
				}
			],
			"stateMutability": "view",
			"type": "function"
		},
		{
			"inputs": [],
			"name": "isPlayer2Committed",
			"outputs": [
				{
					"internalType": "bool",
					"name": "",
					"type": "bool"
				}
			],
			"stateMutability": "view",
			"type": "function"
		},
		{
			"inputs": [],
			"name": "isPlayer2Revealed",
			"outputs": [
				{
					"internalType": "bool",
					"name": "",
					"type": "bool"
				}
			],
			"stateMutability": "view",
			"type": "function"
		},
		{
			"inputs": [],
			"name": "player1",
			"outputs": [
				{
					"internalType": "address payable",
					"name": "playerAddress",
					"type": "address"
				},
				{
					"internalType": "bytes32",
					"name": "commitment",
					"type": "bytes32"
				},
				{
					"internalType": "enum RockPaperScissors.Choice",
					"name": "choice",
					"type": "uint8"
				},
				{
					"internalType": "uint256",
					"name": "wager",
					"type": "uint256"
				}
			],
			"stateMutability": "view",
			"type": "function"
		},
		{
			"inputs": [],
			"name": "player2",
			"outputs": [
				{
					"internalType": "address payable",
					"name": "playerAddress",
					"type": "address"
				},
				{
					"internalType": "bytes32",
					"name": "commitment",
					"type": "bytes32"
				},
				{
					"internalType": "enum RockPaperScissors.Choice",
					"name": "choice",
					"type": "uint8"
				},
				{
					"internalType": "uint256",
					"name": "wager",
					"type": "uint256"
				}
			],
			"stateMutability": "view",
			"type": "function"
		},
		{
			"inputs": [
				{
					"internalType": "enum RockPaperScissors.Choice",
					"name": "_choice",
					"type": "uint8"
				},
				{
					"internalType": "string",
					"name": "_secret",
					"type": "string"
				}
			],
			"name": "reveal",
			"outputs": [],
			"stateMutability": "nonpayable",
			"type": "function"
		},
		{
			"inputs": [
				{
					"internalType": "address payable",
					"name": "_player1",
					"type": "address"
				},
				{
					"internalType": "address payable",
					"name": "_player2",
					"type": "address"
				}
			],
			"name": "setPlayers",
			"outputs": [],
			"stateMutability": "nonpayable",
			"type": "function"
		}
	]
}